{
  "contractName": "SEBounty",
  "abi": [
    {
      "constant": true,
      "inputs": [],
      "name": "count",
      "outputs": [
        {
          "name": "",
          "type": "int256"
        }
      ],
      "payable": false,
      "stateMutability": "view",
      "type": "function"
    },
    {
      "constant": true,
      "inputs": [
        {
          "name": "",
          "type": "address"
        }
      ],
      "name": "answerCount",
      "outputs": [
        {
          "name": "",
          "type": "uint256"
        }
      ],
      "payable": false,
      "stateMutability": "view",
      "type": "function"
    },
    {
      "constant": false,
      "inputs": [],
      "name": "unpause",
      "outputs": [],
      "payable": false,
      "stateMutability": "nonpayable",
      "type": "function"
    },
    {
      "constant": true,
      "inputs": [],
      "name": "answerCounter",
      "outputs": [
        {
          "name": "",
          "type": "uint256"
        }
      ],
      "payable": false,
      "stateMutability": "view",
      "type": "function"
    },
    {
      "constant": true,
      "inputs": [],
      "name": "paused",
      "outputs": [
        {
          "name": "",
          "type": "bool"
        }
      ],
      "payable": false,
      "stateMutability": "view",
      "type": "function"
    },
    {
      "constant": false,
      "inputs": [],
      "name": "renounceOwnership",
      "outputs": [],
      "payable": false,
      "stateMutability": "nonpayable",
      "type": "function"
    },
    {
      "constant": true,
      "inputs": [
        {
          "name": "",
          "type": "address"
        }
      ],
      "name": "awardedTotal",
      "outputs": [
        {
          "name": "",
          "type": "uint256"
        }
      ],
      "payable": false,
      "stateMutability": "view",
      "type": "function"
    },
    {
      "constant": false,
      "inputs": [],
      "name": "destroy",
      "outputs": [],
      "payable": false,
      "stateMutability": "nonpayable",
      "type": "function"
    },
    {
      "constant": false,
      "inputs": [],
      "name": "pause",
      "outputs": [],
      "payable": false,
      "stateMutability": "nonpayable",
      "type": "function"
    },
    {
      "constant": true,
      "inputs": [
        {
          "name": "",
          "type": "address"
        }
      ],
      "name": "acceptedCount",
      "outputs": [
        {
          "name": "",
          "type": "uint256"
        }
      ],
      "payable": false,
      "stateMutability": "view",
      "type": "function"
    },
    {
      "constant": true,
      "inputs": [],
      "name": "owner",
      "outputs": [
        {
          "name": "",
          "type": "address"
        }
      ],
      "payable": false,
      "stateMutability": "view",
      "type": "function"
    },
    {
      "constant": true,
      "inputs": [],
      "name": "questionCounter",
      "outputs": [
        {
          "name": "",
          "type": "uint256"
        }
      ],
      "payable": false,
      "stateMutability": "view",
      "type": "function"
    },
    {
      "constant": true,
      "inputs": [
        {
          "name": "",
          "type": "address"
        }
      ],
      "name": "wonTotal",
      "outputs": [
        {
          "name": "",
          "type": "uint256"
        }
      ],
      "payable": false,
      "stateMutability": "view",
      "type": "function"
    },
    {
      "constant": true,
      "inputs": [
        {
          "name": "",
          "type": "uint256"
        }
      ],
      "name": "bounties",
      "outputs": [
        {
          "name": "description",
          "type": "string"
        },
        {
          "name": "questionId",
          "type": "uint256"
        },
        {
          "name": "bountyValue",
          "type": "uint256"
        },
        {
          "name": "bountyOwner",
          "type": "address"
        },
        {
          "name": "stage",
          "type": "uint8"
        },
        {
          "name": "acceptedAnswer",
          "type": "uint256"
        },
        {
          "name": "timePosted",
          "type": "uint256"
        }
      ],
      "payable": false,
      "stateMutability": "view",
      "type": "function"
    },
    {
      "constant": false,
      "inputs": [
        {
          "name": "_newOwner",
          "type": "address"
        }
      ],
      "name": "transferOwnership",
      "outputs": [],
      "payable": false,
      "stateMutability": "nonpayable",
      "type": "function"
    },
    {
      "constant": false,
      "inputs": [
        {
          "name": "_recipient",
          "type": "address"
        }
      ],
      "name": "destroyAndSend",
      "outputs": [],
      "payable": false,
      "stateMutability": "nonpayable",
      "type": "function"
    },
    {
      "constant": true,
      "inputs": [
        {
          "name": "",
          "type": "address"
        }
      ],
      "name": "bountyCount",
      "outputs": [
        {
          "name": "",
          "type": "uint256"
        }
      ],
      "payable": false,
      "stateMutability": "view",
      "type": "function"
    },
    {
      "inputs": [],
      "payable": false,
      "stateMutability": "nonpayable",
      "type": "constructor"
    },
    {
      "payable": true,
      "stateMutability": "payable",
      "type": "fallback"
    },
    {
      "anonymous": false,
      "inputs": [
        {
          "indexed": false,
          "name": "bountyIndex",
          "type": "uint256"
        },
        {
          "indexed": false,
          "name": "bountyOwner",
          "type": "address"
        },
        {
          "indexed": false,
          "name": "questionId",
          "type": "uint256"
        }
      ],
      "name": "BountyOpened",
      "type": "event"
    },
    {
      "anonymous": false,
      "inputs": [
        {
          "indexed": false,
          "name": "bountyIndex",
          "type": "uint256"
        }
      ],
      "name": "BountyAwarded",
      "type": "event"
    },
    {
      "anonymous": false,
      "inputs": [
        {
          "indexed": false,
          "name": "bountyIndex",
          "type": "uint256"
        },
        {
          "indexed": false,
          "name": "answerOwner",
          "type": "address"
        }
      ],
      "name": "BountyClaimed",
      "type": "event"
    },
    {
      "anonymous": false,
      "inputs": [
        {
          "indexed": false,
          "name": "bountyIndex",
          "type": "uint256"
        },
        {
          "indexed": false,
          "name": "bountyOwner",
          "type": "address"
        }
      ],
      "name": "BountyCancelled",
      "type": "event"
    },
    {
      "anonymous": false,
      "inputs": [
        {
          "indexed": false,
          "name": "bountyIndex",
          "type": "uint256"
        },
        {
          "indexed": false,
          "name": "answerOwner",
          "type": "address"
        },
        {
          "indexed": false,
          "name": "answerId",
          "type": "uint256"
        }
      ],
      "name": "AnswerPosted",
      "type": "event"
    },
    {
      "anonymous": false,
      "inputs": [
        {
          "indexed": false,
          "name": "withdrawalAddress",
          "type": "address"
        },
        {
          "indexed": false,
          "name": "balance",
          "type": "uint256"
        }
      ],
      "name": "EmergencyWithdrawal",
      "type": "event"
    },
    {
      "anonymous": false,
      "inputs": [
        {
          "indexed": false,
          "name": "description",
          "type": "string"
        }
      ],
      "name": "newOraclizeQuery",
      "type": "event"
    },
    {
      "anonymous": false,
      "inputs": [
        {
          "indexed": false,
          "name": "caller",
          "type": "address"
        }
      ],
      "name": "OraclizeQueryFail",
      "type": "event"
    },
    {
      "anonymous": false,
      "inputs": [
        {
          "indexed": false,
          "name": "caller",
          "type": "address"
        }
      ],
      "name": "OraclizeQuerySuccess",
      "type": "event"
    },
    {
      "anonymous": false,
      "inputs": [],
      "name": "Pause",
      "type": "event"
    },
    {
      "anonymous": false,
      "inputs": [],
      "name": "Unpause",
      "type": "event"
    },
    {
      "anonymous": false,
      "inputs": [
        {
          "indexed": true,
          "name": "previousOwner",
          "type": "address"
        }
      ],
      "name": "OwnershipRenounced",
      "type": "event"
    },
    {
      "anonymous": false,
      "inputs": [
        {
          "indexed": true,
          "name": "previousOwner",
          "type": "address"
        },
        {
          "indexed": true,
          "name": "newOwner",
          "type": "address"
        }
      ],
      "name": "OwnershipTransferred",
      "type": "event"
    },
    {
      "constant": false,
      "inputs": [
        {
          "name": "myid",
          "type": "bytes32"
        },
        {
          "name": "result",
          "type": "string"
        }
      ],
      "name": "__callback",
      "outputs": [],
      "payable": false,
      "stateMutability": "nonpayable",
      "type": "function"
    },
    {
      "constant": false,
      "inputs": [
        {
          "name": "myid",
          "type": "bytes32"
        },
        {
          "name": "result",
          "type": "string"
        },
        {
          "name": "proof",
          "type": "bytes"
        }
      ],
      "name": "__callback",
      "outputs": [],
      "payable": false,
      "stateMutability": "nonpayable",
      "type": "function"
    },
    {
      "constant": false,
      "inputs": [
        {
          "name": "_description",
          "type": "string"
        },
        {
          "name": "_questionId",
          "type": "uint256"
        }
      ],
      "name": "postBounty",
      "outputs": [],
      "payable": true,
      "stateMutability": "payable",
      "type": "function"
    },
    {
      "constant": false,
      "inputs": [
        {
          "name": "_bountyIndex",
          "type": "uint256"
        },
        {
          "name": "_answerId",
          "type": "uint256"
        }
      ],
      "name": "postAnswer",
      "outputs": [],
      "payable": false,
      "stateMutability": "nonpayable",
      "type": "function"
    },
    {
      "constant": false,
      "inputs": [
        {
          "name": "_bountyIndex",
          "type": "uint256"
        },
        {
          "name": "_answerIndex",
          "type": "uint256"
        }
      ],
      "name": "awardBounty",
      "outputs": [],
      "payable": false,
      "stateMutability": "nonpayable",
      "type": "function"
    },
    {
      "constant": false,
      "inputs": [
        {
          "name": "_bountyIndex",
          "type": "uint256"
        }
      ],
      "name": "claimBounty",
      "outputs": [],
      "payable": false,
      "stateMutability": "nonpayable",
      "type": "function"
    },
    {
      "constant": false,
      "inputs": [
        {
          "name": "_bountyIndex",
          "type": "uint256"
        }
      ],
      "name": "cancelBounty",
      "outputs": [],
      "payable": false,
      "stateMutability": "nonpayable",
      "type": "function"
    },
    {
      "constant": true,
      "inputs": [],
      "name": "getBountyCount",
      "outputs": [
        {
          "name": "",
          "type": "uint256"
        }
      ],
      "payable": false,
      "stateMutability": "view",
      "type": "function"
    },
    {
      "constant": false,
      "inputs": [
        {
          "name": "_bountyIndex",
          "type": "uint256"
        },
        {
          "name": "_answerIndex",
          "type": "uint256"
        }
      ],
      "name": "cancelAnswer",
      "outputs": [],
      "payable": false,
      "stateMutability": "nonpayable",
      "type": "function"
    },
    {
      "constant": true,
      "inputs": [
        {
          "name": "_bountyIndex",
          "type": "uint256"
        }
      ],
      "name": "getAnswers",
      "outputs": [
        {
          "name": "",
          "type": "uint256[]"
        }
      ],
      "payable": false,
      "stateMutability": "view",
      "type": "function"
    },
    {
      "constant": true,
      "inputs": [
        {
          "name": "_bountyIndex",
          "type": "uint256"
        }
      ],
      "name": "getAnswerOwners",
      "outputs": [
        {
          "name": "",
          "type": "address[]"
        }
      ],
      "payable": false,
      "stateMutability": "view",
      "type": "function"
    },
    {
      "constant": true,
      "inputs": [
        {
          "name": "_bountyIndex",
          "type": "uint256"
        }
      ],
      "name": "getAnswerCount",
      "outputs": [
        {
          "name": "",
          "type": "uint256"
        }
      ],
      "payable": false,
      "stateMutability": "view",
      "type": "function"
    },
    {
      "constant": false,
      "inputs": [],
      "name": "withdrawInEmergency",
      "outputs": [],
      "payable": false,
      "stateMutability": "nonpayable",
      "type": "function"
    },
    {
      "constant": true,
      "inputs": [],
      "name": "getBalance",
      "outputs": [
        {
          "name": "",
          "type": "uint256"
        }
      ],
      "payable": false,
      "stateMutability": "view",
      "type": "function"
    }
  ],
  "bytecode": "0x608060405260008060146101000a81548160ff02191690831515021790555060006007556000601355600060145534801561003957600080fd5b50336000806101000a81548173ffffffffffffffffffffffffffffffffffffffff021916908373ffffffffffffffffffffffffffffffffffffffff160217905550336000806101000a81548173ffffffffffffffffffffffffffffffffffffffff021916908373ffffffffffffffffffffffffffffffffffffffff160217905550614b46806100c96000396000f30060806040526004361061018b576000357c0100000000000000000000000000000000000000000000000000000000900463ffffffff16806306641f7e1461018d57806306661abd146101b857806312065fe0146101e35780631e59e02a1461020e578063265981d61461029057806327dc297e146102e757806338bbfa501461035e5780633c842c131461041b5780633f4ba83a1461045c57806344021ad714610473578063500ac8cc146104a05780635601bbe1146104d75780635898852c1461050e5780635c975abb14610539578063715018a61461056857806371a569e61461057f5780637b6d25df146105b657806383197ef01461060d5780638456cb59146106245780638d768f841461063b5780638da5cb5b14610692578063a377ee22146106e9578063b7b064a81461076b578063c4c0698d14610796578063ce3df026146107ad578063dc2f874414610804578063e5e5dff11461090e578063f18f761b1461093b578063f2fde38b146109a1578063f5074f41146109e4578063ff1fabc814610a27575b005b34801561019957600080fd5b506101a2610a7e565b6040518082815260200191505060405180910390f35b3480156101c457600080fd5b506101cd610a8b565b6040518082815260200191505060405180910390f35b3480156101ef57600080fd5b506101f8610a91565b6040518082815260200191505060405180910390f35b34801561021a57600080fd5b5061023960048036038101908080359060200190929190505050610ab0565b6040518080602001828103825283818151815260200191508051906020019060200280838360005b8381101561027c578082015181840152602081019050610261565b505050509050019250505060405180910390f35b34801561029c57600080fd5b506102d1600480360381019080803573ffffffffffffffffffffffffffffffffffffffff169060200190929190505050610b28565b6040518082815260200191505060405180910390f35b3480156102f357600080fd5b5061035c6004803603810190808035600019169060200190929190803590602001908201803590602001908080601f0160208091040260200160405190810160405280939291908181526020018383808284378201915050505050509192919290505050610b40565b005b34801561036a57600080fd5b506104196004803603810190808035600019169060200190929190803590602001908201803590602001908080601f0160208091040260200160405190810160405280939291908181526020018383808284378201915050505050509192919290803590602001908201803590602001908080601f0160208091040260200160405190810160405280939291908181526020018383808284378201915050505050509192919290505050611284565b005b34801561042757600080fd5b5061044660048036038101908080359060200190929190505050611289565b6040518082815260200191505060405180910390f35b34801561046857600080fd5b506104716112b6565b005b34801561047f57600080fd5b5061049e60048036038101908080359060200190929190505050611374565b005b3480156104ac57600080fd5b506104d560048036038101908080359060200190929190803590602001909291905050506115c6565b005b3480156104e357600080fd5b5061050c6004803603810190808035906020019092919080359060200190929190505050611978565b005b34801561051a57600080fd5b50610523611cf2565b6040518082815260200191505060405180910390f35b34801561054557600080fd5b5061054e611cf8565b604051808215151515815260200191505060405180910390f35b34801561057457600080fd5b5061057d611d0b565b005b34801561058b57600080fd5b506105b46004803603810190808035906020019092919080359060200190929190505050611e0d565b005b3480156105c257600080fd5b506105f7600480360381019080803573ffffffffffffffffffffffffffffffffffffffff1690602001909291905050506121b3565b6040518082815260200191505060405180910390f35b34801561061957600080fd5b506106226121cb565b005b34801561063057600080fd5b50610639612260565b005b34801561064757600080fd5b5061067c600480360381019080803573ffffffffffffffffffffffffffffffffffffffff169060200190929190505050612320565b6040518082815260200191505060405180910390f35b34801561069e57600080fd5b506106a7612338565b604051808273ffffffffffffffffffffffffffffffffffffffff1673ffffffffffffffffffffffffffffffffffffffff16815260200191505060405180910390f35b3480156106f557600080fd5b506107146004803603810190808035906020019092919050505061235d565b6040518080602001828103825283818151815260200191508051906020019060200280838360005b8381101561075757808201518184015260208101905061073c565b505050509050019250505060405180910390f35b34801561077757600080fd5b5061078061240b565b6040518082815260200191505060405180910390f35b3480156107a257600080fd5b506107ab612411565b005b3480156107b957600080fd5b506107ee600480360381019080803573ffffffffffffffffffffffffffffffffffffffff1690602001909291905050506124fc565b6040518082815260200191505060405180910390f35b34801561081057600080fd5b5061082f60048036038101908080359060200190929190505050612514565b60405180806020018881526020018781526020018673ffffffffffffffffffffffffffffffffffffffff1673ffffffffffffffffffffffffffffffffffffffff16815260200185600381111561088157fe5b60ff168152602001848152602001838152602001828103825289818151815260200191508051906020019080838360005b838110156108cd5780820151818401526020810190506108b2565b50505050905090810190601f1680156108fa5780820380516001836020036101000a031916815260200191505b509850505050505050505060405180910390f35b34801561091a57600080fd5b506109396004803603810190808035906020019092919050505061262a565b005b61099f600480360381019080803590602001908201803590602001908080601f016020809104026020016040519081016040528093929190818152602001838380828437820191505050505050919291929080359060200190929190505050612a0a565b005b3480156109ad57600080fd5b506109e2600480360381019080803573ffffffffffffffffffffffffffffffffffffffff169060200190929190505050612ced565b005b3480156109f057600080fd5b50610a25600480360381019080803573ffffffffffffffffffffffffffffffffffffffff169060200190929190505050612d54565b005b348015610a3357600080fd5b50610a68600480360381019080803573ffffffffffffffffffffffffffffffffffffffff169060200190929190505050612dc8565b6040518082815260200191505060405180910390f35b6000600680549050905090565b60075481565b60003073ffffffffffffffffffffffffffffffffffffffff1631905090565b6060600682815481101515610ac157fe5b9060005260206000209060090201600401805480602002602001604051908101604052809291908181526020018280548015610b1c57602002820191906000526020600020905b815481526020019060010190808311610b08575b50505050509050919050565b600a6020528060005260406000206000915090505481565b6000610b4a614584565b600080610b55612de0565b73ffffffffffffffffffffffffffffffffffffffff163373ffffffffffffffffffffffffffffffffffffffff16141515610b8e57600080fd5b6015600087600019166000191681526020019081526020016000209350600085511480610bc757508360010154610bc486613142565b14155b15610ce1577fd8ac9e1950bdb2fdfa6deeae4ec98fdba24740c3cc7a5705f867d0f6e7346a608460030160009054906101000a900473ffffffffffffffffffffffffffffffffffffffff16604051808273ffffffffffffffffffffffffffffffffffffffff1673ffffffffffffffffffffffffffffffffffffffff16815260200191505060405180910390a160156000876000191660001916815260200190815260200160002060008082016000610c7f91906145f2565b600182016000905560028201600090556003820160006101000a81549073ffffffffffffffffffffffffffffffffffffffff0219169055600482016000905560058201600090556006820160006101000a81549060ff02191690555050600080fd5b60006001811115610cee57fe5b8460060160009054906101000a900460ff166001811115610d0b57fe5b1415610f4b57610120604051908101604052806020604051908101604052806000815250815260200185600101548152602001856002015481526020018560030160009054906101000a900473ffffffffffffffffffffffffffffffffffffffff1673ffffffffffffffffffffffffffffffffffffffff16815260200160006003811115610d9557fe5b81526020016000604051908082528060200260200182016040528015610dca5781602001602082028038833980820191505090505b5081526020016000604051908082528060200260200182016040528015610e005781602001602082028038833980820191505090505b50815260200160008152602001428152509250600683908060018154018082558091505090600182039060005260206000209060090201600090919290919091506000820151816000019080519060200190610e5d92919061463a565b50602082015181600101556040820151816002015560608201518160030160006101000a81548173ffffffffffffffffffffffffffffffffffffffff021916908373ffffffffffffffffffffffffffffffffffffffff16021790555060808201518160030160146101000a81548160ff02191690836003811115610edd57fe5b021790555060a0820151816004019080519060200190610efe9291906146ba565b5060c0820151816005019080519060200190610f1b929190614707565b5060e08201518160060155610100820151816007015550505060136000815480929190600101919050555061116c565b600180811115610f5757fe5b60156000886000191660001916815260200190815260200160002060060160009054906101000a900460ff166001811115610f8e57fe5b141561116b5760156000876000191660001916815260200190815260200160002060040154915060156000876000191660001916815260200190815260200160002060030160009054906101000a900473ffffffffffffffffffffffffffffffffffffffff16905060068281548110151561100557fe5b906000526020600020906009020160040160156000886000191660001916815260200190815260200160002060050154908060018154018082558091505090600182039060005260206000200160009091929091909150555060068281548110151561106d57fe5b90600052602060002090600902016005018190806001815401808255809150509060018203906000526020600020016000909192909190916101000a81548173ffffffffffffffffffffffffffffffffffffffff021916908373ffffffffffffffffffffffffffffffffffffffff1602179055505060016006838154811015156110f357fe5b906000526020600020906009020160080160008373ffffffffffffffffffffffffffffffffffffffff1673ffffffffffffffffffffffffffffffffffffffff16815260200190815260200160002060006101000a81548160ff0219169083151502179055506014600081548092919060010191905055505b5b7f04c4121322017d0bedb67759a58d08eea6ca959ee7b49f87817060fe413d3f378460030160009054906101000a900473ffffffffffffffffffffffffffffffffffffffff16604051808273ffffffffffffffffffffffffffffffffffffffff1673ffffffffffffffffffffffffffffffffffffffff16815260200191505060405180910390a16015600087600019166000191681526020019081526020016000206000808201600061121f91906145f2565b600182016000905560028201600090556003820160006101000a81549073ffffffffffffffffffffffffffffffffffffffff0219169055600482016000905560058201600090556006820160006101000a81549060ff02191690555050505050505050565b505050565b600060068281548110151561129a57fe5b9060005260206000209060090201600401805490509050919050565b6000809054906101000a900473ffffffffffffffffffffffffffffffffffffffff1673ffffffffffffffffffffffffffffffffffffffff163373ffffffffffffffffffffffffffffffffffffffff1614151561131157600080fd5b600060149054906101000a900460ff16151561132c57600080fd5b60008060146101000a81548160ff0219169083151502179055507f7805862f689e2f13df9f062ff482ad3ad112aca9e0847911ed832e158c525b3360405160405180910390a1565b600081600060068281548110151561138857fe5b906000526020600020906009020190503373ffffffffffffffffffffffffffffffffffffffff168160050182600601548154811015156113c457fe5b9060005260206000200160009054906101000a900473ffffffffffffffffffffffffffffffffffffffff1673ffffffffffffffffffffffffffffffffffffffff1614151561141157600080fd5b83600180600381111561142057fe5b60068381548110151561142f57fe5b906000526020600020906009020160030160149054906101000a900460ff16600381111561145957fe5b14151561146557600080fd5b600060149054906101000a900460ff1615151561148157600080fd5b600260068781548110151561149257fe5b906000526020600020906009020160030160146101000a81548160ff021916908360038111156114be57fe5b02179055506006868154811015156114d257fe5b906000526020600020906009020160020154945060006006878154811015156114f757fe5b9060005260206000209060090201600201819055503373ffffffffffffffffffffffffffffffffffffffff166108fc869081150290604051600060405180830381858888f19350505050158015611552573d6000803e3d6000fd5b507fbf59c0d059a57ebf273b4b1643599fc4b48cf5effdd82113a740ed64d262ec938633604051808381526020018273ffffffffffffffffffffffffffffffffffffffff1673ffffffffffffffffffffffffffffffffffffffff1681526020019250505060405180910390a1505050505050565b600082823373ffffffffffffffffffffffffffffffffffffffff166006838154811015156115f057fe5b90600052602060002090600902016005018281548110151561160e57fe5b9060005260206000200160009054906101000a900473ffffffffffffffffffffffffffffffffffffffff1673ffffffffffffffffffffffffffffffffffffffff1614151561165b57600080fd5b84600080600381111561166a57fe5b60068381548110151561167957fe5b906000526020600020906009020160030160149054906101000a900460ff1660038111156116a357fe5b1415156116af57600080fd5b600060149054906101000a900460ff161515156116cb57600080fd5b6006878154811015156116da57fe5b906000526020600020906009020160040180549050945060018511156118415760068781548110151561170957fe5b90600052602060002090600902016004016001860381548110151561172a57fe5b906000526020600020015460068881548110151561174457fe5b90600052602060002090600902016004018781548110151561176257fe5b906000526020600020018190555060068781548110151561177f57fe5b9060005260206000209060090201600501600186038154811015156117a057fe5b9060005260206000200160009054906101000a900473ffffffffffffffffffffffffffffffffffffffff166006888154811015156117da57fe5b9060005260206000209060090201600501878154811015156117f857fe5b9060005260206000200160006101000a81548173ffffffffffffffffffffffffffffffffffffffff021916908373ffffffffffffffffffffffffffffffffffffffff1602179055505b60068781548110151561185057fe5b90600052602060002090600902016004018054809190600190036118749190614791565b5060068781548110151561188457fe5b90600052602060002090600902016005018054809190600190036118a891906147bd565b50600a60003373ffffffffffffffffffffffffffffffffffffffff1673ffffffffffffffffffffffffffffffffffffffff1681526020019081526020016000206000815480929190600190039190505550600060068881548110151561190a57fe5b906000526020600020906009020160080160003373ffffffffffffffffffffffffffffffffffffffff1673ffffffffffffffffffffffffffffffffffffffff16815260200190815260200160002060006101000a81548160ff02191690831515021790555050505050505050565b6060600060068481548110151561198b57fe5b906000526020600020906009020160080160003373ffffffffffffffffffffffffffffffffffffffff1673ffffffffffffffffffffffffffffffffffffffff16815260200190815260200160002060009054906101000a900460ff161515156119f357600080fd5b611ae4606060405190810160405280602f81526020017f6a736f6e2868747470733a2f2f6170692e737461636b65786368616e67652e6381526020017f6f6d2f322e322f616e73776572732f0000000000000000000000000000000000815250611a5c85613156565b608060405190810160405280604181526020017f3f736974653d657468657265756d266b65793d664d6367716e5476786964593881526020017f536b386e31426362512828292e6974656d735b305d2e7175657374696f6e5f6981526020017f64000000000000000000000000000000000000000000000000000000000000008152506132ad565b9150611b296040805190810160405280600381526020017f55524c0000000000000000000000000000000000000000000000000000000000815250836207a1206132e5565b905060e06040519081016040528060206040519081016040528060008152508152602001600686815481101515611b5c57fe5b9060005260206000209060090201600101548152602001600081526020013373ffffffffffffffffffffffffffffffffffffffff168152602001858152602001848152602001600180811115611bae57fe5b8152506015600083600019166000191681526020019081526020016000206000820151816000019080519060200190611be892919061463a565b50602082015181600101556040820151816002015560608201518160030160006101000a81548173ffffffffffffffffffffffffffffffffffffffff021916908373ffffffffffffffffffffffffffffffffffffffff1602179055506080820151816004015560a0820151816005015560c08201518160060160006101000a81548160ff02191690836001811115611c7c57fe5b02179055509050507f46cb989ef9cef13e930e3b7f286225a086e716a90d63e0b7da85d310a9db0c9a60405180806020018281038252601f8152602001807f4f7261636c697a6520414e53574552207175657279207761732073656e742e0081525060200191505060405180910390a150505050565b60145481565b600060149054906101000a900460ff1681565b6000809054906101000a900473ffffffffffffffffffffffffffffffffffffffff1673ffffffffffffffffffffffffffffffffffffffff163373ffffffffffffffffffffffffffffffffffffffff16141515611d6657600080fd5b6000809054906101000a900473ffffffffffffffffffffffffffffffffffffffff1673ffffffffffffffffffffffffffffffffffffffff167ff8df31144d9c2f0f6b59d69b8b98abd5459d07f2742c4df920b25aae33c6482060405160405180910390a260008060006101000a81548173ffffffffffffffffffffffffffffffffffffffff021916908373ffffffffffffffffffffffffffffffffffffffff160217905550565b6000823373ffffffffffffffffffffffffffffffffffffffff16600682815481101515611e3657fe5b906000526020600020906009020160030160009054906101000a900473ffffffffffffffffffffffffffffffffffffffff1673ffffffffffffffffffffffffffffffffffffffff16141515611e8a57600080fd5b836000806003811115611e9957fe5b600683815481101515611ea857fe5b906000526020600020906009020160030160149054906101000a900460ff166003811115611ed257fe5b141515611ede57600080fd5b600060149054906101000a900460ff16151515611efa57600080fd5b6001600687815481101515611f0b57fe5b906000526020600020906009020160030160146101000a81548160ff02191690836003811115611f3757fe5b021790555084600687815481101515611f4c57fe5b906000526020600020906009020160060181905550611fd3600687815481101515611f7357fe5b906000526020600020906009020160020154600960003373ffffffffffffffffffffffffffffffffffffffff1673ffffffffffffffffffffffffffffffffffffffff1681526020019081526020016000205461389990919063ffffffff16565b600960003373ffffffffffffffffffffffffffffffffffffffff1673ffffffffffffffffffffffffffffffffffffffff1681526020019081526020016000208190555060068681548110151561202557fe5b90600052602060002090600902016005018581548110151561204357fe5b9060005260206000200160009054906101000a900473ffffffffffffffffffffffffffffffffffffffff1693506120e260068781548110151561208257fe5b906000526020600020906009020160020154600c60008773ffffffffffffffffffffffffffffffffffffffff1673ffffffffffffffffffffffffffffffffffffffff1681526020019081526020016000205461389990919063ffffffff16565b600c60008673ffffffffffffffffffffffffffffffffffffffff1673ffffffffffffffffffffffffffffffffffffffff16815260200190815260200160002081905550600b60008573ffffffffffffffffffffffffffffffffffffffff1673ffffffffffffffffffffffffffffffffffffffff168152602001908152602001600020600081548092919060010191905055507fe23c11e55758e802697563b6797f5a7fd5d977c37d714e97f9ee381c5cfc0973866040518082815260200191505060405180910390a1505050505050565b60096020528060005260406000206000915090505481565b6000809054906101000a900473ffffffffffffffffffffffffffffffffffffffff1673ffffffffffffffffffffffffffffffffffffffff163373ffffffffffffffffffffffffffffffffffffffff1614151561222657600080fd5b6000809054906101000a900473ffffffffffffffffffffffffffffffffffffffff1673ffffffffffffffffffffffffffffffffffffffff16ff5b6000809054906101000a900473ffffffffffffffffffffffffffffffffffffffff1673ffffffffffffffffffffffffffffffffffffffff163373ffffffffffffffffffffffffffffffffffffffff161415156122bb57600080fd5b600060149054906101000a900460ff161515156122d757600080fd5b6001600060146101000a81548160ff0219169083151502179055507f6985a02210a168e66602d3235cb6db0e70f92b3ba4d376a33c0f3d9434bff62560405160405180910390a1565b600b6020528060005260406000206000915090505481565b6000809054906101000a900473ffffffffffffffffffffffffffffffffffffffff1681565b606060068281548110151561236e57fe5b90600052602060002090600902016005018054806020026020016040519081016040528092919081815260200182805480156123ff57602002820191906000526020600020905b8160009054906101000a900473ffffffffffffffffffffffffffffffffffffffff1673ffffffffffffffffffffffffffffffffffffffff16815260200190600101908083116123b5575b50505050509050919050565b60135481565b60008060149054906101000a900460ff16151561242d57600080fd5b3073ffffffffffffffffffffffffffffffffffffffff163190503373ffffffffffffffffffffffffffffffffffffffff166108fc829081150290604051600060405180830381858888f1935050505015801561248d573d6000803e3d6000fd5b507f23d6711a1d031134a36921253c75aa59e967d38e369ac625992824315e204f203382604051808373ffffffffffffffffffffffffffffffffffffffff1673ffffffffffffffffffffffffffffffffffffffff1681526020018281526020019250505060405180910390a150565b600c6020528060005260406000206000915090505481565b60068181548110151561252357fe5b9060005260206000209060090201600091509050806000018054600181600116156101000203166002900480601f0160208091040260200160405190810160405280929190818152602001828054600181600116156101000203166002900480156125cf5780601f106125a4576101008083540402835291602001916125cf565b820191906000526020600020905b8154815290600101906020018083116125b257829003601f168201915b5050505050908060010154908060020154908060030160009054906101000a900473ffffffffffffffffffffffffffffffffffffffff16908060030160149054906101000a900460ff16908060060154908060070154905087565b6000813373ffffffffffffffffffffffffffffffffffffffff1660068281548110151561265357fe5b906000526020600020906009020160030160009054906101000a900473ffffffffffffffffffffffffffffffffffffffff1673ffffffffffffffffffffffffffffffffffffffff161415156126a757600080fd5b8260008060038111156126b657fe5b6006838154811015156126c557fe5b906000526020600020906009020160030160149054906101000a900460ff1660038111156126ef57fe5b1415156126fb57600080fd5b600060149054906101000a900460ff1615151561271757600080fd5b600360068681548110151561272857fe5b906000526020600020906009020160030160146101000a81548160ff0219169083600381111561275457fe5b021790555060068581548110151561276857fe5b9060005260206000209060090201600201549350600160068054905011156128eb5760066001600680549050038154811015156127a157fe5b90600052602060002090600902016006868154811015156127be57fe5b9060005260206000209060090201600082018160000190805460018160011615610100020316600290046127f39291906147e9565b5060018201548160010155600282015481600201556003820160009054906101000a900473ffffffffffffffffffffffffffffffffffffffff168160030160006101000a81548173ffffffffffffffffffffffffffffffffffffffff021916908373ffffffffffffffffffffffffffffffffffffffff1602179055506003820160149054906101000a900460ff168160030160146101000a81548160ff021916908360038111156128a057fe5b021790555060048201816004019080546128bb929190614870565b5060058201816005019080546128d29291906148c2565b5060068201548160060155600782015481600701559050505b60068054809190600190036129009190614914565b50600860003373ffffffffffffffffffffffffffffffffffffffff1673ffffffffffffffffffffffffffffffffffffffff16815260200190815260200160002060008154809291906001900391905055503373ffffffffffffffffffffffffffffffffffffffff166108fc859081150290604051600060405180830381858888f19350505050158015612997573d6000803e3d6000fd5b507fbe34663bc2803ca9be398afdbd7e0bd537378360b743b76b170e3421fbe384508533604051808381526020018273ffffffffffffffffffffffffffffffffffffffff1673ffffffffffffffffffffffffffffffffffffffff1681526020019250505060405180910390a15050505050565b606060008034111515612a1c57600080fd5b612b0d606060405190810160405280603181526020017f6a736f6e2868747470733a2f2f6170692e737461636b65786368616e67652e6381526020017f6f6d2f322e322f7175657374696f6e732f000000000000000000000000000000815250612a8585613156565b608060405190810160405280604181526020017f3f736974653d657468657265756d266b65793d664d6367716e5476786964593881526020017f536b386e31426362512828292e6974656d735b305d2e7175657374696f6e5f6981526020017f64000000000000000000000000000000000000000000000000000000000000008152506132ad565b9150612b526040805190810160405280600381526020017f55524c0000000000000000000000000000000000000000000000000000000000815250836207a1206132e5565b905060e0604051908101604052808581526020018481526020013481526020013373ffffffffffffffffffffffffffffffffffffffff168152602001600081526020016000815260200160006001811115612ba957fe5b8152506015600083600019166000191681526020019081526020016000206000820151816000019080519060200190612be392919061463a565b50602082015181600101556040820151816002015560608201518160030160006101000a81548173ffffffffffffffffffffffffffffffffffffffff021916908373ffffffffffffffffffffffffffffffffffffffff1602179055506080820151816004015560a0820151816005015560c08201518160060160006101000a81548160ff02191690836001811115612c7757fe5b02179055509050507f46cb989ef9cef13e930e3b7f286225a086e716a90d63e0b7da85d310a9db0c9a60405180806020018281038252601f8152602001807f4f7261636c697a6520424f554e5459207175657279207761732073656e742e0081525060200191505060405180910390a150505050565b6000809054906101000a900473ffffffffffffffffffffffffffffffffffffffff1673ffffffffffffffffffffffffffffffffffffffff163373ffffffffffffffffffffffffffffffffffffffff16141515612d4857600080fd5b612d51816138b5565b50565b6000809054906101000a900473ffffffffffffffffffffffffffffffffffffffff1673ffffffffffffffffffffffffffffffffffffffff163373ffffffffffffffffffffffffffffffffffffffff16141515612daf57600080fd5b8073ffffffffffffffffffffffffffffffffffffffff16ff5b60086020528060005260406000206000915090505481565b600080600160009054906101000a900473ffffffffffffffffffffffffffffffffffffffff1673ffffffffffffffffffffffffffffffffffffffff161480612e5257506000612e50600160009054906101000a900473ffffffffffffffffffffffffffffffffffffffff166139af565b145b15612e6357612e6160006139ba565b505b600160009054906101000a900473ffffffffffffffffffffffffffffffffffffffff1673ffffffffffffffffffffffffffffffffffffffff166338cc48316040518163ffffffff167c0100000000000000000000000000000000000000000000000000000000028152600401602060405180830381600087803b158015612ee957600080fd5b505af1158015612efd573d6000803e3d6000fd5b505050506040513d6020811015612f1357600080fd5b810190808051906020019092919050505073ffffffffffffffffffffffffffffffffffffffff16600260009054906101000a900473ffffffffffffffffffffffffffffffffffffffff1673ffffffffffffffffffffffffffffffffffffffff1614151561307c57600160009054906101000a900473ffffffffffffffffffffffffffffffffffffffff1673ffffffffffffffffffffffffffffffffffffffff166338cc48316040518163ffffffff167c0100000000000000000000000000000000000000000000000000000000028152600401602060405180830381600087803b15801561300057600080fd5b505af1158015613014573d6000803e3d6000fd5b505050506040513d602081101561302a57600080fd5b8101908080519060200190929190505050600260006101000a81548173ffffffffffffffffffffffffffffffffffffffff021916908373ffffffffffffffffffffffffffffffffffffffff1602179055505b600260009054906101000a900473ffffffffffffffffffffffffffffffffffffffff1673ffffffffffffffffffffffffffffffffffffffff1663c281d19e6040518163ffffffff167c0100000000000000000000000000000000000000000000000000000000028152600401602060405180830381600087803b15801561310257600080fd5b505af1158015613116573d6000803e3d6000fd5b505050506040513d602081101561312c57600080fd5b8101908080519060200190929190505050905090565b600061314f8260006139cb565b9050919050565b606060008060606000808614156131a4576040805190810160405280600181526020017f300000000000000000000000000000000000000000000000000000000000000081525094506132a4565b8593505b6000841415156131ce578280600101935050600a848115156131c657fe5b0493506131a8565b826040519080825280601f01601f1916602001820160405280156132015781602001602082028038833980820191505090505b5091506001830390505b6000861415156132a057600a8681151561322157fe5b066030017f01000000000000000000000000000000000000000000000000000000000000000282828060019003935081518110151561325c57fe5b9060200101907effffffffffffffffffffffffffffffffffffffffffffffffffffffffffffff1916908160001a905350600a8681151561329857fe5b04955061320b565b8194505b50505050919050565b60606132dc84848460206040519081016040528060008152506020604051908101604052806000815250613cbf565b90509392505050565b6000806000600160009054906101000a900473ffffffffffffffffffffffffffffffffffffffff1673ffffffffffffffffffffffffffffffffffffffff16148061335957506000613357600160009054906101000a900473ffffffffffffffffffffffffffffffffffffffff166139af565b145b1561336a5761336860006139ba565b505b600160009054906101000a900473ffffffffffffffffffffffffffffffffffffffff1673ffffffffffffffffffffffffffffffffffffffff166338cc48316040518163ffffffff167c0100000000000000000000000000000000000000000000000000000000028152600401602060405180830381600087803b1580156133f057600080fd5b505af1158015613404573d6000803e3d6000fd5b505050506040513d602081101561341a57600080fd5b810190808051906020019092919050505073ffffffffffffffffffffffffffffffffffffffff16600260009054906101000a900473ffffffffffffffffffffffffffffffffffffffff1673ffffffffffffffffffffffffffffffffffffffff1614151561358357600160009054906101000a900473ffffffffffffffffffffffffffffffffffffffff1673ffffffffffffffffffffffffffffffffffffffff166338cc48316040518163ffffffff167c0100000000000000000000000000000000000000000000000000000000028152600401602060405180830381600087803b15801561350757600080fd5b505af115801561351b573d6000803e3d6000fd5b505050506040513d602081101561353157600080fd5b8101908080519060200190929190505050600260006101000a81548173ffffffffffffffffffffffffffffffffffffffff021916908373ffffffffffffffffffffffffffffffffffffffff1602179055505b600260009054906101000a900473ffffffffffffffffffffffffffffffffffffffff1673ffffffffffffffffffffffffffffffffffffffff16632ef3accc86856040518363ffffffff167c01000000000000000000000000000000000000000000000000000000000281526004018080602001838152602001828103825284818151815260200191508051906020019080838360005b83811015613634578082015181840152602081019050613619565b50505050905090810190601f1680156136615780820380516001836020036101000a031916815260200191505b509350505050602060405180830381600087803b15801561368157600080fd5b505af1158015613695573d6000803e3d6000fd5b505050506040513d60208110156136ab57600080fd5b81019080805190602001909291905050509050823a02670de0b6b3a7640000018111156136de5760006001029150613891565b600260009054906101000a900473ffffffffffffffffffffffffffffffffffffffff1673ffffffffffffffffffffffffffffffffffffffff1663c51be90f8260008888886040518663ffffffff167c0100000000000000000000000000000000000000000000000000000000028152600401808581526020018060200180602001848152602001838103835286818151815260200191508051906020019080838360005b8381101561379d578082015181840152602081019050613782565b50505050905090810190601f1680156137ca5780820380516001836020036101000a031916815260200191505b50838103825285818151815260200191508051906020019080838360005b838110156138035780820151818401526020810190506137e8565b50505050905090810190601f1680156138305780820380516001836020036101000a031916815260200191505b5096505050505050506020604051808303818588803b15801561385257600080fd5b505af1158015613866573d6000803e3d6000fd5b50505050506040513d602081101561387d57600080fd5b810190808051906020019092919050505091505b509392505050565b600081830190508281101515156138ac57fe5b80905092915050565b600073ffffffffffffffffffffffffffffffffffffffff168173ffffffffffffffffffffffffffffffffffffffff16141515156138f157600080fd5b8073ffffffffffffffffffffffffffffffffffffffff166000809054906101000a900473ffffffffffffffffffffffffffffffffffffffff1673ffffffffffffffffffffffffffffffffffffffff167f8be0079c531659141344cd1fd0a4f28419497f9722a3daafe3b4186f6b6457e060405160405180910390a3806000806101000a81548173ffffffffffffffffffffffffffffffffffffffff021916908373ffffffffffffffffffffffffffffffffffffffff16021790555050565b6000813b9050919050565b60006139c46140d4565b9050919050565b6000606060008060008693506000925060009150600090505b8351811015613ca05760307f0100000000000000000000000000000000000000000000000000000000000000028482815181101515613a1f57fe5b9060200101517f010000000000000000000000000000000000000000000000000000000000000090047f0100000000000000000000000000000000000000000000000000000000000000027effffffffffffffffffffffffffffffffffffffffffffffffffffffffffffff191610158015613b37575060397f0100000000000000000000000000000000000000000000000000000000000000028482815181101515613ac757fe5b9060200101517f010000000000000000000000000000000000000000000000000000000000000090047f0100000000000000000000000000000000000000000000000000000000000000027effffffffffffffffffffffffffffffffffffffffffffffffffffffffffffff191611155b15613be8578115613b5a576000861415613b5057613ca0565b8580600190039650505b600a8302925060308482815181101515613b7057fe5b9060200101517f010000000000000000000000000000000000000000000000000000000000000090047f0100000000000000000000000000000000000000000000000000000000000000027f010000000000000000000000000000000000000000000000000000000000000090040383019250613c93565b602e7f0100000000000000000000000000000000000000000000000000000000000000028482815181101515613c1a57fe5b9060200101517f010000000000000000000000000000000000000000000000000000000000000090047f0100000000000000000000000000000000000000000000000000000000000000027effffffffffffffffffffffffffffffffffffffffffffffffffffffffffffff19161415613c9257600191505b5b80806001019150506139e4565b6000861115613cb25785600a0a830292505b8294505050505092915050565b6060806060806060806060806000808e98508d97508c96508b95508a94508451865188518a518c51010101016040519080825280601f01601f191660200182016040528015613d1d5781602001602082028038833980820191505090505b50935083925060009150600090505b8851811015613ddf578881815181101515613d4357fe5b9060200101517f010000000000000000000000000000000000000000000000000000000000000090047f0100000000000000000000000000000000000000000000000000000000000000028383806001019450815181101515613da257fe5b9060200101907effffffffffffffffffffffffffffffffffffffffffffffffffffffffffffff1916908160001a9053508080600101915050613d2c565b600090505b8751811015613e97578781815181101515613dfb57fe5b9060200101517f010000000000000000000000000000000000000000000000000000000000000090047f0100000000000000000000000000000000000000000000000000000000000000028383806001019450815181101515613e5a57fe5b9060200101907effffffffffffffffffffffffffffffffffffffffffffffffffffffffffffff1916908160001a9053508080600101915050613de4565b600090505b8651811015613f4f578681815181101515613eb357fe5b9060200101517f010000000000000000000000000000000000000000000000000000000000000090047f0100000000000000000000000000000000000000000000000000000000000000028383806001019450815181101515613f1257fe5b9060200101907effffffffffffffffffffffffffffffffffffffffffffffffffffffffffffff1916908160001a9053508080600101915050613e9c565b600090505b8551811015614007578581815181101515613f6b57fe5b9060200101517f010000000000000000000000000000000000000000000000000000000000000090047f0100000000000000000000000000000000000000000000000000000000000000028383806001019450815181101515613fca57fe5b9060200101907effffffffffffffffffffffffffffffffffffffffffffffffffffffffffffff1916908160001a9053508080600101915050613f54565b600090505b84518110156140bf57848181518110151561402357fe5b9060200101517f010000000000000000000000000000000000000000000000000000000000000090047f010000000000000000000000000000000000000000000000000000000000000002838380600101945081518110151561408257fe5b9060200101907effffffffffffffffffffffffffffffffffffffffffffffffffffffffffffff1916908160001a905350808060010191505061400c565b82995050505050505050505095945050505050565b6000806140f4731d3b2638a7cc9f2cb3d298a3da7a90b67e5506ed6139af565b111561419657731d3b2638a7cc9f2cb3d298a3da7a90b67e5506ed600160006101000a81548173ffffffffffffffffffffffffffffffffffffffff021916908373ffffffffffffffffffffffffffffffffffffffff16021790555061418d6040805190810160405280600b81526020017f6574685f6d61696e6e657400000000000000000000000000000000000000000081525061456a565b60019050614567565b60006141b573c03a2615d5efaf5f49f60b7bb6583eaec212fdf16139af565b11156142575773c03a2615d5efaf5f49f60b7bb6583eaec212fdf1600160006101000a81548173ffffffffffffffffffffffffffffffffffffffff021916908373ffffffffffffffffffffffffffffffffffffffff16021790555061424e6040805190810160405280600c81526020017f6574685f726f707374656e33000000000000000000000000000000000000000081525061456a565b60019050614567565b600061427673b7a07bcf2ba2f2703b24c0691b5278999c59ac7e6139af565b11156143185773b7a07bcf2ba2f2703b24c0691b5278999c59ac7e600160006101000a81548173ffffffffffffffffffffffffffffffffffffffff021916908373ffffffffffffffffffffffffffffffffffffffff16021790555061430f6040805190810160405280600981526020017f6574685f6b6f76616e000000000000000000000000000000000000000000000081525061456a565b60019050614567565b600061433773146500cfd35b22e4a392fe0adc06de1a1368ed486139af565b11156143d95773146500cfd35b22e4a392fe0adc06de1a1368ed48600160006101000a81548173ffffffffffffffffffffffffffffffffffffffff021916908373ffffffffffffffffffffffffffffffffffffffff1602179055506143d06040805190810160405280600b81526020017f6574685f72696e6b65627900000000000000000000000000000000000000000081525061456a565b60019050614567565b60006143f8736f485c8bf6fc43ea212e93bbf8ce046c7f1cb4756139af565b111561445c57736f485c8bf6fc43ea212e93bbf8ce046c7f1cb475600160006101000a81548173ffffffffffffffffffffffffffffffffffffffff021916908373ffffffffffffffffffffffffffffffffffffffff16021790555060019050614567565b600061447b7320e12a1f859b3feae5fb2a0a32c18f5a65555bbf6139af565b11156144df577320e12a1f859b3feae5fb2a0a32c18f5a65555bbf600160006101000a81548173ffffffffffffffffffffffffffffffffffffffff021916908373ffffffffffffffffffffffffffffffffffffffff16021790555060019050614567565b60006144fe7351efaf4c8b3c9afbd5ab9f4bbc82784ab6ef8faa6139af565b1115614562577351efaf4c8b3c9afbd5ab9f4bbc82784ab6ef8faa600160006101000a81548173ffffffffffffffffffffffffffffffffffffffff021916908373ffffffffffffffffffffffffffffffffffffffff16021790555060019050614567565b600090505b90565b8060039080519060200190614580929190614946565b5050565b61012060405190810160405280606081526020016000815260200160008152602001600073ffffffffffffffffffffffffffffffffffffffff168152602001600060038111156145d057fe5b8152602001606081526020016060815260200160008152602001600081525090565b50805460018160011615610100020316600290046000825580601f106146185750614637565b601f01602090049060005260206000209081019061463691906149c6565b5b50565b828054600181600116156101000203166002900490600052602060002090601f016020900481019282601f1061467b57805160ff19168380011785556146a9565b828001600101855582156146a9579182015b828111156146a857825182559160200191906001019061468d565b5b5090506146b691906149c6565b5090565b8280548282559060005260206000209081019282156146f6579160200282015b828111156146f55782518255916020019190600101906146da565b5b50905061470391906149c6565b5090565b828054828255906000526020600020908101928215614780579160200282015b8281111561477f5782518260006101000a81548173ffffffffffffffffffffffffffffffffffffffff021916908373ffffffffffffffffffffffffffffffffffffffff16021790555091602001919060010190614727565b5b50905061478d91906149eb565b5090565b8154818355818111156147b8578183600052602060002091820191016147b791906149c6565b5b505050565b8154818355818111156147e4578183600052602060002091820191016147e391906149c6565b5b505050565b828054600181600116156101000203166002900490600052602060002090601f016020900481019282601f10614822578054855561485f565b8280016001018555821561485f57600052602060002091601f016020900482015b8281111561485e578254825591600101919060010190614843565b5b50905061486c91906149c6565b5090565b8280548282559060005260206000209081019282156148b15760005260206000209182015b828111156148b0578254825591600101919060010190614895565b5b5090506148be91906149c6565b5090565b8280548282559060005260206000209081019282156149035760005260206000209182015b828111156149025782548255916001019190600101906148e7565b5b50905061491091906149eb565b5090565b815481835581811115614941576009028160090283600052602060002091820191016149409190614a2e565b5b505050565b828054600181600116156101000203166002900490600052602060002090601f016020900481019282601f1061498757805160ff19168380011785556149b5565b828001600101855582156149b5579182015b828111156149b4578251825591602001919060010190614999565b5b5090506149c291906149c6565b5090565b6149e891905b808211156149e45760008160009055506001016149cc565b5090565b90565b614a2b91905b80821115614a2757600081816101000a81549073ffffffffffffffffffffffffffffffffffffffff0219169055506001016149f1565b5090565b90565b614ad591905b80821115614ad15760008082016000614a4d91906145f2565b600182016000905560028201600090556003820160006101000a81549073ffffffffffffffffffffffffffffffffffffffff02191690556003820160146101000a81549060ff0219169055600482016000614aa89190614ad8565b600582016000614ab89190614af9565b6006820160009055600782016000905550600901614a34565b5090565b90565b5080546000825590600052602060002090810190614af691906149c6565b50565b5080546000825590600052602060002090810190614b1791906149c6565b505600a165627a7a7230582099f864d608b7617ff2fe91add6ef95832d222d21f13376dd7b65eb97a3c940f20029",
  "source": "pragma solidity ^0.4.20;\n\nimport 'openzeppelin-solidity/contracts/ownership/Ownable.sol';\nimport 'openzeppelin-solidity/contracts/lifecycle/Destructible.sol';\nimport 'openzeppelin-solidity/contracts/lifecycle/Pausable.sol';\nimport 'openzeppelin-solidity/contracts/math/SafeMath.sol';\nimport './oraclizeAPI_0.5.sol';\n\ncontract SEBounty is Destructible, Pausable, usingOraclize {\n    using SafeMath for uint256;\n\n    event BountyOpened(uint bountyIndex, address bountyOwner, uint questionId);\n    event BountyAwarded(uint bountyIndex);\n    event BountyClaimed(uint bountyIndex, address answerOwner);\n    event BountyCancelled(uint bountyIndex, address bountyOwner);\n    event AnswerPosted(uint bountyIndex, address answerOwner, uint answerId);\n    event EmergencyWithdrawal(address withdrawalAddress, uint balance);\n\n    enum Stages {\n        Opened,\n        Awarded,\n        Claimed,\n        Cancelled\n    }\n\n    // Tightly pack by putting ints together?\n    //\n    struct Bounty {\n        string description;\n        uint questionId;\n        uint bountyValue;\n        address bountyOwner;\n        Stages stage;\n        uint[] answers;\n        address[] answerOwners;\n        uint acceptedAnswer;\n        uint timePosted;\n        mapping (address => bool) hasAnswered;\n    }\n\n    Bounty[] public bounties;\n    int public count = 0;\n    mapping (address => uint256) public bountyCount;\n    mapping (address => uint256) public awardedTotal;\n\n    mapping (address => uint256) public answerCount;\n    mapping (address => uint256) public acceptedCount;\n    mapping (address => uint256) public wonTotal;\n\n\n    string newQuestionDescription;\n    uint newQuestionId;\n    uint newQuestionValue;\n    address newQuestionOwner;\n    uint newAnswerBountyIndex;\n    uint newAnswerId;\n\n\n    // Oracle code.\n    uint public questionCounter = 0;\n    uint public answerCounter = 0;\n\n    enum OracleQuery {\n        Question,\n        Answer\n    }\n\n    struct OracleCallbackDetails {\n        string desc;\n        uint questionId;\n        uint bountyValue;\n        address bountyOwner;\n        uint bountyIndex;\n        uint answerId;\n        OracleQuery queryType;\n    }\n\n    mapping(bytes32 => OracleCallbackDetails) oracleDetails;\n    event newOraclizeQuery(string description);\n\n    event OraclizeQueryFail(address caller);\n    event OraclizeQuerySuccess(address caller);\n\n\n\n\n    modifier isBountyOwner(uint _bountyIndex) {\n        require(bounties[_bountyIndex].bountyOwner == msg.sender);\n        _;\n    }\n\n    modifier isAnswerOwner(uint _bountyIndex, uint _answerIndex) {\n        require(\n            bounties[_bountyIndex].answerOwners[_answerIndex] == msg.sender\n        );\n        _;\n    }\n\n    modifier isAcceptedAnswerOwner(uint _bountyIndex) {\n        Bounty storage bountyRef = bounties[_bountyIndex];\n        require(\n            bountyRef.answerOwners[bountyRef.acceptedAnswer] == msg.sender\n        );\n        _;\n    }\n\n    modifier atStage(uint _bountyIndex, Stages _stage) {\n        require(\n            bounties[_bountyIndex].stage == _stage\n        );\n        _;\n    }\n\n    function SEBounty() public {\n        owner = msg.sender;\n    }\n\n\n\n    function __callback(bytes32 myid, string result) public {\n        require(msg.sender == oraclize_cbAddress());\n\n        OracleCallbackDetails storage details = oracleDetails[myid];\n\n        if (bytes(result).length == 0 ||\n            parseInt(result) != details.questionId) {\n            // Event to show error.\n            OraclizeQueryFail(details.bountyOwner);\n\n            delete oracleDetails[myid];\n            revert();\n        }\n\n        if (details.queryType == OracleQuery.Question) {\n            // Parse the result as an integer, and check it matches our question\n            // ID.\n            Bounty memory newBounty = Bounty({\n                description: '',\n                questionId: details.questionId,\n                bountyValue: details.bountyValue,\n                bountyOwner: details.bountyOwner,\n                stage: Stages.Opened,\n                answers: new uint[](0),\n                answerOwners: new address[](0),\n                acceptedAnswer: 0,\n                timePosted: now\n            });\n\n            // Create the bounty and add it to the public array of bounties.\n            bounties.push(newBounty);\n            questionCounter++;\n\n        } else if (oracleDetails[myid].queryType == OracleQuery.Answer) {\n            uint index = oracleDetails[myid].bountyIndex;\n            address sender = oracleDetails[myid].bountyOwner;\n\n            bounties[index].answers.push(oracleDetails[myid].answerId);\n            bounties[index].answerOwners.push(sender);\n            bounties[index].hasAnswered[sender] = true;\n\n            answerCounter++;\n        }\n\n        // Event to show success.\n        OraclizeQuerySuccess(details.bountyOwner);\n        delete oracleDetails[myid];\n    }\n\n    function postBounty(string _description, uint _questionId)\n        public\n        payable\n    {\n        // They must send the amount of ETH with their creation request.\n        // This must be greater than nothing...\n        require(msg.value > 0);\n\n        // Use an oracle to check that this question exists, and is not closed.\n        // Revert otherwise.\n\n\n        string memory queryString = strConcat(\n            \"json(https://api.stackexchange.com/2.2/questions/\",\n            uIntToStr(_questionId),\n            \"?site=ethereum&key=fMcgqnTvxidY8Sk8n1BcbQ(().items[0].question_id\");\n\n        bytes32 oracleId = oraclize_query(\"URL\", queryString, 500000);\n\n        oracleDetails[oracleId] = OracleCallbackDetails(\n            _description,\n            _questionId,\n            msg.value,\n            msg.sender,\n            0,\n            0,\n            OracleQuery.Question);\n\n        newOraclizeQuery(\"Oraclize BOUNTY query was sent.\");\n    }\n\n    function postAnswer(uint _bountyIndex, uint _answerId)\n        public\n    {\n        require(!bounties[_bountyIndex].hasAnswered[msg.sender]);\n\n        // Use oracle to check if the posted question is valid for the given\n        // question.\n        // Use an oracle to check that this question exists, and is not closed.\n        // Revert otherwise.\n\n\n        string memory queryString = strConcat(\n            \"json(https://api.stackexchange.com/2.2/answers/\",\n            uIntToStr(_answerId),\n            \"?site=ethereum&key=fMcgqnTvxidY8Sk8n1BcbQ(().items[0].question_id\");\n\n        bytes32 oracleId = oraclize_query(\"URL\", queryString, 500000);\n\n        oracleDetails[oracleId] = OracleCallbackDetails(\n            '',\n            bounties[_bountyIndex].questionId,\n            0,\n            msg.sender,\n            _bountyIndex,\n            _answerId,\n            OracleQuery.Answer);\n\n        newOraclizeQuery(\"Oraclize ANSWER query was sent.\");\n    }\n\n\n\n\n\n\n\n\n\n    function awardBounty(uint _bountyIndex, uint _answerIndex)\n        public\n        isBountyOwner(_bountyIndex)\n        atStage(_bountyIndex, Stages.Opened)\n        whenNotPaused()\n    {\n        bounties[_bountyIndex].stage = Stages.Awarded;\n        bounties[_bountyIndex].acceptedAnswer = _answerIndex;\n\n        // Use Safemath here.\n        awardedTotal[msg.sender] =\n            awardedTotal[msg.sender].add(bounties[_bountyIndex].bountyValue);\n        address winner = bounties[_bountyIndex].answerOwners[_answerIndex];\n        wonTotal[winner] =\n            wonTotal[winner].add(bounties[_bountyIndex].bountyValue);\n        acceptedCount[winner]++;\n\n        BountyAwarded(_bountyIndex);\n    }\n\n\n    function claimBounty(uint _bountyIndex)\n        public\n        isAcceptedAnswerOwner(_bountyIndex)\n        atStage(_bountyIndex, Stages.Awarded)\n        whenNotPaused()\n    {\n        // Use the state machine to protect against reentrancy.\n        bounties[_bountyIndex].stage = Stages.Claimed;\n        uint bounty = bounties[_bountyIndex].bountyValue;\n        bounties[_bountyIndex].bountyValue = 0;\n        msg.sender.transfer(bounty);\n\n        BountyClaimed(_bountyIndex, msg.sender);\n    }\n\n\n    function cancelBounty(uint _bountyIndex)\n        public\n        isBountyOwner(_bountyIndex)\n        atStage(_bountyIndex, Stages.Opened)\n        whenNotPaused()\n    {\n        // Use the state machine to protect against reentrancy.\n        bounties[_bountyIndex].stage = Stages.Cancelled;\n        uint bounty = bounties[_bountyIndex].bountyValue;\n\n        // Don't explicitly delete. Let the compiler clean things up.\n        if (bounties.length > 1) {\n            bounties[_bountyIndex] = bounties[bounties.length - 1];\n        }\n        bounties.length--;\n        bountyCount[msg.sender]--;\n\n        msg.sender.transfer(bounty);\n\n        BountyCancelled(_bountyIndex, msg.sender);\n    }\n\n\n    function getBountyCount()\n        public\n        view\n        returns (uint)\n    {\n        return bounties.length;\n    }\n\n\n    // Answer functions.\n    function cancelAnswer(uint _bountyIndex, uint _answerIndex)\n        public\n        isAnswerOwner(_bountyIndex, _answerIndex)\n        atStage(_bountyIndex, Stages.Opened)\n        whenNotPaused()\n    {\n        uint len = bounties[_bountyIndex].answers.length;\n\n        if (len > 1) {\n            bounties[_bountyIndex].answers[_answerIndex] =\n                bounties[_bountyIndex].answers[len - 1];\n            bounties[_bountyIndex].answerOwners[_answerIndex] =\n                bounties[_bountyIndex].answerOwners[len - 1];\n        }\n        bounties[_bountyIndex].answers.length--;\n        bounties[_bountyIndex].answerOwners.length--;\n\n        answerCount[msg.sender]--;\n        bounties[_bountyIndex].hasAnswered[msg.sender] = false;\n    }\n\n    function getAnswers(uint _bountyIndex)\n        public\n        view\n        returns (uint [])\n    {\n        return bounties[_bountyIndex].answers;\n    }\n\n    function getAnswerOwners(uint _bountyIndex)\n        public\n        view\n        returns (address [])\n    {\n        return bounties[_bountyIndex].answerOwners;\n    }\n\n    function getAnswerCount(uint _bountyIndex)\n        public\n        view\n        returns (uint)\n    {\n        return bounties[_bountyIndex].answers.length;\n    }\n\n    function withdrawInEmergency()\n        public\n        whenPaused()\n    {\n        uint balance = address(this).balance;\n        msg.sender.transfer(balance);\n\n        EmergencyWithdrawal(msg.sender, balance);\n    }\n\n\n    function uIntToStr(uint i)\n        internal\n        pure\n        returns (string)\n    {\n        if (i == 0) return \"0\";\n        uint j = i;\n        uint len;\n        while (j != 0){\n            len++;\n            j /= 10;\n        }\n        bytes memory bstr = new bytes(len);\n        uint k = len - 1;\n        while (i != 0){\n            bstr[k--] = byte(48 + i % 10);\n            i /= 10;\n        }\n        return string(bstr);\n    }\n\n    function () public payable { }\n\n    function getBalance() public view returns (uint) {\n        return this.balance;\n    }\n}\n",
  "sourcePath": "/home/richard/Projects/ethereum-projects/ethereum-se-bounty/contracts/SEBounty.sol",
  "compiler": {
    "name": "solc",
    "version": "0.4.24+commit.e67f0147.Emscripten.clang"
  },
  "schemaVersion": "2.0.0",
  "updatedAt": "2018-07-28T22:05:26.321Z"
}