{
  "contractName": "SEBounty",
  "abi": [
    {
      "constant": true,
      "inputs": [
        {
          "name": "",
          "type": "address"
        }
      ],
      "name": "answerCount",
      "outputs": [
        {
          "name": "",
          "type": "uint256"
        }
      ],
      "payable": false,
      "stateMutability": "view",
      "type": "function"
    },
    {
      "constant": false,
      "inputs": [],
      "name": "unpause",
      "outputs": [],
      "payable": false,
      "stateMutability": "nonpayable",
      "type": "function"
    },
    {
      "constant": true,
      "inputs": [],
      "name": "paused",
      "outputs": [
        {
          "name": "",
          "type": "bool"
        }
      ],
      "payable": false,
      "stateMutability": "view",
      "type": "function"
    },
    {
      "constant": false,
      "inputs": [],
      "name": "renounceOwnership",
      "outputs": [],
      "payable": false,
      "stateMutability": "nonpayable",
      "type": "function"
    },
    {
      "constant": true,
      "inputs": [
        {
          "name": "",
          "type": "address"
        }
      ],
      "name": "awardedTotal",
      "outputs": [
        {
          "name": "",
          "type": "uint256"
        }
      ],
      "payable": false,
      "stateMutability": "view",
      "type": "function"
    },
    {
      "constant": false,
      "inputs": [],
      "name": "destroy",
      "outputs": [],
      "payable": false,
      "stateMutability": "nonpayable",
      "type": "function"
    },
    {
      "constant": false,
      "inputs": [],
      "name": "pause",
      "outputs": [],
      "payable": false,
      "stateMutability": "nonpayable",
      "type": "function"
    },
    {
      "constant": true,
      "inputs": [
        {
          "name": "",
          "type": "address"
        }
      ],
      "name": "acceptedCount",
      "outputs": [
        {
          "name": "",
          "type": "uint256"
        }
      ],
      "payable": false,
      "stateMutability": "view",
      "type": "function"
    },
    {
      "constant": true,
      "inputs": [],
      "name": "owner",
      "outputs": [
        {
          "name": "",
          "type": "address"
        }
      ],
      "payable": false,
      "stateMutability": "view",
      "type": "function"
    },
    {
      "constant": true,
      "inputs": [
        {
          "name": "",
          "type": "address"
        }
      ],
      "name": "wonTotal",
      "outputs": [
        {
          "name": "",
          "type": "uint256"
        }
      ],
      "payable": false,
      "stateMutability": "view",
      "type": "function"
    },
    {
      "constant": true,
      "inputs": [
        {
          "name": "",
          "type": "uint256"
        }
      ],
      "name": "bounties",
      "outputs": [
        {
          "name": "description",
          "type": "string"
        },
        {
          "name": "questionId",
          "type": "uint256"
        },
        {
          "name": "bountyValue",
          "type": "uint256"
        },
        {
          "name": "bountyOwner",
          "type": "address"
        },
        {
          "name": "stage",
          "type": "uint8"
        },
        {
          "name": "acceptedAnswer",
          "type": "uint256"
        },
        {
          "name": "timePosted",
          "type": "uint256"
        }
      ],
      "payable": false,
      "stateMutability": "view",
      "type": "function"
    },
    {
      "constant": false,
      "inputs": [
        {
          "name": "_newOwner",
          "type": "address"
        }
      ],
      "name": "transferOwnership",
      "outputs": [],
      "payable": false,
      "stateMutability": "nonpayable",
      "type": "function"
    },
    {
      "constant": false,
      "inputs": [
        {
          "name": "_recipient",
          "type": "address"
        }
      ],
      "name": "destroyAndSend",
      "outputs": [],
      "payable": false,
      "stateMutability": "nonpayable",
      "type": "function"
    },
    {
      "constant": true,
      "inputs": [
        {
          "name": "",
          "type": "address"
        }
      ],
      "name": "bountyCount",
      "outputs": [
        {
          "name": "",
          "type": "uint256"
        }
      ],
      "payable": false,
      "stateMutability": "view",
      "type": "function"
    },
    {
      "inputs": [],
      "payable": false,
      "stateMutability": "nonpayable",
      "type": "constructor"
    },
    {
      "payable": true,
      "stateMutability": "payable",
      "type": "fallback"
    },
    {
      "anonymous": false,
      "inputs": [
        {
          "indexed": false,
          "name": "bountyIndex",
          "type": "uint256"
        },
        {
          "indexed": false,
          "name": "bountyOwner",
          "type": "address"
        },
        {
          "indexed": false,
          "name": "questionId",
          "type": "uint256"
        }
      ],
      "name": "BountyOpened",
      "type": "event"
    },
    {
      "anonymous": false,
      "inputs": [
        {
          "indexed": false,
          "name": "bountyIndex",
          "type": "uint256"
        }
      ],
      "name": "BountyAwarded",
      "type": "event"
    },
    {
      "anonymous": false,
      "inputs": [
        {
          "indexed": false,
          "name": "bountyIndex",
          "type": "uint256"
        },
        {
          "indexed": false,
          "name": "answerOwner",
          "type": "address"
        }
      ],
      "name": "BountyClaimed",
      "type": "event"
    },
    {
      "anonymous": false,
      "inputs": [
        {
          "indexed": false,
          "name": "bountyIndex",
          "type": "uint256"
        },
        {
          "indexed": false,
          "name": "bountyOwner",
          "type": "address"
        }
      ],
      "name": "BountyCancelled",
      "type": "event"
    },
    {
      "anonymous": false,
      "inputs": [
        {
          "indexed": false,
          "name": "bountyIndex",
          "type": "uint256"
        },
        {
          "indexed": false,
          "name": "answerOwner",
          "type": "address"
        },
        {
          "indexed": false,
          "name": "answerId",
          "type": "uint256"
        }
      ],
      "name": "AnswerPosted",
      "type": "event"
    },
    {
      "anonymous": false,
      "inputs": [
        {
          "indexed": false,
          "name": "withdrawalAddress",
          "type": "address"
        },
        {
          "indexed": false,
          "name": "balance",
          "type": "uint256"
        }
      ],
      "name": "EmergencyWithdrawal",
      "type": "event"
    },
    {
      "anonymous": false,
      "inputs": [
        {
          "indexed": false,
          "name": "description",
          "type": "string"
        }
      ],
      "name": "newOraclizeQuery",
      "type": "event"
    },
    {
      "anonymous": false,
      "inputs": [
        {
          "indexed": false,
          "name": "caller",
          "type": "address"
        }
      ],
      "name": "OraclizeQueryFail",
      "type": "event"
    },
    {
      "anonymous": false,
      "inputs": [
        {
          "indexed": false,
          "name": "caller",
          "type": "address"
        }
      ],
      "name": "OraclizeQuerySuccess",
      "type": "event"
    },
    {
      "anonymous": false,
      "inputs": [],
      "name": "Pause",
      "type": "event"
    },
    {
      "anonymous": false,
      "inputs": [],
      "name": "Unpause",
      "type": "event"
    },
    {
      "anonymous": false,
      "inputs": [
        {
          "indexed": true,
          "name": "previousOwner",
          "type": "address"
        }
      ],
      "name": "OwnershipRenounced",
      "type": "event"
    },
    {
      "anonymous": false,
      "inputs": [
        {
          "indexed": true,
          "name": "previousOwner",
          "type": "address"
        },
        {
          "indexed": true,
          "name": "newOwner",
          "type": "address"
        }
      ],
      "name": "OwnershipTransferred",
      "type": "event"
    },
    {
      "constant": false,
      "inputs": [
        {
          "name": "myid",
          "type": "bytes32"
        },
        {
          "name": "result",
          "type": "string"
        }
      ],
      "name": "__callback",
      "outputs": [],
      "payable": false,
      "stateMutability": "nonpayable",
      "type": "function"
    },
    {
      "constant": false,
      "inputs": [
        {
          "name": "myid",
          "type": "bytes32"
        },
        {
          "name": "result",
          "type": "string"
        },
        {
          "name": "proof",
          "type": "bytes"
        }
      ],
      "name": "__callback",
      "outputs": [],
      "payable": false,
      "stateMutability": "nonpayable",
      "type": "function"
    },
    {
      "constant": false,
      "inputs": [
        {
          "name": "_description",
          "type": "string"
        },
        {
          "name": "_questionId",
          "type": "uint256"
        }
      ],
      "name": "postBounty",
      "outputs": [],
      "payable": true,
      "stateMutability": "payable",
      "type": "function"
    },
    {
      "constant": false,
      "inputs": [
        {
          "name": "_bountyIndex",
          "type": "uint256"
        },
        {
          "name": "_answerId",
          "type": "uint256"
        }
      ],
      "name": "postAnswer",
      "outputs": [],
      "payable": false,
      "stateMutability": "nonpayable",
      "type": "function"
    },
    {
      "constant": false,
      "inputs": [
        {
          "name": "_bountyIndex",
          "type": "uint256"
        },
        {
          "name": "_answerIndex",
          "type": "uint256"
        }
      ],
      "name": "awardBounty",
      "outputs": [],
      "payable": false,
      "stateMutability": "nonpayable",
      "type": "function"
    },
    {
      "constant": false,
      "inputs": [
        {
          "name": "_bountyIndex",
          "type": "uint256"
        }
      ],
      "name": "claimBounty",
      "outputs": [],
      "payable": false,
      "stateMutability": "nonpayable",
      "type": "function"
    },
    {
      "constant": false,
      "inputs": [
        {
          "name": "_bountyIndex",
          "type": "uint256"
        }
      ],
      "name": "cancelBounty",
      "outputs": [],
      "payable": false,
      "stateMutability": "nonpayable",
      "type": "function"
    },
    {
      "constant": true,
      "inputs": [],
      "name": "getBountyCount",
      "outputs": [
        {
          "name": "",
          "type": "uint256"
        }
      ],
      "payable": false,
      "stateMutability": "view",
      "type": "function"
    },
    {
      "constant": false,
      "inputs": [
        {
          "name": "_bountyIndex",
          "type": "uint256"
        },
        {
          "name": "_answerIndex",
          "type": "uint256"
        }
      ],
      "name": "cancelAnswer",
      "outputs": [],
      "payable": false,
      "stateMutability": "nonpayable",
      "type": "function"
    },
    {
      "constant": true,
      "inputs": [
        {
          "name": "_bountyIndex",
          "type": "uint256"
        }
      ],
      "name": "getAnswers",
      "outputs": [
        {
          "name": "",
          "type": "uint256[]"
        }
      ],
      "payable": false,
      "stateMutability": "view",
      "type": "function"
    },
    {
      "constant": true,
      "inputs": [
        {
          "name": "_bountyIndex",
          "type": "uint256"
        }
      ],
      "name": "getAnswerOwners",
      "outputs": [
        {
          "name": "",
          "type": "address[]"
        }
      ],
      "payable": false,
      "stateMutability": "view",
      "type": "function"
    },
    {
      "constant": true,
      "inputs": [
        {
          "name": "_bountyIndex",
          "type": "uint256"
        }
      ],
      "name": "getAnswerCount",
      "outputs": [
        {
          "name": "",
          "type": "uint256"
        }
      ],
      "payable": false,
      "stateMutability": "view",
      "type": "function"
    },
    {
      "constant": false,
      "inputs": [],
      "name": "withdrawInEmergency",
      "outputs": [],
      "payable": false,
      "stateMutability": "nonpayable",
      "type": "function"
    },
    {
      "constant": true,
      "inputs": [],
      "name": "getBalance",
      "outputs": [
        {
          "name": "",
          "type": "uint256"
        }
      ],
      "payable": false,
      "stateMutability": "view",
      "type": "function"
    }
  ],
  "bytecode": "0x608060405260008060146101000a81548160ff02191690831515021790555034801561002a57600080fd5b50336000806101000a81548173ffffffffffffffffffffffffffffffffffffffff021916908373ffffffffffffffffffffffffffffffffffffffff160217905550336000806101000a81548173ffffffffffffffffffffffffffffffffffffffff021916908373ffffffffffffffffffffffffffffffffffffffff160217905550614ae2806100ba6000396000f30060806040526004361061016a576000357c0100000000000000000000000000000000000000000000000000000000900463ffffffff16806306641f7e1461016c57806312065fe0146101975780631e59e02a146101c2578063265981d61461024457806327dc297e1461029b57806338bbfa50146103125780633c842c13146103cf5780633f4ba83a1461041057806344021ad714610427578063500ac8cc146104545780635601bbe11461048b5780635c975abb146104c2578063715018a6146104f157806371a569e6146105085780637b6d25df1461053f57806383197ef0146105965780638456cb59146105ad5780638d768f84146105c45780638da5cb5b1461061b578063a377ee2214610672578063c4c0698d146106f4578063ce3df0261461070b578063dc2f874414610762578063e5e5dff11461086c578063f18f761b14610899578063f2fde38b146108ff578063f5074f4114610942578063ff1fabc814610985575b005b34801561017857600080fd5b506101816109dc565b6040518082815260200191505060405180910390f35b3480156101a357600080fd5b506101ac6109e9565b6040518082815260200191505060405180910390f35b3480156101ce57600080fd5b506101ed60048036038101908080359060200190929190505050610a08565b6040518080602001828103825283818151815260200191508051906020019060200280838360005b83811015610230578082015181840152602081019050610215565b505050509050019250505060405180910390f35b34801561025057600080fd5b50610285600480360381019080803573ffffffffffffffffffffffffffffffffffffffff169060200190929190505050610a80565b6040518082815260200191505060405180910390f35b3480156102a757600080fd5b506103106004803603810190808035600019169060200190929190803590602001908201803590602001908080601f0160208091040260200160405190810160405280939291908181526020018383808284378201915050505050509192919290505050610a98565b005b34801561031e57600080fd5b506103cd6004803603810190808035600019169060200190929190803590602001908201803590602001908080601f0160208091040260200160405190810160405280939291908181526020018383808284378201915050505050509192919290803590602001908201803590602001908080601f016020809104026020016040519081016040528093929190818152602001838380828437820191505050505050919291929050505061122c565b005b3480156103db57600080fd5b506103fa60048036038101908080359060200190929190505050611231565b6040518082815260200191505060405180910390f35b34801561041c57600080fd5b5061042561125e565b005b34801561043357600080fd5b506104526004803603810190808035906020019092919050505061131c565b005b34801561046057600080fd5b50610489600480360381019080803590602001909291908035906020019092919050505061156e565b005b34801561049757600080fd5b506104c06004803603810190808035906020019092919080359060200190929190505050611920565b005b3480156104ce57600080fd5b506104d7611c9a565b604051808215151515815260200191505060405180910390f35b3480156104fd57600080fd5b50610506611cad565b005b34801561051457600080fd5b5061053d6004803603810190808035906020019092919080359060200190929190505050611daf565b005b34801561054b57600080fd5b50610580600480360381019080803573ffffffffffffffffffffffffffffffffffffffff169060200190929190505050612155565b6040518082815260200191505060405180910390f35b3480156105a257600080fd5b506105ab61216d565b005b3480156105b957600080fd5b506105c2612202565b005b3480156105d057600080fd5b50610605600480360381019080803573ffffffffffffffffffffffffffffffffffffffff1690602001909291905050506122c2565b6040518082815260200191505060405180910390f35b34801561062757600080fd5b506106306122da565b604051808273ffffffffffffffffffffffffffffffffffffffff1673ffffffffffffffffffffffffffffffffffffffff16815260200191505060405180910390f35b34801561067e57600080fd5b5061069d600480360381019080803590602001909291905050506122ff565b6040518080602001828103825283818151815260200191508051906020019060200280838360005b838110156106e05780820151818401526020810190506106c5565b505050509050019250505060405180910390f35b34801561070057600080fd5b506107096123ad565b005b34801561071757600080fd5b5061074c600480360381019080803573ffffffffffffffffffffffffffffffffffffffff169060200190929190505050612498565b6040518082815260200191505060405180910390f35b34801561076e57600080fd5b5061078d600480360381019080803590602001909291905050506124b0565b60405180806020018881526020018781526020018673ffffffffffffffffffffffffffffffffffffffff1673ffffffffffffffffffffffffffffffffffffffff1681526020018560038111156107df57fe5b60ff168152602001848152602001838152602001828103825289818151815260200191508051906020019080838360005b8381101561082b578082015181840152602081019050610810565b50505050905090810190601f1680156108585780820380516001836020036101000a031916815260200191505b509850505050505050505060405180910390f35b34801561087857600080fd5b50610897600480360381019080803590602001909291905050506125c6565b005b6108fd600480360381019080803590602001908201803590602001908080601f0160208091040260200160405190810160405280939291908181526020018383808284378201915050505050509192919290803590602001909291905050506129a6565b005b34801561090b57600080fd5b50610940600480360381019080803573ffffffffffffffffffffffffffffffffffffffff169060200190929190505050612c89565b005b34801561094e57600080fd5b50610983600480360381019080803573ffffffffffffffffffffffffffffffffffffffff169060200190929190505050612cf0565b005b34801561099157600080fd5b506109c6600480360381019080803573ffffffffffffffffffffffffffffffffffffffff169060200190929190505050612d64565b6040518082815260200191505060405180910390f35b6000600680549050905090565b60003073ffffffffffffffffffffffffffffffffffffffff1631905090565b6060600682815481101515610a1957fe5b9060005260206000209060090201600401805480602002602001604051908101604052809291908181526020018280548015610a7457602002820191906000526020600020905b815481526020019060010190808311610a60575b50505050509050919050565b60096020528060005260406000206000915090505481565b6000610aa2614520565b600080610aad612d7c565b73ffffffffffffffffffffffffffffffffffffffff163373ffffffffffffffffffffffffffffffffffffffff16141515610ae657600080fd5b600c600087600019166000191681526020019081526020016000209350600085511480610b1f57508360010154610b1c866130de565b14155b15610c39577fd8ac9e1950bdb2fdfa6deeae4ec98fdba24740c3cc7a5705f867d0f6e7346a608460030160009054906101000a900473ffffffffffffffffffffffffffffffffffffffff16604051808273ffffffffffffffffffffffffffffffffffffffff1673ffffffffffffffffffffffffffffffffffffffff16815260200191505060405180910390a1600c6000876000191660001916815260200190815260200160002060008082016000610bd7919061458e565b600182016000905560028201600090556003820160006101000a81549073ffffffffffffffffffffffffffffffffffffffff0219169055600482016000905560058201600090556006820160006101000a81549060ff02191690555050600080fd5b60006001811115610c4657fe5b8460060160009054906101000a900460ff166001811115610c6357fe5b1415610f0457610120604051908101604052806020604051908101604052806000815250815260200185600101548152602001856002015481526020018560030160009054906101000a900473ffffffffffffffffffffffffffffffffffffffff1673ffffffffffffffffffffffffffffffffffffffff16815260200160006003811115610ced57fe5b81526020016000604051908082528060200260200182016040528015610d225781602001602082028038833980820191505090505b5081526020016000604051908082528060200260200182016040528015610d585781602001602082028038833980820191505090505b50815260200160008152602001428152509250600683908060018154018082558091505090600182039060005260206000209060090201600090919290919091506000820151816000019080519060200190610db59291906145d6565b50602082015181600101556040820151816002015560608201518160030160006101000a81548173ffffffffffffffffffffffffffffffffffffffff021916908373ffffffffffffffffffffffffffffffffffffffff16021790555060808201518160030160146101000a81548160ff02191690836003811115610e3557fe5b021790555060a0820151816004019080519060200190610e56929190614656565b5060c0820151816005019080519060200190610e739291906146a3565b5060e082015181600601556101008201518160070155505050600760008560030160009054906101000a900473ffffffffffffffffffffffffffffffffffffffff1673ffffffffffffffffffffffffffffffffffffffff1673ffffffffffffffffffffffffffffffffffffffff16815260200190815260200160002060008154809291906001019190505550611114565b600180811115610f1057fe5b600c6000886000191660001916815260200190815260200160002060060160009054906101000a900460ff166001811115610f4757fe5b141561111357836004015491508360030160009054906101000a900473ffffffffffffffffffffffffffffffffffffffff169050600682815481101515610f8a57fe5b906000526020600020906009020160040184600501549080600181540180825580915050906001820390600052602060002001600090919290919091505550600682815481101515610fd857fe5b90600052602060002090600902016005018190806001815401808255809150509060018203906000526020600020016000909192909190916101000a81548173ffffffffffffffffffffffffffffffffffffffff021916908373ffffffffffffffffffffffffffffffffffffffff16021790555050600160068381548110151561105e57fe5b906000526020600020906009020160080160008373ffffffffffffffffffffffffffffffffffffffff1673ffffffffffffffffffffffffffffffffffffffff16815260200190815260200160002060006101000a81548160ff021916908315150217905550600960008273ffffffffffffffffffffffffffffffffffffffff1673ffffffffffffffffffffffffffffffffffffffff168152602001908152602001600020600081548092919060010191905055505b5b7f04c4121322017d0bedb67759a58d08eea6ca959ee7b49f87817060fe413d3f378460030160009054906101000a900473ffffffffffffffffffffffffffffffffffffffff16604051808273ffffffffffffffffffffffffffffffffffffffff1673ffffffffffffffffffffffffffffffffffffffff16815260200191505060405180910390a1600c60008760001916600019168152602001908152602001600020600080820160006111c7919061458e565b600182016000905560028201600090556003820160006101000a81549073ffffffffffffffffffffffffffffffffffffffff0219169055600482016000905560058201600090556006820160006101000a81549060ff02191690555050505050505050565b505050565b600060068281548110151561124257fe5b9060005260206000209060090201600401805490509050919050565b6000809054906101000a900473ffffffffffffffffffffffffffffffffffffffff1673ffffffffffffffffffffffffffffffffffffffff163373ffffffffffffffffffffffffffffffffffffffff161415156112b957600080fd5b600060149054906101000a900460ff1615156112d457600080fd5b60008060146101000a81548160ff0219169083151502179055507f7805862f689e2f13df9f062ff482ad3ad112aca9e0847911ed832e158c525b3360405160405180910390a1565b600081600060068281548110151561133057fe5b906000526020600020906009020190503373ffffffffffffffffffffffffffffffffffffffff1681600501826006015481548110151561136c57fe5b9060005260206000200160009054906101000a900473ffffffffffffffffffffffffffffffffffffffff1673ffffffffffffffffffffffffffffffffffffffff161415156113b957600080fd5b8360018060038111156113c857fe5b6006838154811015156113d757fe5b906000526020600020906009020160030160149054906101000a900460ff16600381111561140157fe5b14151561140d57600080fd5b600060149054906101000a900460ff1615151561142957600080fd5b600260068781548110151561143a57fe5b906000526020600020906009020160030160146101000a81548160ff0219169083600381111561146657fe5b021790555060068681548110151561147a57fe5b9060005260206000209060090201600201549450600060068781548110151561149f57fe5b9060005260206000209060090201600201819055503373ffffffffffffffffffffffffffffffffffffffff166108fc869081150290604051600060405180830381858888f193505050501580156114fa573d6000803e3d6000fd5b507fbf59c0d059a57ebf273b4b1643599fc4b48cf5effdd82113a740ed64d262ec938633604051808381526020018273ffffffffffffffffffffffffffffffffffffffff1673ffffffffffffffffffffffffffffffffffffffff1681526020019250505060405180910390a1505050505050565b600082823373ffffffffffffffffffffffffffffffffffffffff1660068381548110151561159857fe5b9060005260206000209060090201600501828154811015156115b657fe5b9060005260206000200160009054906101000a900473ffffffffffffffffffffffffffffffffffffffff1673ffffffffffffffffffffffffffffffffffffffff1614151561160357600080fd5b84600080600381111561161257fe5b60068381548110151561162157fe5b906000526020600020906009020160030160149054906101000a900460ff16600381111561164b57fe5b14151561165757600080fd5b600060149054906101000a900460ff1615151561167357600080fd5b60068781548110151561168257fe5b906000526020600020906009020160040180549050945060018511156117e9576006878154811015156116b157fe5b9060005260206000209060090201600401600186038154811015156116d257fe5b90600052602060002001546006888154811015156116ec57fe5b90600052602060002090600902016004018781548110151561170a57fe5b906000526020600020018190555060068781548110151561172757fe5b90600052602060002090600902016005016001860381548110151561174857fe5b9060005260206000200160009054906101000a900473ffffffffffffffffffffffffffffffffffffffff1660068881548110151561178257fe5b9060005260206000209060090201600501878154811015156117a057fe5b9060005260206000200160006101000a81548173ffffffffffffffffffffffffffffffffffffffff021916908373ffffffffffffffffffffffffffffffffffffffff1602179055505b6006878154811015156117f857fe5b906000526020600020906009020160040180548091906001900361181c919061472d565b5060068781548110151561182c57fe5b90600052602060002090600902016005018054809190600190036118509190614759565b50600960003373ffffffffffffffffffffffffffffffffffffffff1673ffffffffffffffffffffffffffffffffffffffff168152602001908152602001600020600081548092919060019003919050555060006006888154811015156118b257fe5b906000526020600020906009020160080160003373ffffffffffffffffffffffffffffffffffffffff1673ffffffffffffffffffffffffffffffffffffffff16815260200190815260200160002060006101000a81548160ff02191690831515021790555050505050505050565b6060600060068481548110151561193357fe5b906000526020600020906009020160080160003373ffffffffffffffffffffffffffffffffffffffff1673ffffffffffffffffffffffffffffffffffffffff16815260200190815260200160002060009054906101000a900460ff1615151561199b57600080fd5b611a8c606060405190810160405280602f81526020017f6a736f6e2868747470733a2f2f6170692e737461636b65786368616e67652e6381526020017f6f6d2f322e322f616e73776572732f0000000000000000000000000000000000815250611a04856130f2565b608060405190810160405280604181526020017f3f736974653d657468657265756d266b65793d664d6367716e5476786964593881526020017f536b386e31426362512828292e6974656d735b305d2e7175657374696f6e5f6981526020017f6400000000000000000000000000000000000000000000000000000000000000815250613249565b9150611ad16040805190810160405280600381526020017f55524c0000000000000000000000000000000000000000000000000000000000815250836207a120613281565b905060e06040519081016040528060206040519081016040528060008152508152602001600686815481101515611b0457fe5b9060005260206000209060090201600101548152602001600081526020013373ffffffffffffffffffffffffffffffffffffffff168152602001858152602001848152602001600180811115611b5657fe5b815250600c600083600019166000191681526020019081526020016000206000820151816000019080519060200190611b909291906145d6565b50602082015181600101556040820151816002015560608201518160030160006101000a81548173ffffffffffffffffffffffffffffffffffffffff021916908373ffffffffffffffffffffffffffffffffffffffff1602179055506080820151816004015560a0820151816005015560c08201518160060160006101000a81548160ff02191690836001811115611c2457fe5b02179055509050507f46cb989ef9cef13e930e3b7f286225a086e716a90d63e0b7da85d310a9db0c9a60405180806020018281038252601f8152602001807f4f7261636c697a6520414e53574552207175657279207761732073656e742e0081525060200191505060405180910390a150505050565b600060149054906101000a900460ff1681565b6000809054906101000a900473ffffffffffffffffffffffffffffffffffffffff1673ffffffffffffffffffffffffffffffffffffffff163373ffffffffffffffffffffffffffffffffffffffff16141515611d0857600080fd5b6000809054906101000a900473ffffffffffffffffffffffffffffffffffffffff1673ffffffffffffffffffffffffffffffffffffffff167ff8df31144d9c2f0f6b59d69b8b98abd5459d07f2742c4df920b25aae33c6482060405160405180910390a260008060006101000a81548173ffffffffffffffffffffffffffffffffffffffff021916908373ffffffffffffffffffffffffffffffffffffffff160217905550565b6000823373ffffffffffffffffffffffffffffffffffffffff16600682815481101515611dd857fe5b906000526020600020906009020160030160009054906101000a900473ffffffffffffffffffffffffffffffffffffffff1673ffffffffffffffffffffffffffffffffffffffff16141515611e2c57600080fd5b836000806003811115611e3b57fe5b600683815481101515611e4a57fe5b906000526020600020906009020160030160149054906101000a900460ff166003811115611e7457fe5b141515611e8057600080fd5b600060149054906101000a900460ff16151515611e9c57600080fd5b6001600687815481101515611ead57fe5b906000526020600020906009020160030160146101000a81548160ff02191690836003811115611ed957fe5b021790555084600687815481101515611eee57fe5b906000526020600020906009020160060181905550611f75600687815481101515611f1557fe5b906000526020600020906009020160020154600860003373ffffffffffffffffffffffffffffffffffffffff1673ffffffffffffffffffffffffffffffffffffffff1681526020019081526020016000205461383590919063ffffffff16565b600860003373ffffffffffffffffffffffffffffffffffffffff1673ffffffffffffffffffffffffffffffffffffffff16815260200190815260200160002081905550600686815481101515611fc757fe5b906000526020600020906009020160050185815481101515611fe557fe5b9060005260206000200160009054906101000a900473ffffffffffffffffffffffffffffffffffffffff16935061208460068781548110151561202457fe5b906000526020600020906009020160020154600b60008773ffffffffffffffffffffffffffffffffffffffff1673ffffffffffffffffffffffffffffffffffffffff1681526020019081526020016000205461383590919063ffffffff16565b600b60008673ffffffffffffffffffffffffffffffffffffffff1673ffffffffffffffffffffffffffffffffffffffff16815260200190815260200160002081905550600a60008573ffffffffffffffffffffffffffffffffffffffff1673ffffffffffffffffffffffffffffffffffffffff168152602001908152602001600020600081548092919060010191905055507fe23c11e55758e802697563b6797f5a7fd5d977c37d714e97f9ee381c5cfc0973866040518082815260200191505060405180910390a1505050505050565b60086020528060005260406000206000915090505481565b6000809054906101000a900473ffffffffffffffffffffffffffffffffffffffff1673ffffffffffffffffffffffffffffffffffffffff163373ffffffffffffffffffffffffffffffffffffffff161415156121c857600080fd5b6000809054906101000a900473ffffffffffffffffffffffffffffffffffffffff1673ffffffffffffffffffffffffffffffffffffffff16ff5b6000809054906101000a900473ffffffffffffffffffffffffffffffffffffffff1673ffffffffffffffffffffffffffffffffffffffff163373ffffffffffffffffffffffffffffffffffffffff1614151561225d57600080fd5b600060149054906101000a900460ff1615151561227957600080fd5b6001600060146101000a81548160ff0219169083151502179055507f6985a02210a168e66602d3235cb6db0e70f92b3ba4d376a33c0f3d9434bff62560405160405180910390a1565b600a6020528060005260406000206000915090505481565b6000809054906101000a900473ffffffffffffffffffffffffffffffffffffffff1681565b606060068281548110151561231057fe5b90600052602060002090600902016005018054806020026020016040519081016040528092919081815260200182805480156123a157602002820191906000526020600020905b8160009054906101000a900473ffffffffffffffffffffffffffffffffffffffff1673ffffffffffffffffffffffffffffffffffffffff1681526020019060010190808311612357575b50505050509050919050565b60008060149054906101000a900460ff1615156123c957600080fd5b3073ffffffffffffffffffffffffffffffffffffffff163190503373ffffffffffffffffffffffffffffffffffffffff166108fc829081150290604051600060405180830381858888f19350505050158015612429573d6000803e3d6000fd5b507f23d6711a1d031134a36921253c75aa59e967d38e369ac625992824315e204f203382604051808373ffffffffffffffffffffffffffffffffffffffff1673ffffffffffffffffffffffffffffffffffffffff1681526020018281526020019250505060405180910390a150565b600b6020528060005260406000206000915090505481565b6006818154811015156124bf57fe5b9060005260206000209060090201600091509050806000018054600181600116156101000203166002900480601f01602080910402602001604051908101604052809291908181526020018280546001816001161561010002031660029004801561256b5780601f106125405761010080835404028352916020019161256b565b820191906000526020600020905b81548152906001019060200180831161254e57829003601f168201915b5050505050908060010154908060020154908060030160009054906101000a900473ffffffffffffffffffffffffffffffffffffffff16908060030160149054906101000a900460ff16908060060154908060070154905087565b6000813373ffffffffffffffffffffffffffffffffffffffff166006828154811015156125ef57fe5b906000526020600020906009020160030160009054906101000a900473ffffffffffffffffffffffffffffffffffffffff1673ffffffffffffffffffffffffffffffffffffffff1614151561264357600080fd5b82600080600381111561265257fe5b60068381548110151561266157fe5b906000526020600020906009020160030160149054906101000a900460ff16600381111561268b57fe5b14151561269757600080fd5b600060149054906101000a900460ff161515156126b357600080fd5b60036006868154811015156126c457fe5b906000526020600020906009020160030160146101000a81548160ff021916908360038111156126f057fe5b021790555060068581548110151561270457fe5b90600052602060002090600902016002015493506001600680549050111561288757600660016006805490500381548110151561273d57fe5b906000526020600020906009020160068681548110151561275a57fe5b90600052602060002090600902016000820181600001908054600181600116156101000203166002900461278f929190614785565b5060018201548160010155600282015481600201556003820160009054906101000a900473ffffffffffffffffffffffffffffffffffffffff168160030160006101000a81548173ffffffffffffffffffffffffffffffffffffffff021916908373ffffffffffffffffffffffffffffffffffffffff1602179055506003820160149054906101000a900460ff168160030160146101000a81548160ff0219169083600381111561283c57fe5b0217905550600482018160040190805461285792919061480c565b50600582018160050190805461286e92919061485e565b5060068201548160060155600782015481600701559050505b600680548091906001900361289c91906148b0565b50600760003373ffffffffffffffffffffffffffffffffffffffff1673ffffffffffffffffffffffffffffffffffffffff16815260200190815260200160002060008154809291906001900391905055503373ffffffffffffffffffffffffffffffffffffffff166108fc859081150290604051600060405180830381858888f19350505050158015612933573d6000803e3d6000fd5b507fbe34663bc2803ca9be398afdbd7e0bd537378360b743b76b170e3421fbe384508533604051808381526020018273ffffffffffffffffffffffffffffffffffffffff1673ffffffffffffffffffffffffffffffffffffffff1681526020019250505060405180910390a15050505050565b6060600080341115156129b857600080fd5b612aa9606060405190810160405280603181526020017f6a736f6e2868747470733a2f2f6170692e737461636b65786368616e67652e6381526020017f6f6d2f322e322f7175657374696f6e732f000000000000000000000000000000815250612a21856130f2565b608060405190810160405280604181526020017f3f736974653d657468657265756d266b65793d664d6367716e5476786964593881526020017f536b386e31426362512828292e6974656d735b305d2e7175657374696f6e5f6981526020017f6400000000000000000000000000000000000000000000000000000000000000815250613249565b9150612aee6040805190810160405280600381526020017f55524c0000000000000000000000000000000000000000000000000000000000815250836207a120613281565b905060e0604051908101604052808581526020018481526020013481526020013373ffffffffffffffffffffffffffffffffffffffff168152602001600081526020016000815260200160006001811115612b4557fe5b815250600c600083600019166000191681526020019081526020016000206000820151816000019080519060200190612b7f9291906145d6565b50602082015181600101556040820151816002015560608201518160030160006101000a81548173ffffffffffffffffffffffffffffffffffffffff021916908373ffffffffffffffffffffffffffffffffffffffff1602179055506080820151816004015560a0820151816005015560c08201518160060160006101000a81548160ff02191690836001811115612c1357fe5b02179055509050507f46cb989ef9cef13e930e3b7f286225a086e716a90d63e0b7da85d310a9db0c9a60405180806020018281038252601f8152602001807f4f7261636c697a6520424f554e5459207175657279207761732073656e742e0081525060200191505060405180910390a150505050565b6000809054906101000a900473ffffffffffffffffffffffffffffffffffffffff1673ffffffffffffffffffffffffffffffffffffffff163373ffffffffffffffffffffffffffffffffffffffff16141515612ce457600080fd5b612ced81613851565b50565b6000809054906101000a900473ffffffffffffffffffffffffffffffffffffffff1673ffffffffffffffffffffffffffffffffffffffff163373ffffffffffffffffffffffffffffffffffffffff16141515612d4b57600080fd5b8073ffffffffffffffffffffffffffffffffffffffff16ff5b60076020528060005260406000206000915090505481565b600080600160009054906101000a900473ffffffffffffffffffffffffffffffffffffffff1673ffffffffffffffffffffffffffffffffffffffff161480612dee57506000612dec600160009054906101000a900473ffffffffffffffffffffffffffffffffffffffff1661394b565b145b15612dff57612dfd6000613956565b505b600160009054906101000a900473ffffffffffffffffffffffffffffffffffffffff1673ffffffffffffffffffffffffffffffffffffffff166338cc48316040518163ffffffff167c0100000000000000000000000000000000000000000000000000000000028152600401602060405180830381600087803b158015612e8557600080fd5b505af1158015612e99573d6000803e3d6000fd5b505050506040513d6020811015612eaf57600080fd5b810190808051906020019092919050505073ffffffffffffffffffffffffffffffffffffffff16600260009054906101000a900473ffffffffffffffffffffffffffffffffffffffff1673ffffffffffffffffffffffffffffffffffffffff1614151561301857600160009054906101000a900473ffffffffffffffffffffffffffffffffffffffff1673ffffffffffffffffffffffffffffffffffffffff166338cc48316040518163ffffffff167c0100000000000000000000000000000000000000000000000000000000028152600401602060405180830381600087803b158015612f9c57600080fd5b505af1158015612fb0573d6000803e3d6000fd5b505050506040513d6020811015612fc657600080fd5b8101908080519060200190929190505050600260006101000a81548173ffffffffffffffffffffffffffffffffffffffff021916908373ffffffffffffffffffffffffffffffffffffffff1602179055505b600260009054906101000a900473ffffffffffffffffffffffffffffffffffffffff1673ffffffffffffffffffffffffffffffffffffffff1663c281d19e6040518163ffffffff167c0100000000000000000000000000000000000000000000000000000000028152600401602060405180830381600087803b15801561309e57600080fd5b505af11580156130b2573d6000803e3d6000fd5b505050506040513d60208110156130c857600080fd5b8101908080519060200190929190505050905090565b60006130eb826000613967565b9050919050565b60606000806060600080861415613140576040805190810160405280600181526020017f30000000000000000000000000000000000000000000000000000000000000008152509450613240565b8593505b60008414151561316a578280600101935050600a8481151561316257fe5b049350613144565b826040519080825280601f01601f19166020018201604052801561319d5781602001602082028038833980820191505090505b5091506001830390505b60008614151561323c57600a868115156131bd57fe5b066030017f0100000000000000000000000000000000000000000000000000000000000000028282806001900393508151811015156131f857fe5b9060200101907effffffffffffffffffffffffffffffffffffffffffffffffffffffffffffff1916908160001a905350600a8681151561323457fe5b0495506131a7565b8194505b50505050919050565b606061327884848460206040519081016040528060008152506020604051908101604052806000815250613c5b565b90509392505050565b6000806000600160009054906101000a900473ffffffffffffffffffffffffffffffffffffffff1673ffffffffffffffffffffffffffffffffffffffff1614806132f5575060006132f3600160009054906101000a900473ffffffffffffffffffffffffffffffffffffffff1661394b565b145b15613306576133046000613956565b505b600160009054906101000a900473ffffffffffffffffffffffffffffffffffffffff1673ffffffffffffffffffffffffffffffffffffffff166338cc48316040518163ffffffff167c0100000000000000000000000000000000000000000000000000000000028152600401602060405180830381600087803b15801561338c57600080fd5b505af11580156133a0573d6000803e3d6000fd5b505050506040513d60208110156133b657600080fd5b810190808051906020019092919050505073ffffffffffffffffffffffffffffffffffffffff16600260009054906101000a900473ffffffffffffffffffffffffffffffffffffffff1673ffffffffffffffffffffffffffffffffffffffff1614151561351f57600160009054906101000a900473ffffffffffffffffffffffffffffffffffffffff1673ffffffffffffffffffffffffffffffffffffffff166338cc48316040518163ffffffff167c0100000000000000000000000000000000000000000000000000000000028152600401602060405180830381600087803b1580156134a357600080fd5b505af11580156134b7573d6000803e3d6000fd5b505050506040513d60208110156134cd57600080fd5b8101908080519060200190929190505050600260006101000a81548173ffffffffffffffffffffffffffffffffffffffff021916908373ffffffffffffffffffffffffffffffffffffffff1602179055505b600260009054906101000a900473ffffffffffffffffffffffffffffffffffffffff1673ffffffffffffffffffffffffffffffffffffffff16632ef3accc86856040518363ffffffff167c01000000000000000000000000000000000000000000000000000000000281526004018080602001838152602001828103825284818151815260200191508051906020019080838360005b838110156135d05780820151818401526020810190506135b5565b50505050905090810190601f1680156135fd5780820380516001836020036101000a031916815260200191505b509350505050602060405180830381600087803b15801561361d57600080fd5b505af1158015613631573d6000803e3d6000fd5b505050506040513d602081101561364757600080fd5b81019080805190602001909291905050509050823a02670de0b6b3a76400000181111561367a576000600102915061382d565b600260009054906101000a900473ffffffffffffffffffffffffffffffffffffffff1673ffffffffffffffffffffffffffffffffffffffff1663c51be90f8260008888886040518663ffffffff167c0100000000000000000000000000000000000000000000000000000000028152600401808581526020018060200180602001848152602001838103835286818151815260200191508051906020019080838360005b8381101561373957808201518184015260208101905061371e565b50505050905090810190601f1680156137665780820380516001836020036101000a031916815260200191505b50838103825285818151815260200191508051906020019080838360005b8381101561379f578082015181840152602081019050613784565b50505050905090810190601f1680156137cc5780820380516001836020036101000a031916815260200191505b5096505050505050506020604051808303818588803b1580156137ee57600080fd5b505af1158015613802573d6000803e3d6000fd5b50505050506040513d602081101561381957600080fd5b810190808051906020019092919050505091505b509392505050565b6000818301905082811015151561384857fe5b80905092915050565b600073ffffffffffffffffffffffffffffffffffffffff168173ffffffffffffffffffffffffffffffffffffffff161415151561388d57600080fd5b8073ffffffffffffffffffffffffffffffffffffffff166000809054906101000a900473ffffffffffffffffffffffffffffffffffffffff1673ffffffffffffffffffffffffffffffffffffffff167f8be0079c531659141344cd1fd0a4f28419497f9722a3daafe3b4186f6b6457e060405160405180910390a3806000806101000a81548173ffffffffffffffffffffffffffffffffffffffff021916908373ffffffffffffffffffffffffffffffffffffffff16021790555050565b6000813b9050919050565b6000613960614070565b9050919050565b6000606060008060008693506000925060009150600090505b8351811015613c3c5760307f01000000000000000000000000000000000000000000000000000000000000000284828151811015156139bb57fe5b9060200101517f010000000000000000000000000000000000000000000000000000000000000090047f0100000000000000000000000000000000000000000000000000000000000000027effffffffffffffffffffffffffffffffffffffffffffffffffffffffffffff191610158015613ad3575060397f0100000000000000000000000000000000000000000000000000000000000000028482815181101515613a6357fe5b9060200101517f010000000000000000000000000000000000000000000000000000000000000090047f0100000000000000000000000000000000000000000000000000000000000000027effffffffffffffffffffffffffffffffffffffffffffffffffffffffffffff191611155b15613b84578115613af6576000861415613aec57613c3c565b8580600190039650505b600a8302925060308482815181101515613b0c57fe5b9060200101517f010000000000000000000000000000000000000000000000000000000000000090047f0100000000000000000000000000000000000000000000000000000000000000027f010000000000000000000000000000000000000000000000000000000000000090040383019250613c2f565b602e7f0100000000000000000000000000000000000000000000000000000000000000028482815181101515613bb657fe5b9060200101517f010000000000000000000000000000000000000000000000000000000000000090047f0100000000000000000000000000000000000000000000000000000000000000027effffffffffffffffffffffffffffffffffffffffffffffffffffffffffffff19161415613c2e57600191505b5b8080600101915050613980565b6000861115613c4e5785600a0a830292505b8294505050505092915050565b6060806060806060806060806000808e98508d97508c96508b95508a94508451865188518a518c51010101016040519080825280601f01601f191660200182016040528015613cb95781602001602082028038833980820191505090505b50935083925060009150600090505b8851811015613d7b578881815181101515613cdf57fe5b9060200101517f010000000000000000000000000000000000000000000000000000000000000090047f0100000000000000000000000000000000000000000000000000000000000000028383806001019450815181101515613d3e57fe5b9060200101907effffffffffffffffffffffffffffffffffffffffffffffffffffffffffffff1916908160001a9053508080600101915050613cc8565b600090505b8751811015613e33578781815181101515613d9757fe5b9060200101517f010000000000000000000000000000000000000000000000000000000000000090047f0100000000000000000000000000000000000000000000000000000000000000028383806001019450815181101515613df657fe5b9060200101907effffffffffffffffffffffffffffffffffffffffffffffffffffffffffffff1916908160001a9053508080600101915050613d80565b600090505b8651811015613eeb578681815181101515613e4f57fe5b9060200101517f010000000000000000000000000000000000000000000000000000000000000090047f0100000000000000000000000000000000000000000000000000000000000000028383806001019450815181101515613eae57fe5b9060200101907effffffffffffffffffffffffffffffffffffffffffffffffffffffffffffff1916908160001a9053508080600101915050613e38565b600090505b8551811015613fa3578581815181101515613f0757fe5b9060200101517f010000000000000000000000000000000000000000000000000000000000000090047f0100000000000000000000000000000000000000000000000000000000000000028383806001019450815181101515613f6657fe5b9060200101907effffffffffffffffffffffffffffffffffffffffffffffffffffffffffffff1916908160001a9053508080600101915050613ef0565b600090505b845181101561405b578481815181101515613fbf57fe5b9060200101517f010000000000000000000000000000000000000000000000000000000000000090047f010000000000000000000000000000000000000000000000000000000000000002838380600101945081518110151561401e57fe5b9060200101907effffffffffffffffffffffffffffffffffffffffffffffffffffffffffffff1916908160001a9053508080600101915050613fa8565b82995050505050505050505095945050505050565b600080614090731d3b2638a7cc9f2cb3d298a3da7a90b67e5506ed61394b565b111561413257731d3b2638a7cc9f2cb3d298a3da7a90b67e5506ed600160006101000a81548173ffffffffffffffffffffffffffffffffffffffff021916908373ffffffffffffffffffffffffffffffffffffffff1602179055506141296040805190810160405280600b81526020017f6574685f6d61696e6e6574000000000000000000000000000000000000000000815250614506565b60019050614503565b600061415173c03a2615d5efaf5f49f60b7bb6583eaec212fdf161394b565b11156141f35773c03a2615d5efaf5f49f60b7bb6583eaec212fdf1600160006101000a81548173ffffffffffffffffffffffffffffffffffffffff021916908373ffffffffffffffffffffffffffffffffffffffff1602179055506141ea6040805190810160405280600c81526020017f6574685f726f707374656e330000000000000000000000000000000000000000815250614506565b60019050614503565b600061421273b7a07bcf2ba2f2703b24c0691b5278999c59ac7e61394b565b11156142b45773b7a07bcf2ba2f2703b24c0691b5278999c59ac7e600160006101000a81548173ffffffffffffffffffffffffffffffffffffffff021916908373ffffffffffffffffffffffffffffffffffffffff1602179055506142ab6040805190810160405280600981526020017f6574685f6b6f76616e0000000000000000000000000000000000000000000000815250614506565b60019050614503565b60006142d373146500cfd35b22e4a392fe0adc06de1a1368ed4861394b565b11156143755773146500cfd35b22e4a392fe0adc06de1a1368ed48600160006101000a81548173ffffffffffffffffffffffffffffffffffffffff021916908373ffffffffffffffffffffffffffffffffffffffff16021790555061436c6040805190810160405280600b81526020017f6574685f72696e6b656279000000000000000000000000000000000000000000815250614506565b60019050614503565b6000614394736f485c8bf6fc43ea212e93bbf8ce046c7f1cb47561394b565b11156143f857736f485c8bf6fc43ea212e93bbf8ce046c7f1cb475600160006101000a81548173ffffffffffffffffffffffffffffffffffffffff021916908373ffffffffffffffffffffffffffffffffffffffff16021790555060019050614503565b60006144177320e12a1f859b3feae5fb2a0a32c18f5a65555bbf61394b565b111561447b577320e12a1f859b3feae5fb2a0a32c18f5a65555bbf600160006101000a81548173ffffffffffffffffffffffffffffffffffffffff021916908373ffffffffffffffffffffffffffffffffffffffff16021790555060019050614503565b600061449a7351efaf4c8b3c9afbd5ab9f4bbc82784ab6ef8faa61394b565b11156144fe577351efaf4c8b3c9afbd5ab9f4bbc82784ab6ef8faa600160006101000a81548173ffffffffffffffffffffffffffffffffffffffff021916908373ffffffffffffffffffffffffffffffffffffffff16021790555060019050614503565b600090505b90565b806003908051906020019061451c9291906148e2565b5050565b61012060405190810160405280606081526020016000815260200160008152602001600073ffffffffffffffffffffffffffffffffffffffff1681526020016000600381111561456c57fe5b8152602001606081526020016060815260200160008152602001600081525090565b50805460018160011615610100020316600290046000825580601f106145b457506145d3565b601f0160209004906000526020600020908101906145d29190614962565b5b50565b828054600181600116156101000203166002900490600052602060002090601f016020900481019282601f1061461757805160ff1916838001178555614645565b82800160010185558215614645579182015b82811115614644578251825591602001919060010190614629565b5b5090506146529190614962565b5090565b828054828255906000526020600020908101928215614692579160200282015b82811115614691578251825591602001919060010190614676565b5b50905061469f9190614962565b5090565b82805482825590600052602060002090810192821561471c579160200282015b8281111561471b5782518260006101000a81548173ffffffffffffffffffffffffffffffffffffffff021916908373ffffffffffffffffffffffffffffffffffffffff160217905550916020019190600101906146c3565b5b5090506147299190614987565b5090565b815481835581811115614754578183600052602060002091820191016147539190614962565b5b505050565b8154818355818111156147805781836000526020600020918201910161477f9190614962565b5b505050565b828054600181600116156101000203166002900490600052602060002090601f016020900481019282601f106147be57805485556147fb565b828001600101855582156147fb57600052602060002091601f016020900482015b828111156147fa5782548255916001019190600101906147df565b5b5090506148089190614962565b5090565b82805482825590600052602060002090810192821561484d5760005260206000209182015b8281111561484c578254825591600101919060010190614831565b5b50905061485a9190614962565b5090565b82805482825590600052602060002090810192821561489f5760005260206000209182015b8281111561489e578254825591600101919060010190614883565b5b5090506148ac9190614987565b5090565b8154818355818111156148dd576009028160090283600052602060002091820191016148dc91906149ca565b5b505050565b828054600181600116156101000203166002900490600052602060002090601f016020900481019282601f1061492357805160ff1916838001178555614951565b82800160010185558215614951579182015b82811115614950578251825591602001919060010190614935565b5b50905061495e9190614962565b5090565b61498491905b80821115614980576000816000905550600101614968565b5090565b90565b6149c791905b808211156149c357600081816101000a81549073ffffffffffffffffffffffffffffffffffffffff02191690555060010161498d565b5090565b90565b614a7191905b80821115614a6d57600080820160006149e9919061458e565b600182016000905560028201600090556003820160006101000a81549073ffffffffffffffffffffffffffffffffffffffff02191690556003820160146101000a81549060ff0219169055600482016000614a449190614a74565b600582016000614a549190614a95565b60068201600090556007820160009055506009016149d0565b5090565b90565b5080546000825590600052602060002090810190614a929190614962565b50565b5080546000825590600052602060002090810190614ab39190614962565b505600a165627a7a723058203d586ca74c35d1da7693920e1324bec065d01046b6db332029844ddcc579cd150029",
  "source": "pragma solidity ^0.4.20;\n\nimport 'openzeppelin-solidity/contracts/ownership/Ownable.sol';\nimport 'openzeppelin-solidity/contracts/lifecycle/Destructible.sol';\nimport 'openzeppelin-solidity/contracts/lifecycle/Pausable.sol';\nimport 'openzeppelin-solidity/contracts/math/SafeMath.sol';\nimport './oraclizeAPI_0.5.sol';\n\ncontract SEBounty is Destructible, Pausable, usingOraclize {\n    using SafeMath for uint256;\n\n    event BountyOpened(uint bountyIndex, address bountyOwner, uint questionId);\n    event BountyAwarded(uint bountyIndex);\n    event BountyClaimed(uint bountyIndex, address answerOwner);\n    event BountyCancelled(uint bountyIndex, address bountyOwner);\n    event AnswerPosted(uint bountyIndex, address answerOwner, uint answerId);\n    event EmergencyWithdrawal(address withdrawalAddress, uint balance);\n\n    enum Stages {\n        Opened,\n        Awarded,\n        Claimed,\n        Cancelled\n    }\n\n    // Tightly pack by putting ints together?\n    //\n    struct Bounty {\n        string description;\n        uint questionId;\n        uint bountyValue;\n        address bountyOwner;\n        Stages stage;\n        uint[] answers;\n        address[] answerOwners;\n        uint acceptedAnswer;\n        uint timePosted;\n        mapping (address => bool) hasAnswered;\n    }\n\n    Bounty[] public bounties;\n    mapping (address => uint256) public bountyCount;\n    mapping (address => uint256) public awardedTotal;\n\n    mapping (address => uint256) public answerCount;\n    mapping (address => uint256) public acceptedCount;\n    mapping (address => uint256) public wonTotal;\n\n    // Oracle code.\n    enum OracleQuery {\n        Question,\n        Answer\n    }\n\n    struct OracleCallbackDetails {\n        string desc;\n        uint questionId;\n        uint bountyValue;\n        address bountyOwner;\n        uint bountyIndex;\n        uint answerId;\n        OracleQuery queryType;\n    }\n\n    mapping(bytes32 => OracleCallbackDetails) oracleDetails;\n    event newOraclizeQuery(string description);\n\n    event OraclizeQueryFail(address caller);\n    event OraclizeQuerySuccess(address caller);\n\n\n\n\n    modifier isBountyOwner(uint _bountyIndex) {\n        require(bounties[_bountyIndex].bountyOwner == msg.sender);\n        _;\n    }\n\n    modifier isAnswerOwner(uint _bountyIndex, uint _answerIndex) {\n        require(\n            bounties[_bountyIndex].answerOwners[_answerIndex] == msg.sender\n        );\n        _;\n    }\n\n    modifier isAcceptedAnswerOwner(uint _bountyIndex) {\n        Bounty storage bountyRef = bounties[_bountyIndex];\n        require(\n            bountyRef.answerOwners[bountyRef.acceptedAnswer] == msg.sender\n        );\n        _;\n    }\n\n    modifier atStage(uint _bountyIndex, Stages _stage) {\n        require(\n            bounties[_bountyIndex].stage == _stage\n        );\n        _;\n    }\n\n    function SEBounty() public {\n        owner = msg.sender;\n    }\n\n\n\n    function __callback(bytes32 myid, string result) public {\n        require(msg.sender == oraclize_cbAddress());\n\n        OracleCallbackDetails storage details = oracleDetails[myid];\n\n        if (bytes(result).length == 0 ||\n            parseInt(result) != details.questionId) {\n            // Event to show error.\n            OraclizeQueryFail(details.bountyOwner);\n\n            delete oracleDetails[myid];\n            revert();\n        }\n\n        if (details.queryType == OracleQuery.Question) {\n            // Parse the result as an integer, and check it matches our question\n            // ID.\n            Bounty memory newBounty = Bounty({\n                description: '',\n                questionId: details.questionId,\n                bountyValue: details.bountyValue,\n                bountyOwner: details.bountyOwner,\n                stage: Stages.Opened,\n                answers: new uint[](0),\n                answerOwners: new address[](0),\n                acceptedAnswer: 0,\n                timePosted: now\n            });\n\n            // Create the bounty and add it to the public array of bounties.\n            bounties.push(newBounty);\n            bountyCount[details.bountyOwner]++;\n\n        } else if (oracleDetails[myid].queryType == OracleQuery.Answer) {\n            uint index = details.bountyIndex;\n            address sender = details.bountyOwner;\n\n            bounties[index].answers.push(details.answerId);\n            bounties[index].answerOwners.push(sender);\n            bounties[index].hasAnswered[sender] = true;\n            answerCount[sender]++;\n        }\n\n        // Event to show success.\n        OraclizeQuerySuccess(details.bountyOwner);\n        delete oracleDetails[myid];\n    }\n\n    function postBounty(string _description, uint _questionId)\n        public\n        payable\n    {\n        // They must send the amount of ETH with their creation request.\n        // This must be greater than nothing...\n        require(msg.value > 0);\n\n        // Use an oracle to check that this question exists, and is not closed.\n        // Revert otherwise.\n\n\n        string memory queryString = strConcat(\n            \"json(https://api.stackexchange.com/2.2/questions/\",\n            uIntToStr(_questionId),\n            \"?site=ethereum&key=fMcgqnTvxidY8Sk8n1BcbQ(().items[0].question_id\");\n\n        bytes32 oracleId = oraclize_query(\"URL\", queryString, 500000);\n\n        oracleDetails[oracleId] = OracleCallbackDetails(\n            _description,\n            _questionId,\n            msg.value,\n            msg.sender,\n            0,\n            0,\n            OracleQuery.Question);\n\n        newOraclizeQuery(\"Oraclize BOUNTY query was sent.\");\n    }\n\n    function postAnswer(uint _bountyIndex, uint _answerId)\n        public\n    {\n        require(!bounties[_bountyIndex].hasAnswered[msg.sender]);\n\n        // Use oracle to check if the posted question is valid for the given\n        // question.\n        // Use an oracle to check that this question exists, and is not closed.\n        // Revert otherwise.\n\n\n        string memory queryString = strConcat(\n            \"json(https://api.stackexchange.com/2.2/answers/\",\n            uIntToStr(_answerId),\n            \"?site=ethereum&key=fMcgqnTvxidY8Sk8n1BcbQ(().items[0].question_id\");\n\n        bytes32 oracleId = oraclize_query(\"URL\", queryString, 500000);\n\n        oracleDetails[oracleId] = OracleCallbackDetails(\n            '',\n            bounties[_bountyIndex].questionId,\n            0,\n            msg.sender,\n            _bountyIndex,\n            _answerId,\n            OracleQuery.Answer);\n\n        newOraclizeQuery(\"Oraclize ANSWER query was sent.\");\n    }\n\n\n\n\n\n\n\n\n\n    function awardBounty(uint _bountyIndex, uint _answerIndex)\n        public\n        isBountyOwner(_bountyIndex)\n        atStage(_bountyIndex, Stages.Opened)\n        whenNotPaused()\n    {\n        bounties[_bountyIndex].stage = Stages.Awarded;\n        bounties[_bountyIndex].acceptedAnswer = _answerIndex;\n\n        // Use Safemath here.\n        awardedTotal[msg.sender] =\n            awardedTotal[msg.sender].add(bounties[_bountyIndex].bountyValue);\n        address winner = bounties[_bountyIndex].answerOwners[_answerIndex];\n        wonTotal[winner] =\n            wonTotal[winner].add(bounties[_bountyIndex].bountyValue);\n        acceptedCount[winner]++;\n\n        BountyAwarded(_bountyIndex);\n    }\n\n\n    function claimBounty(uint _bountyIndex)\n        public\n        isAcceptedAnswerOwner(_bountyIndex)\n        atStage(_bountyIndex, Stages.Awarded)\n        whenNotPaused()\n    {\n        // Use the state machine to protect against reentrancy.\n        bounties[_bountyIndex].stage = Stages.Claimed;\n        uint bounty = bounties[_bountyIndex].bountyValue;\n        bounties[_bountyIndex].bountyValue = 0;\n        msg.sender.transfer(bounty);\n\n        BountyClaimed(_bountyIndex, msg.sender);\n    }\n\n\n    function cancelBounty(uint _bountyIndex)\n        public\n        isBountyOwner(_bountyIndex)\n        atStage(_bountyIndex, Stages.Opened)\n        whenNotPaused()\n    {\n        // Use the state machine to protect against reentrancy.\n        bounties[_bountyIndex].stage = Stages.Cancelled;\n        uint bounty = bounties[_bountyIndex].bountyValue;\n\n        // Don't explicitly delete. Let the compiler clean things up.\n        if (bounties.length > 1) {\n            bounties[_bountyIndex] = bounties[bounties.length - 1];\n        }\n        bounties.length--;\n        bountyCount[msg.sender]--;\n\n        msg.sender.transfer(bounty);\n\n        BountyCancelled(_bountyIndex, msg.sender);\n    }\n\n\n    function getBountyCount()\n        public\n        view\n        returns (uint)\n    {\n        return bounties.length;\n    }\n\n\n    // Answer functions.\n    function cancelAnswer(uint _bountyIndex, uint _answerIndex)\n        public\n        isAnswerOwner(_bountyIndex, _answerIndex)\n        atStage(_bountyIndex, Stages.Opened)\n        whenNotPaused()\n    {\n        uint len = bounties[_bountyIndex].answers.length;\n\n        if (len > 1) {\n            bounties[_bountyIndex].answers[_answerIndex] =\n                bounties[_bountyIndex].answers[len - 1];\n            bounties[_bountyIndex].answerOwners[_answerIndex] =\n                bounties[_bountyIndex].answerOwners[len - 1];\n        }\n        bounties[_bountyIndex].answers.length--;\n        bounties[_bountyIndex].answerOwners.length--;\n\n        answerCount[msg.sender]--;\n        bounties[_bountyIndex].hasAnswered[msg.sender] = false;\n    }\n\n    function getAnswers(uint _bountyIndex)\n        public\n        view\n        returns (uint [])\n    {\n        return bounties[_bountyIndex].answers;\n    }\n\n    function getAnswerOwners(uint _bountyIndex)\n        public\n        view\n        returns (address [])\n    {\n        return bounties[_bountyIndex].answerOwners;\n    }\n\n    function getAnswerCount(uint _bountyIndex)\n        public\n        view\n        returns (uint)\n    {\n        return bounties[_bountyIndex].answers.length;\n    }\n\n    function withdrawInEmergency()\n        public\n        whenPaused()\n    {\n        uint balance = address(this).balance;\n        msg.sender.transfer(balance);\n\n        EmergencyWithdrawal(msg.sender, balance);\n    }\n\n\n    function uIntToStr(uint i)\n        internal\n        pure\n        returns (string)\n    {\n        if (i == 0) return \"0\";\n        uint j = i;\n        uint len;\n        while (j != 0){\n            len++;\n            j /= 10;\n        }\n        bytes memory bstr = new bytes(len);\n        uint k = len - 1;\n        while (i != 0){\n            bstr[k--] = byte(48 + i % 10);\n            i /= 10;\n        }\n        return string(bstr);\n    }\n\n    function () public payable { }\n\n    function getBalance() public view returns (uint) {\n        return this.balance;\n    }\n}\n",
  "sourcePath": "/home/richard/Projects/ethereum-projects/ethereum-se-bounty/contracts/SEBounty.sol",
  "compiler": {
    "name": "solc",
    "version": "0.4.24+commit.e67f0147.Emscripten.clang"
  },
  "schemaVersion": "2.0.0",
  "updatedAt": "2018-08-01T15:24:14.064Z"
}