{
  "contractName": "SEBounty",
  "abi": [
    {
      "constant": true,
      "inputs": [
        {
          "name": "",
          "type": "address"
        }
      ],
      "name": "answerCount",
      "outputs": [
        {
          "name": "",
          "type": "uint256"
        }
      ],
      "payable": false,
      "stateMutability": "view",
      "type": "function"
    },
    {
      "constant": false,
      "inputs": [],
      "name": "renounceOwnership",
      "outputs": [],
      "payable": false,
      "stateMutability": "nonpayable",
      "type": "function"
    },
    {
      "constant": true,
      "inputs": [
        {
          "name": "",
          "type": "address"
        }
      ],
      "name": "awardedTotal",
      "outputs": [
        {
          "name": "",
          "type": "uint256"
        }
      ],
      "payable": false,
      "stateMutability": "view",
      "type": "function"
    },
    {
      "constant": false,
      "inputs": [],
      "name": "destroy",
      "outputs": [],
      "payable": false,
      "stateMutability": "nonpayable",
      "type": "function"
    },
    {
      "constant": true,
      "inputs": [
        {
          "name": "",
          "type": "address"
        }
      ],
      "name": "acceptedCount",
      "outputs": [
        {
          "name": "",
          "type": "uint256"
        }
      ],
      "payable": false,
      "stateMutability": "view",
      "type": "function"
    },
    {
      "constant": true,
      "inputs": [],
      "name": "owner",
      "outputs": [
        {
          "name": "",
          "type": "address"
        }
      ],
      "payable": false,
      "stateMutability": "view",
      "type": "function"
    },
    {
      "constant": true,
      "inputs": [
        {
          "name": "",
          "type": "address"
        }
      ],
      "name": "wonTotal",
      "outputs": [
        {
          "name": "",
          "type": "uint256"
        }
      ],
      "payable": false,
      "stateMutability": "view",
      "type": "function"
    },
    {
      "constant": true,
      "inputs": [
        {
          "name": "",
          "type": "uint256"
        }
      ],
      "name": "bounties",
      "outputs": [
        {
          "name": "description",
          "type": "string"
        },
        {
          "name": "questionId",
          "type": "uint256"
        },
        {
          "name": "bountyValue",
          "type": "uint256"
        },
        {
          "name": "bountyOwner",
          "type": "address"
        },
        {
          "name": "stage",
          "type": "uint8"
        },
        {
          "name": "acceptedAnswer",
          "type": "uint256"
        }
      ],
      "payable": false,
      "stateMutability": "view",
      "type": "function"
    },
    {
      "constant": false,
      "inputs": [
        {
          "name": "_newOwner",
          "type": "address"
        }
      ],
      "name": "transferOwnership",
      "outputs": [],
      "payable": false,
      "stateMutability": "nonpayable",
      "type": "function"
    },
    {
      "constant": false,
      "inputs": [
        {
          "name": "_recipient",
          "type": "address"
        }
      ],
      "name": "destroyAndSend",
      "outputs": [],
      "payable": false,
      "stateMutability": "nonpayable",
      "type": "function"
    },
    {
      "constant": true,
      "inputs": [
        {
          "name": "",
          "type": "address"
        }
      ],
      "name": "bountyCount",
      "outputs": [
        {
          "name": "",
          "type": "uint256"
        }
      ],
      "payable": false,
      "stateMutability": "view",
      "type": "function"
    },
    {
      "inputs": [],
      "payable": false,
      "stateMutability": "nonpayable",
      "type": "constructor"
    },
    {
      "anonymous": false,
      "inputs": [
        {
          "indexed": false,
          "name": "bountyIndex",
          "type": "uint256"
        },
        {
          "indexed": false,
          "name": "bountyOwner",
          "type": "address"
        },
        {
          "indexed": false,
          "name": "questionId",
          "type": "uint256"
        }
      ],
      "name": "BountyOpened",
      "type": "event"
    },
    {
      "anonymous": false,
      "inputs": [
        {
          "indexed": false,
          "name": "bountyIndex",
          "type": "uint256"
        }
      ],
      "name": "BountyAwarded",
      "type": "event"
    },
    {
      "anonymous": false,
      "inputs": [
        {
          "indexed": false,
          "name": "bountyIndex",
          "type": "uint256"
        },
        {
          "indexed": false,
          "name": "answerOwner",
          "type": "address"
        }
      ],
      "name": "BountyClaimed",
      "type": "event"
    },
    {
      "anonymous": false,
      "inputs": [
        {
          "indexed": false,
          "name": "bountyIndex",
          "type": "uint256"
        },
        {
          "indexed": false,
          "name": "bountyOwner",
          "type": "address"
        }
      ],
      "name": "BountyCancelled",
      "type": "event"
    },
    {
      "anonymous": false,
      "inputs": [
        {
          "indexed": false,
          "name": "bountyIndex",
          "type": "uint256"
        },
        {
          "indexed": false,
          "name": "bountyOwner",
          "type": "address"
        }
      ],
      "name": "BountyWithdrawn",
      "type": "event"
    },
    {
      "anonymous": false,
      "inputs": [
        {
          "indexed": false,
          "name": "bountyIndex",
          "type": "uint256"
        },
        {
          "indexed": false,
          "name": "answerOwner",
          "type": "address"
        },
        {
          "indexed": false,
          "name": "answerId",
          "type": "uint256"
        }
      ],
      "name": "AnswerPosted",
      "type": "event"
    },
    {
      "anonymous": false,
      "inputs": [
        {
          "indexed": true,
          "name": "previousOwner",
          "type": "address"
        }
      ],
      "name": "OwnershipRenounced",
      "type": "event"
    },
    {
      "anonymous": false,
      "inputs": [
        {
          "indexed": true,
          "name": "previousOwner",
          "type": "address"
        },
        {
          "indexed": true,
          "name": "newOwner",
          "type": "address"
        }
      ],
      "name": "OwnershipTransferred",
      "type": "event"
    },
    {
      "constant": false,
      "inputs": [
        {
          "name": "_description",
          "type": "string"
        },
        {
          "name": "_questionId",
          "type": "uint256"
        }
      ],
      "name": "createBounty",
      "outputs": [],
      "payable": true,
      "stateMutability": "payable",
      "type": "function"
    },
    {
      "constant": false,
      "inputs": [
        {
          "name": "_bountyIndex",
          "type": "uint256"
        },
        {
          "name": "_description",
          "type": "string"
        }
      ],
      "name": "editBounty",
      "outputs": [],
      "payable": true,
      "stateMutability": "payable",
      "type": "function"
    },
    {
      "constant": false,
      "inputs": [
        {
          "name": "_bountyIndex",
          "type": "uint256"
        },
        {
          "name": "_answerIndex",
          "type": "uint256"
        }
      ],
      "name": "awardBounty",
      "outputs": [],
      "payable": false,
      "stateMutability": "nonpayable",
      "type": "function"
    },
    {
      "constant": false,
      "inputs": [
        {
          "name": "_bountyIndex",
          "type": "uint256"
        }
      ],
      "name": "claimBounty",
      "outputs": [],
      "payable": false,
      "stateMutability": "nonpayable",
      "type": "function"
    },
    {
      "constant": false,
      "inputs": [
        {
          "name": "_bountyIndex",
          "type": "uint256"
        }
      ],
      "name": "cancelBounty",
      "outputs": [],
      "payable": false,
      "stateMutability": "nonpayable",
      "type": "function"
    },
    {
      "constant": false,
      "inputs": [
        {
          "name": "_bountyIndex",
          "type": "uint256"
        }
      ],
      "name": "withdrawBounty",
      "outputs": [],
      "payable": false,
      "stateMutability": "nonpayable",
      "type": "function"
    },
    {
      "constant": true,
      "inputs": [],
      "name": "getBountyCount",
      "outputs": [
        {
          "name": "",
          "type": "uint256"
        }
      ],
      "payable": false,
      "stateMutability": "view",
      "type": "function"
    },
    {
      "constant": false,
      "inputs": [
        {
          "name": "_bountyIndex",
          "type": "uint256"
        },
        {
          "name": "_answerId",
          "type": "uint256"
        }
      ],
      "name": "postAnswer",
      "outputs": [],
      "payable": false,
      "stateMutability": "nonpayable",
      "type": "function"
    },
    {
      "constant": false,
      "inputs": [
        {
          "name": "_bountyIndex",
          "type": "uint256"
        },
        {
          "name": "_answerIndex",
          "type": "uint256"
        }
      ],
      "name": "cancelAnswer",
      "outputs": [],
      "payable": false,
      "stateMutability": "nonpayable",
      "type": "function"
    },
    {
      "constant": true,
      "inputs": [
        {
          "name": "_bountyIndex",
          "type": "uint256"
        }
      ],
      "name": "getAnswers",
      "outputs": [
        {
          "name": "",
          "type": "uint256[]"
        }
      ],
      "payable": false,
      "stateMutability": "view",
      "type": "function"
    },
    {
      "constant": true,
      "inputs": [
        {
          "name": "_bountyIndex",
          "type": "uint256"
        }
      ],
      "name": "getAnswerOwners",
      "outputs": [
        {
          "name": "",
          "type": "address[]"
        }
      ],
      "payable": false,
      "stateMutability": "view",
      "type": "function"
    },
    {
      "constant": true,
      "inputs": [
        {
          "name": "_bountyIndex",
          "type": "uint256"
        }
      ],
      "name": "getAnswerCount",
      "outputs": [
        {
          "name": "",
          "type": "uint256"
        }
      ],
      "payable": false,
      "stateMutability": "view",
      "type": "function"
    }
  ],
  "bytecode": "0x608060405234801561001057600080fd5b50336000806101000a81548173ffffffffffffffffffffffffffffffffffffffff021916908373ffffffffffffffffffffffffffffffffffffffff160217905550336000806101000a81548173ffffffffffffffffffffffffffffffffffffffff021916908373ffffffffffffffffffffffffffffffffffffffff160217905550612e31806100a06000396000f300608060405260043610610133576000357c0100000000000000000000000000000000000000000000000000000000900463ffffffff16806306641f7e146101385780630d12822e146101635780631e59e02a146101c9578063265981d61461024b5780633c842c13146102a257806344021ad7146102e3578063500ac8cc146103105780635601bbe1146103475780635a8e77a51461037e578063715018a6146103ab57806371a569e6146103c25780637b6d25df146103f957806383197ef0146104505780638d768f84146104675780638da5cb5b146104be578063a377ee2214610515578063b83a3bc114610597578063ce3df026146105fd578063dc2f874414610654578063e5e5dff114610757578063f2fde38b14610784578063f5074f41146107c7578063ff1fabc81461080a575b600080fd5b34801561014457600080fd5b5061014d610861565b6040518082815260200191505060405180910390f35b6101c760048036038101908080359060200190929190803590602001908201803590602001908080601f016020809104026020016040519081016040528093929190818152602001838380828437820191505050505050919291929050505061086e565b005b3480156101d557600080fd5b506101f460048036038101908080359060200190929190505050610aa1565b6040518080602001828103825283818151815260200191508051906020019060200280838360005b8381101561023757808201518184015260208101905061021c565b505050509050019250505060405180910390f35b34801561025757600080fd5b5061028c600480360381019080803573ffffffffffffffffffffffffffffffffffffffff169060200190929190505050610b19565b6040518082815260200191505060405180910390f35b3480156102ae57600080fd5b506102cd60048036038101908080359060200190929190505050610b31565b6040518082815260200191505060405180910390f35b3480156102ef57600080fd5b5061030e60048036038101908080359060200190929190505050610b5e565b005b34801561031c57600080fd5b506103456004803603810190808035906020019092919080359060200190929190505050610e8c565b005b34801561035357600080fd5b5061037c60048036038101908080359060200190929190803590602001909291905050506112a4565b005b34801561038a57600080fd5b506103a96004803603810190808035906020019092919050505061151d565b005b3480156103b757600080fd5b506103c06119cc565b005b3480156103ce57600080fd5b506103f76004803603810190808035906020019092919080359060200190929190505050611ace565b005b34801561040557600080fd5b5061043a600480360381019080803573ffffffffffffffffffffffffffffffffffffffff169060200190929190505050611ebf565b6040518082815260200191505060405180910390f35b34801561045c57600080fd5b50610465611ed7565b005b34801561047357600080fd5b506104a8600480360381019080803573ffffffffffffffffffffffffffffffffffffffff169060200190929190505050611f6c565b6040518082815260200191505060405180910390f35b3480156104ca57600080fd5b506104d3611f84565b604051808273ffffffffffffffffffffffffffffffffffffffff1673ffffffffffffffffffffffffffffffffffffffff16815260200191505060405180910390f35b34801561052157600080fd5b5061054060048036038101908080359060200190929190505050611fa9565b6040518080602001828103825283818151815260200191508051906020019060200280838360005b83811015610583578082015181840152602081019050610568565b505050509050019250505060405180910390f35b6105fb600480360381019080803590602001908201803590602001908080601f016020809104026020016040519081016040528093929190818152602001838380828437820191505050505050919291929080359060200190929190505050612057565b005b34801561060957600080fd5b5061063e600480360381019080803573ffffffffffffffffffffffffffffffffffffffff169060200190929190505050612306565b6040518082815260200191505060405180910390f35b34801561066057600080fd5b5061067f6004803603810190808035906020019092919050505061231e565b60405180806020018781526020018681526020018573ffffffffffffffffffffffffffffffffffffffff1673ffffffffffffffffffffffffffffffffffffffff1681526020018460048111156106d157fe5b60ff168152602001838152602001828103825288818151815260200191508051906020019080838360005b838110156107175780820151818401526020810190506106fc565b50505050905090810190601f1680156107445780820380516001836020036101000a031916815260200191505b5097505050505050505060405180910390f35b34801561076357600080fd5b506107826004803603810190808035906020019092919050505061242e565b005b34801561079057600080fd5b506107c5600480360381019080803573ffffffffffffffffffffffffffffffffffffffff1690602001909291905050506126f8565b005b3480156107d357600080fd5b50610808600480360381019080803573ffffffffffffffffffffffffffffffffffffffff16906020019092919050505061275f565b005b34801561081657600080fd5b5061084b600480360381019080803573ffffffffffffffffffffffffffffffffffffffff1690602001909291905050506127d3565b6040518082815260200191505060405180910390f35b6000600180549050905090565b813373ffffffffffffffffffffffffffffffffffffffff1660018281548110151561089557fe5b906000526020600020906007020160030160009054906101000a900473ffffffffffffffffffffffffffffffffffffffff1673ffffffffffffffffffffffffffffffffffffffff16141515610952576040517f08c379a000000000000000000000000000000000000000000000000000000000815260040180806020018281038252601a8152602001807f596f7520646f6e2774206f776e207468697320626f756e74792100000000000081525060200191505060405180910390fd5b82600080600481111561096157fe5b60018381548110151561097057fe5b906000526020600020906007020160030160149054906101000a900460ff16600481111561099a57fe5b141515610a35576040517f08c379a00000000000000000000000000000000000000000000000000000000081526004018080602001828103825260278152602001807f46756e6374696f6e2063616e6e6f742062652063616c6c65642061742074686981526020017f732074696d652e0000000000000000000000000000000000000000000000000081525060400191505060405180910390fd5b600034141515610a655734600186815481101515610a4f57fe5b9060005260206000209060070201600201819055505b83600186815481101515610a7557fe5b90600052602060002090600702016000019080519060200190610a999291906128e5565b505050505050565b6060600182815481101515610ab257fe5b9060005260206000209060070201600401805480602002602001604051908101604052809291908181526020018280548015610b0d57602002820191906000526020600020905b815481526020019060010190808311610af9575b50505050509050919050565b60046020528060005260406000206000915090505481565b6000600182815481101515610b4257fe5b9060005260206000209060070201600401805490509050919050565b6000816000600182815481101515610b7257fe5b906000526020600020906007020190503373ffffffffffffffffffffffffffffffffffffffff16816005018260060154815481101515610bae57fe5b9060005260206000200160009054906101000a900473ffffffffffffffffffffffffffffffffffffffff1673ffffffffffffffffffffffffffffffffffffffff16141515610c64576040517f08c379a000000000000000000000000000000000000000000000000000000000815260040180806020018281038252601a8152602001807f596f75206469646e27742077696e2074686520626f756e74792100000000000081525060200191505060405180910390fd5b836001806004811115610c7357fe5b600183815481101515610c8257fe5b906000526020600020906007020160030160149054906101000a900460ff166004811115610cac57fe5b141515610d47576040517f08c379a00000000000000000000000000000000000000000000000000000000081526004018080602001828103825260278152602001807f46756e6374696f6e2063616e6e6f742062652063616c6c65642061742074686981526020017f732074696d652e0000000000000000000000000000000000000000000000000081525060400191505060405180910390fd5b6002600187815481101515610d5857fe5b906000526020600020906007020160030160146101000a81548160ff02191690836004811115610d8457fe5b0217905550600186815481101515610d9857fe5b90600052602060002090600702016002015494506000600187815481101515610dbd57fe5b9060005260206000209060070201600201819055503373ffffffffffffffffffffffffffffffffffffffff166108fc869081150290604051600060405180830381858888f19350505050158015610e18573d6000803e3d6000fd5b507fbf59c0d059a57ebf273b4b1643599fc4b48cf5effdd82113a740ed64d262ec938633604051808381526020018273ffffffffffffffffffffffffffffffffffffffff1673ffffffffffffffffffffffffffffffffffffffff1681526020019250505060405180910390a1505050505050565b600082823373ffffffffffffffffffffffffffffffffffffffff16600183815481101515610eb657fe5b906000526020600020906007020160050182815481101515610ed457fe5b9060005260206000200160009054906101000a900473ffffffffffffffffffffffffffffffffffffffff1673ffffffffffffffffffffffffffffffffffffffff16141515610f8a576040517f08c379a000000000000000000000000000000000000000000000000000000000815260040180806020018281038252601a8152602001807f596f7520646f6e2774206f776e207468697320616e737765722100000000000081525060200191505060405180910390fd5b846000806004811115610f9957fe5b600183815481101515610fa857fe5b906000526020600020906007020160030160149054906101000a900460ff166004811115610fd257fe5b14151561106d576040517f08c379a00000000000000000000000000000000000000000000000000000000081526004018080602001828103825260278152602001807f46756e6374696f6e2063616e6e6f742062652063616c6c65642061742074686981526020017f732074696d652e0000000000000000000000000000000000000000000000000081525060400191505060405180910390fd5b60018781548110151561107c57fe5b906000526020600020906007020160040180549050945060018511156111e3576001878154811015156110ab57fe5b9060005260206000209060070201600401600186038154811015156110cc57fe5b90600052602060002001546001888154811015156110e657fe5b90600052602060002090600702016004018781548110151561110457fe5b906000526020600020018190555060018781548110151561112157fe5b90600052602060002090600702016005016001860381548110151561114257fe5b9060005260206000200160009054906101000a900473ffffffffffffffffffffffffffffffffffffffff1660018881548110151561117c57fe5b90600052602060002090600702016005018781548110151561119a57fe5b9060005260206000200160006101000a81548173ffffffffffffffffffffffffffffffffffffffff021916908373ffffffffffffffffffffffffffffffffffffffff1602179055505b6001878154811015156111f257fe5b90600052602060002090600702016004018054809190600190036112169190612965565b5060018781548110151561122657fe5b906000526020600020906007020160050180548091906001900361124a9190612991565b50600460003373ffffffffffffffffffffffffffffffffffffffff1673ffffffffffffffffffffffffffffffffffffffff168152602001908152602001600020600081548092919060019003919050555050505050505050565b8160008060048111156112b357fe5b6001838154811015156112c257fe5b906000526020600020906007020160030160149054906101000a900460ff1660048111156112ec57fe5b141515611387576040517f08c379a00000000000000000000000000000000000000000000000000000000081526004018080602001828103825260278152602001807f46756e6374696f6e2063616e6e6f742062652063616c6c65642061742074686981526020017f732074696d652e0000000000000000000000000000000000000000000000000081525060400191505060405180910390fd5b60018481548110151561139657fe5b90600052602060002090600702016004018390806001815401808255809150509060018203906000526020600020016000909192909190915055506001848154811015156113e057fe5b90600052602060002090600702016005013390806001815401808255809150509060018203906000526020600020016000909192909190916101000a81548173ffffffffffffffffffffffffffffffffffffffff021916908373ffffffffffffffffffffffffffffffffffffffff16021790555050600460003373ffffffffffffffffffffffffffffffffffffffff1673ffffffffffffffffffffffffffffffffffffffff168152602001908152602001600020600081548092919060010191905055507f9f11264fa3f8158956c16e654d1a0ea9cbfb86bc75a9262ed43c4b875d544fa3843385604051808481526020018373ffffffffffffffffffffffffffffffffffffffff1673ffffffffffffffffffffffffffffffffffffffff168152602001828152602001935050505060405180910390a150505050565b6000813373ffffffffffffffffffffffffffffffffffffffff1660018281548110151561154657fe5b906000526020600020906007020160030160009054906101000a900473ffffffffffffffffffffffffffffffffffffffff1673ffffffffffffffffffffffffffffffffffffffff16141515611603576040517f08c379a000000000000000000000000000000000000000000000000000000000815260040180806020018281038252601a8152602001807f596f7520646f6e2774206f776e207468697320626f756e74792100000000000081525060200191505060405180910390fd5b82600380600481111561161257fe5b60018381548110151561162157fe5b906000526020600020906007020160030160149054906101000a900460ff16600481111561164b57fe5b1415156116e6576040517f08c379a00000000000000000000000000000000000000000000000000000000081526004018080602001828103825260278152602001807f46756e6374696f6e2063616e6e6f742062652063616c6c65642061742074686981526020017f732074696d652e0000000000000000000000000000000000000000000000000081525060400191505060405180910390fd5b60046001868154811015156116f757fe5b906000526020600020906007020160030160146101000a81548160ff0219169083600481111561172357fe5b021790555060018581548110151561173757fe5b90600052602060002090600702016002015493506001808054905011156118ad5760018080805490500381548110151561176d57fe5b906000526020600020906007020160018681548110151561178a57fe5b9060005260206000209060070201600082018160000190805460018160011615610100020316600290046117bf9291906129bd565b5060018201548160010155600282015481600201556003820160009054906101000a900473ffffffffffffffffffffffffffffffffffffffff168160030160006101000a81548173ffffffffffffffffffffffffffffffffffffffff021916908373ffffffffffffffffffffffffffffffffffffffff1602179055506003820160149054906101000a900460ff168160030160146101000a81548160ff0219169083600481111561186c57fe5b02179055506004820181600401908054611887929190612a44565b50600582018160050190805461189e929190612a96565b50600682015481600601559050505b60018054809190600190036118c29190612ae8565b50600260003373ffffffffffffffffffffffffffffffffffffffff1673ffffffffffffffffffffffffffffffffffffffff16815260200190815260200160002060008154809291906001900391905055503373ffffffffffffffffffffffffffffffffffffffff166108fc859081150290604051600060405180830381858888f19350505050158015611959573d6000803e3d6000fd5b507fe0ee560939d01d137df63ad5710d4d454d2f771177fbfed12eb2328fd063a9aa8533604051808381526020018273ffffffffffffffffffffffffffffffffffffffff1673ffffffffffffffffffffffffffffffffffffffff1681526020019250505060405180910390a15050505050565b6000809054906101000a900473ffffffffffffffffffffffffffffffffffffffff1673ffffffffffffffffffffffffffffffffffffffff163373ffffffffffffffffffffffffffffffffffffffff16141515611a2757600080fd5b6000809054906101000a900473ffffffffffffffffffffffffffffffffffffffff1673ffffffffffffffffffffffffffffffffffffffff167ff8df31144d9c2f0f6b59d69b8b98abd5459d07f2742c4df920b25aae33c6482060405160405180910390a260008060006101000a81548173ffffffffffffffffffffffffffffffffffffffff021916908373ffffffffffffffffffffffffffffffffffffffff160217905550565b6000823373ffffffffffffffffffffffffffffffffffffffff16600182815481101515611af757fe5b906000526020600020906007020160030160009054906101000a900473ffffffffffffffffffffffffffffffffffffffff1673ffffffffffffffffffffffffffffffffffffffff16141515611bb4576040517f08c379a000000000000000000000000000000000000000000000000000000000815260040180806020018281038252601a8152602001807f596f7520646f6e2774206f776e207468697320626f756e74792100000000000081525060200191505060405180910390fd5b836000806004811115611bc357fe5b600183815481101515611bd257fe5b906000526020600020906007020160030160149054906101000a900460ff166004811115611bfc57fe5b141515611c97576040517f08c379a00000000000000000000000000000000000000000000000000000000081526004018080602001828103825260278152602001807f46756e6374696f6e2063616e6e6f742062652063616c6c65642061742074686981526020017f732074696d652e0000000000000000000000000000000000000000000000000081525060400191505060405180910390fd5b60018087815481101515611ca757fe5b906000526020600020906007020160030160146101000a81548160ff02191690836004811115611cd357fe5b021790555084600187815481101515611ce857fe5b906000526020600020906007020160060181905550600186815481101515611d0c57fe5b906000526020600020906007020160020154600360003373ffffffffffffffffffffffffffffffffffffffff1673ffffffffffffffffffffffffffffffffffffffff16815260200190815260200160002060008282540192505081905550600186815481101515611d7957fe5b906000526020600020906007020160050185815481101515611d9757fe5b9060005260206000200160009054906101000a900473ffffffffffffffffffffffffffffffffffffffff169350600186815481101515611dd357fe5b906000526020600020906007020160020154600660008673ffffffffffffffffffffffffffffffffffffffff1673ffffffffffffffffffffffffffffffffffffffff16815260200190815260200160002060008282540192505081905550600560008573ffffffffffffffffffffffffffffffffffffffff1673ffffffffffffffffffffffffffffffffffffffff168152602001908152602001600020600081548092919060010191905055507fe23c11e55758e802697563b6797f5a7fd5d977c37d714e97f9ee381c5cfc0973866040518082815260200191505060405180910390a1505050505050565b60036020528060005260406000206000915090505481565b6000809054906101000a900473ffffffffffffffffffffffffffffffffffffffff1673ffffffffffffffffffffffffffffffffffffffff163373ffffffffffffffffffffffffffffffffffffffff16141515611f3257600080fd5b6000809054906101000a900473ffffffffffffffffffffffffffffffffffffffff1673ffffffffffffffffffffffffffffffffffffffff16ff5b60056020528060005260406000206000915090505481565b6000809054906101000a900473ffffffffffffffffffffffffffffffffffffffff1681565b6060600182815481101515611fba57fe5b906000526020600020906007020160050180548060200260200160405190810160405280929190818152602001828054801561204b57602002820191906000526020600020905b8160009054906101000a900473ffffffffffffffffffffffffffffffffffffffff1673ffffffffffffffffffffffffffffffffffffffff1681526020019060010190808311612001575b50505050509050919050565b60003411151561206657600080fd5b6001610100604051908101604052808481526020018381526020013481526020013373ffffffffffffffffffffffffffffffffffffffff168152602001600060048111156120b057fe5b815260200160006040519080825280602002602001820160405280156120e55781602001602082028038833980820191505090505b508152602001600060405190808252806020026020018201604052801561211b5781602001602082028038833980820191505090505b508152602001600081525090806001815401808255809150509060018203906000526020600020906007020160009091929091909150600082015181600001908051906020019061216d929190612b1a565b50602082015181600101556040820151816002015560608201518160030160006101000a81548173ffffffffffffffffffffffffffffffffffffffff021916908373ffffffffffffffffffffffffffffffffffffffff16021790555060808201518160030160146101000a81548160ff021916908360048111156121ed57fe5b021790555060a082015181600401908051906020019061220e929190612b9a565b5060c082015181600501908051906020019061222b929190612be7565b5060e08201518160060155505050600260003373ffffffffffffffffffffffffffffffffffffffff1673ffffffffffffffffffffffffffffffffffffffff168152602001908152602001600020600081548092919060010191905055507f8f00e5a5943b910d221f64e9ee013988885da9127ec8be785a522c00f551729f60018080549050033383604051808481526020018373ffffffffffffffffffffffffffffffffffffffff1673ffffffffffffffffffffffffffffffffffffffff168152602001828152602001935050505060405180910390a15050565b60066020528060005260406000206000915090505481565b60018181548110151561232d57fe5b9060005260206000209060070201600091509050806000018054600181600116156101000203166002900480601f0160208091040260200160405190810160405280929190818152602001828054600181600116156101000203166002900480156123d95780601f106123ae576101008083540402835291602001916123d9565b820191906000526020600020905b8154815290600101906020018083116123bc57829003601f168201915b5050505050908060010154908060020154908060030160009054906101000a900473ffffffffffffffffffffffffffffffffffffffff16908060030160149054906101000a900460ff16908060060154905086565b803373ffffffffffffffffffffffffffffffffffffffff1660018281548110151561245557fe5b906000526020600020906007020160030160009054906101000a900473ffffffffffffffffffffffffffffffffffffffff1673ffffffffffffffffffffffffffffffffffffffff16141515612512576040517f08c379a000000000000000000000000000000000000000000000000000000000815260040180806020018281038252601a8152602001807f596f7520646f6e2774206f776e207468697320626f756e74792100000000000081525060200191505060405180910390fd5b81600080600481111561252157fe5b60018381548110151561253057fe5b906000526020600020906007020160030160149054906101000a900460ff16600481111561255a57fe5b1415156125f5576040517f08c379a00000000000000000000000000000000000000000000000000000000081526004018080602001828103825260278152602001807f46756e6374696f6e2063616e6e6f742062652063616c6c65642061742074686981526020017f732074696d652e0000000000000000000000000000000000000000000000000081525060400191505060405180910390fd5b600360018581548110151561260657fe5b906000526020600020906007020160030160146101000a81548160ff0219169083600481111561263257fe5b0217905550600260003373ffffffffffffffffffffffffffffffffffffffff1673ffffffffffffffffffffffffffffffffffffffff16815260200190815260200160002060008154809291906001900391905055507fbe34663bc2803ca9be398afdbd7e0bd537378360b743b76b170e3421fbe384508433604051808381526020018273ffffffffffffffffffffffffffffffffffffffff1673ffffffffffffffffffffffffffffffffffffffff1681526020019250505060405180910390a150505050565b6000809054906101000a900473ffffffffffffffffffffffffffffffffffffffff1673ffffffffffffffffffffffffffffffffffffffff163373ffffffffffffffffffffffffffffffffffffffff1614151561275357600080fd5b61275c816127eb565b50565b6000809054906101000a900473ffffffffffffffffffffffffffffffffffffffff1673ffffffffffffffffffffffffffffffffffffffff163373ffffffffffffffffffffffffffffffffffffffff161415156127ba57600080fd5b8073ffffffffffffffffffffffffffffffffffffffff16ff5b60026020528060005260406000206000915090505481565b600073ffffffffffffffffffffffffffffffffffffffff168173ffffffffffffffffffffffffffffffffffffffff161415151561282757600080fd5b8073ffffffffffffffffffffffffffffffffffffffff166000809054906101000a900473ffffffffffffffffffffffffffffffffffffffff1673ffffffffffffffffffffffffffffffffffffffff167f8be0079c531659141344cd1fd0a4f28419497f9722a3daafe3b4186f6b6457e060405160405180910390a3806000806101000a81548173ffffffffffffffffffffffffffffffffffffffff021916908373ffffffffffffffffffffffffffffffffffffffff16021790555050565b828054600181600116156101000203166002900490600052602060002090601f016020900481019282601f1061292657805160ff1916838001178555612954565b82800160010185558215612954579182015b82811115612953578251825591602001919060010190612938565b5b5090506129619190612c71565b5090565b81548183558181111561298c5781836000526020600020918201910161298b9190612c71565b5b505050565b8154818355818111156129b8578183600052602060002091820191016129b79190612c71565b5b505050565b828054600181600116156101000203166002900490600052602060002090601f016020900481019282601f106129f65780548555612a33565b82800160010185558215612a3357600052602060002091601f016020900482015b82811115612a32578254825591600101919060010190612a17565b5b509050612a409190612c71565b5090565b828054828255906000526020600020908101928215612a855760005260206000209182015b82811115612a84578254825591600101919060010190612a69565b5b509050612a929190612c71565b5090565b828054828255906000526020600020908101928215612ad75760005260206000209182015b82811115612ad6578254825591600101919060010190612abb565b5b509050612ae49190612c96565b5090565b815481835581811115612b1557600702816007028360005260206000209182019101612b149190612cd9565b5b505050565b828054600181600116156101000203166002900490600052602060002090601f016020900481019282601f10612b5b57805160ff1916838001178555612b89565b82800160010185558215612b89579182015b82811115612b88578251825591602001919060010190612b6d565b5b509050612b969190612c71565b5090565b828054828255906000526020600020908101928215612bd6579160200282015b82811115612bd5578251825591602001919060010190612bba565b5b509050612be39190612c71565b5090565b828054828255906000526020600020908101928215612c60579160200282015b82811115612c5f5782518260006101000a81548173ffffffffffffffffffffffffffffffffffffffff021916908373ffffffffffffffffffffffffffffffffffffffff16021790555091602001919060010190612c07565b5b509050612c6d9190612c96565b5090565b612c9391905b80821115612c8f576000816000905550600101612c77565b5090565b90565b612cd691905b80821115612cd257600081816101000a81549073ffffffffffffffffffffffffffffffffffffffff021916905550600101612c9c565b5090565b90565b612d7891905b80821115612d745760008082016000612cf89190612d7b565b600182016000905560028201600090556003820160006101000a81549073ffffffffffffffffffffffffffffffffffffffff02191690556003820160146101000a81549060ff0219169055600482016000612d539190612dc3565b600582016000612d639190612de4565b600682016000905550600701612cdf565b5090565b90565b50805460018160011615610100020316600290046000825580601f10612da15750612dc0565b601f016020900490600052602060002090810190612dbf9190612c71565b5b50565b5080546000825590600052602060002090810190612de19190612c71565b50565b5080546000825590600052602060002090810190612e029190612c71565b505600a165627a7a723058208cfc5b505d6aa48be3a0b729e05a571bf4d4dead78fecae442398ed0c09aa11f0029",
  "source": "pragma solidity ^0.4.24;\n\nimport 'openzeppelin-solidity/contracts/ownership/Ownable.sol';\nimport 'openzeppelin-solidity/contracts/lifecycle/Destructible.sol';\nimport 'openzeppelin-solidity/contracts/math/SafeMath.sol';\n\ncontract SEBounty is Destructible {\n    using SafeMath for uint256;\n\n    event BountyOpened(uint bountyIndex, address bountyOwner, uint questionId);\n    event BountyAwarded(uint bountyIndex);\n    event BountyClaimed(uint bountyIndex, address answerOwner);\n    event BountyCancelled(uint bountyIndex, address bountyOwner);\n    event BountyWithdrawn(uint bountyIndex, address bountyOwner);\n    event AnswerPosted(uint bountyIndex, address answerOwner, uint answerId);\n\n    enum Stages {\n        Opened,\n        Awarded,\n        Claimed,\n        Cancelled,\n        Withdrawn\n    }\n\n    struct Bounty {\n        string description;\n        uint questionId;\n        uint bountyValue;\n        address bountyOwner;\n        Stages stage;\n        uint[] answers;\n        address[] answerOwners;\n        uint acceptedAnswer;\n    }\n\n    Bounty[] public bounties;\n    mapping (address => uint256) public bountyCount;\n    mapping (address => uint256) public awardedTotal;\n\n    mapping (address => uint256) public answerCount;\n    mapping (address => uint256) public acceptedCount;\n    mapping (address => uint256) public wonTotal;\n\n\n    modifier isBountyOwner(uint _bountyIndex) {\n        require(\n            bounties[_bountyIndex].bountyOwner == msg.sender,\n            \"You don't own this bounty!\"\n        );\n        _;\n    }\n\n    modifier isAnswerOwner(uint _bountyIndex, uint _answerIndex) {\n        require(\n            bounties[_bountyIndex].answerOwners[_answerIndex] == msg.sender,\n            \"You don't own this answer!\"\n        );\n        _;\n    }\n\n    modifier isAcceptedAnswerOwner(uint _bountyIndex) {\n        Bounty storage bountyRef = bounties[_bountyIndex];\n        require(\n            bountyRef.answerOwners[bountyRef.acceptedAnswer] == msg.sender,\n            \"You didn't win the bounty!\"\n        );\n        _;\n    }\n\n    modifier atStage(uint _bountyIndex, Stages _stage) {\n        require(\n            bounties[_bountyIndex].stage == _stage,\n            \"Function cannot be called at this time.\"\n        );\n        _;\n    }\n\n    constructor() public {\n        owner = msg.sender;\n    }\n\n    // Bounty functions.\n    function createBounty(\n        string _description,\n        uint _questionId)\n        public\n        payable\n    {\n        // They must send the amount of ETH with their creation request.\n        // This must be greater than nothing...\n        require(msg.value > 0);\n\n        // Create the bounty and add it to the public array of bounties.\n        bounties.push(Bounty({\n            description: _description,\n            questionId: _questionId,\n            bountyValue: msg.value,\n            bountyOwner: msg.sender,\n            stage: Stages.Opened,\n            answers: new uint[](0),\n            answerOwners: new address[](0),\n            acceptedAnswer: 0\n        }));\n\n        bountyCount[msg.sender]++;\n\n        emit BountyOpened(bounties.length - 1, msg.sender, _questionId);\n    }\n\n    function editBounty(\n        uint _bountyIndex,\n        string _description)\n        public\n        payable\n        isBountyOwner(_bountyIndex)\n        atStage(_bountyIndex, Stages.Opened)\n    {\n        if (msg.value != 0) {\n            bounties[_bountyIndex].bountyValue = msg.value;\n        }\n\n        bounties[_bountyIndex].description = _description;\n    }\n\n\n    function awardBounty(uint _bountyIndex, uint _answerIndex)\n        public\n        isBountyOwner(_bountyIndex)\n        atStage(_bountyIndex, Stages.Opened)\n    {\n        bounties[_bountyIndex].stage = Stages.Awarded;\n        bounties[_bountyIndex].acceptedAnswer = _answerIndex;\n\n        awardedTotal[msg.sender] += bounties[_bountyIndex].bountyValue;\n\n        address winner = bounties[_bountyIndex].answerOwners[_answerIndex];\n        wonTotal[winner] += bounties[_bountyIndex].bountyValue;\n        acceptedCount[winner]++;\n\n        emit BountyAwarded(_bountyIndex);\n    }\n\n\n    function claimBounty(uint _bountyIndex)\n        public\n        isAcceptedAnswerOwner(_bountyIndex)\n        atStage(_bountyIndex, Stages.Awarded)\n    {\n        // Use the state machine to protect against reentrancy.\n        bounties[_bountyIndex].stage = Stages.Claimed;\n        uint bounty = bounties[_bountyIndex].bountyValue;\n        bounties[_bountyIndex].bountyValue = 0;\n        msg.sender.transfer(bounty);\n\n        emit BountyClaimed(_bountyIndex, msg.sender);\n    }\n\n\n    function cancelBounty(uint _bountyIndex)\n        public\n        isBountyOwner(_bountyIndex)\n        atStage(_bountyIndex, Stages.Opened)\n    {\n        bounties[_bountyIndex].stage = Stages.Cancelled;\n\n        bountyCount[msg.sender]--;\n\n        emit BountyCancelled(_bountyIndex, msg.sender);\n    }\n\n\n    function withdrawBounty(uint _bountyIndex)\n        public\n        isBountyOwner(_bountyIndex)\n        atStage(_bountyIndex, Stages.Cancelled)\n    {\n        // Use the state machine to protect against reentrancy.\n        bounties[_bountyIndex].stage = Stages.Withdrawn;\n        uint bounty = bounties[_bountyIndex].bountyValue;\n\n        // Don't explicitly delete. Let the compiler clean things up.\n        if (bounties.length > 1) {\n            bounties[_bountyIndex] = bounties[bounties.length - 1];\n        }\n        bounties.length--;\n\n        bountyCount[msg.sender]--;\n\n        msg.sender.transfer(bounty);\n\n        emit BountyWithdrawn(_bountyIndex, msg.sender);\n    }\n\n    function getBountyCount()\n        public\n        view\n        returns (uint)\n    {\n        return bounties.length;\n    }\n\n\n    // Answer functions.\n    function postAnswer(uint _bountyIndex, uint _answerId)\n        public\n        atStage(_bountyIndex, Stages.Opened)\n    {\n        bounties[_bountyIndex].answers.push(_answerId);\n        bounties[_bountyIndex].answerOwners.push(msg.sender);\n\n        answerCount[msg.sender]++;\n\n        emit AnswerPosted(_bountyIndex, msg.sender, _answerId);\n    }\n\n    function cancelAnswer(uint _bountyIndex, uint _answerIndex)\n        public\n        isAnswerOwner(_bountyIndex, _answerIndex)\n        atStage(_bountyIndex, Stages.Opened)\n    {\n        uint len = bounties[_bountyIndex].answers.length;\n\n        if (len > 1) {\n            bounties[_bountyIndex].answers[_answerIndex] =\n                bounties[_bountyIndex].answers[len - 1];\n            bounties[_bountyIndex].answerOwners[_answerIndex] =\n                bounties[_bountyIndex].answerOwners[len - 1];\n        }\n        bounties[_bountyIndex].answers.length--;\n        bounties[_bountyIndex].answerOwners.length--;\n\n        answerCount[msg.sender]--;\n    }\n\n    function getAnswers(uint _bountyIndex)\n        public\n        view\n        returns (uint [])\n    {\n        return bounties[_bountyIndex].answers;\n    }\n\n    function getAnswerOwners(uint _bountyIndex)\n        public\n        view\n        returns (address [])\n    {\n        return bounties[_bountyIndex].answerOwners;\n    }\n\n    function getAnswerCount(uint _bountyIndex)\n        public\n        view\n        returns (uint)\n    {\n        return bounties[_bountyIndex].answers.length;\n    }\n}\n",
  "sourcePath": "/home/richard/Projects/ethereum-projects/ethereum-se-bounty/contracts/SEBounty.sol",
  "compiler": {
    "name": "solc",
    "version": "0.4.24+commit.e67f0147.Emscripten.clang"
  },
  "schemaVersion": "2.0.0",
  "updatedAt": "2018-07-23T12:13:06.760Z"
}