{
  "contractName": "SEBounty",
  "abi": [
    {
      "constant": true,
      "inputs": [
        {
          "name": "",
          "type": "address"
        }
      ],
      "name": "answerCount",
      "outputs": [
        {
          "name": "",
          "type": "uint256"
        }
      ],
      "payable": false,
      "stateMutability": "view",
      "type": "function"
    },
    {
      "constant": false,
      "inputs": [],
      "name": "unpause",
      "outputs": [],
      "payable": false,
      "stateMutability": "nonpayable",
      "type": "function"
    },
    {
      "constant": true,
      "inputs": [],
      "name": "paused",
      "outputs": [
        {
          "name": "",
          "type": "bool"
        }
      ],
      "payable": false,
      "stateMutability": "view",
      "type": "function"
    },
    {
      "constant": false,
      "inputs": [],
      "name": "renounceOwnership",
      "outputs": [],
      "payable": false,
      "stateMutability": "nonpayable",
      "type": "function"
    },
    {
      "constant": true,
      "inputs": [
        {
          "name": "",
          "type": "address"
        }
      ],
      "name": "awardedTotal",
      "outputs": [
        {
          "name": "",
          "type": "uint256"
        }
      ],
      "payable": false,
      "stateMutability": "view",
      "type": "function"
    },
    {
      "constant": false,
      "inputs": [],
      "name": "destroy",
      "outputs": [],
      "payable": false,
      "stateMutability": "nonpayable",
      "type": "function"
    },
    {
      "constant": false,
      "inputs": [],
      "name": "pause",
      "outputs": [],
      "payable": false,
      "stateMutability": "nonpayable",
      "type": "function"
    },
    {
      "constant": true,
      "inputs": [
        {
          "name": "",
          "type": "address"
        }
      ],
      "name": "acceptedCount",
      "outputs": [
        {
          "name": "",
          "type": "uint256"
        }
      ],
      "payable": false,
      "stateMutability": "view",
      "type": "function"
    },
    {
      "constant": true,
      "inputs": [],
      "name": "owner",
      "outputs": [
        {
          "name": "",
          "type": "address"
        }
      ],
      "payable": false,
      "stateMutability": "view",
      "type": "function"
    },
    {
      "constant": true,
      "inputs": [
        {
          "name": "",
          "type": "address"
        }
      ],
      "name": "wonTotal",
      "outputs": [
        {
          "name": "",
          "type": "uint256"
        }
      ],
      "payable": false,
      "stateMutability": "view",
      "type": "function"
    },
    {
      "constant": true,
      "inputs": [
        {
          "name": "",
          "type": "uint256"
        }
      ],
      "name": "bounties",
      "outputs": [
        {
          "name": "description",
          "type": "string"
        },
        {
          "name": "questionId",
          "type": "uint256"
        },
        {
          "name": "bountyValue",
          "type": "uint256"
        },
        {
          "name": "bountyOwner",
          "type": "address"
        },
        {
          "name": "stage",
          "type": "uint8"
        },
        {
          "name": "acceptedAnswer",
          "type": "uint256"
        },
        {
          "name": "timePosted",
          "type": "uint256"
        }
      ],
      "payable": false,
      "stateMutability": "view",
      "type": "function"
    },
    {
      "constant": false,
      "inputs": [
        {
          "name": "_newOwner",
          "type": "address"
        }
      ],
      "name": "transferOwnership",
      "outputs": [],
      "payable": false,
      "stateMutability": "nonpayable",
      "type": "function"
    },
    {
      "constant": false,
      "inputs": [
        {
          "name": "_recipient",
          "type": "address"
        }
      ],
      "name": "destroyAndSend",
      "outputs": [],
      "payable": false,
      "stateMutability": "nonpayable",
      "type": "function"
    },
    {
      "constant": true,
      "inputs": [
        {
          "name": "",
          "type": "address"
        }
      ],
      "name": "bountyCount",
      "outputs": [
        {
          "name": "",
          "type": "uint256"
        }
      ],
      "payable": false,
      "stateMutability": "view",
      "type": "function"
    },
    {
      "inputs": [],
      "payable": false,
      "stateMutability": "nonpayable",
      "type": "constructor"
    },
    {
      "payable": true,
      "stateMutability": "payable",
      "type": "fallback"
    },
    {
      "anonymous": false,
      "inputs": [
        {
          "indexed": false,
          "name": "bountyIndex",
          "type": "uint256"
        },
        {
          "indexed": false,
          "name": "bountyOwner",
          "type": "address"
        },
        {
          "indexed": false,
          "name": "questionId",
          "type": "uint256"
        }
      ],
      "name": "BountyOpened",
      "type": "event"
    },
    {
      "anonymous": false,
      "inputs": [
        {
          "indexed": false,
          "name": "bountyIndex",
          "type": "uint256"
        }
      ],
      "name": "BountyAwarded",
      "type": "event"
    },
    {
      "anonymous": false,
      "inputs": [
        {
          "indexed": false,
          "name": "bountyIndex",
          "type": "uint256"
        },
        {
          "indexed": false,
          "name": "answerOwner",
          "type": "address"
        }
      ],
      "name": "BountyClaimed",
      "type": "event"
    },
    {
      "anonymous": false,
      "inputs": [
        {
          "indexed": false,
          "name": "bountyIndex",
          "type": "uint256"
        },
        {
          "indexed": false,
          "name": "bountyOwner",
          "type": "address"
        }
      ],
      "name": "BountyCancelled",
      "type": "event"
    },
    {
      "anonymous": false,
      "inputs": [
        {
          "indexed": false,
          "name": "bountyIndex",
          "type": "uint256"
        },
        {
          "indexed": false,
          "name": "answerOwner",
          "type": "address"
        },
        {
          "indexed": false,
          "name": "answerId",
          "type": "uint256"
        }
      ],
      "name": "AnswerPosted",
      "type": "event"
    },
    {
      "anonymous": false,
      "inputs": [
        {
          "indexed": false,
          "name": "withdrawalAddress",
          "type": "address"
        },
        {
          "indexed": false,
          "name": "balance",
          "type": "uint256"
        }
      ],
      "name": "EmergencyWithdrawal",
      "type": "event"
    },
    {
      "anonymous": false,
      "inputs": [
        {
          "indexed": false,
          "name": "description",
          "type": "string"
        },
        {
          "indexed": false,
          "name": "id",
          "type": "bytes32"
        },
        {
          "indexed": false,
          "name": "caller",
          "type": "address"
        }
      ],
      "name": "newOraclizeQuery",
      "type": "event"
    },
    {
      "anonymous": false,
      "inputs": [
        {
          "indexed": false,
          "name": "caller",
          "type": "address"
        }
      ],
      "name": "OraclizeQueryFail",
      "type": "event"
    },
    {
      "anonymous": false,
      "inputs": [
        {
          "indexed": false,
          "name": "caller",
          "type": "address"
        }
      ],
      "name": "OraclizeQuerySuccess",
      "type": "event"
    },
    {
      "anonymous": false,
      "inputs": [],
      "name": "Pause",
      "type": "event"
    },
    {
      "anonymous": false,
      "inputs": [],
      "name": "Unpause",
      "type": "event"
    },
    {
      "anonymous": false,
      "inputs": [
        {
          "indexed": true,
          "name": "previousOwner",
          "type": "address"
        }
      ],
      "name": "OwnershipRenounced",
      "type": "event"
    },
    {
      "anonymous": false,
      "inputs": [
        {
          "indexed": true,
          "name": "previousOwner",
          "type": "address"
        },
        {
          "indexed": true,
          "name": "newOwner",
          "type": "address"
        }
      ],
      "name": "OwnershipTransferred",
      "type": "event"
    },
    {
      "constant": false,
      "inputs": [
        {
          "name": "myid",
          "type": "bytes32"
        },
        {
          "name": "result",
          "type": "string"
        }
      ],
      "name": "__callback",
      "outputs": [],
      "payable": false,
      "stateMutability": "nonpayable",
      "type": "function"
    },
    {
      "constant": false,
      "inputs": [
        {
          "name": "myid",
          "type": "bytes32"
        },
        {
          "name": "result",
          "type": "string"
        },
        {
          "name": "proof",
          "type": "bytes"
        }
      ],
      "name": "__callback",
      "outputs": [],
      "payable": false,
      "stateMutability": "nonpayable",
      "type": "function"
    },
    {
      "constant": false,
      "inputs": [
        {
          "name": "_description",
          "type": "string"
        },
        {
          "name": "_questionId",
          "type": "uint256"
        }
      ],
      "name": "postBounty",
      "outputs": [],
      "payable": true,
      "stateMutability": "payable",
      "type": "function"
    },
    {
      "constant": false,
      "inputs": [
        {
          "name": "_bountyIndex",
          "type": "uint256"
        },
        {
          "name": "_answerId",
          "type": "uint256"
        }
      ],
      "name": "postAnswer",
      "outputs": [],
      "payable": false,
      "stateMutability": "nonpayable",
      "type": "function"
    },
    {
      "constant": false,
      "inputs": [
        {
          "name": "_bountyIndex",
          "type": "uint256"
        },
        {
          "name": "_answerIndex",
          "type": "uint256"
        }
      ],
      "name": "awardBounty",
      "outputs": [],
      "payable": false,
      "stateMutability": "nonpayable",
      "type": "function"
    },
    {
      "constant": false,
      "inputs": [
        {
          "name": "_bountyIndex",
          "type": "uint256"
        }
      ],
      "name": "claimBounty",
      "outputs": [],
      "payable": false,
      "stateMutability": "nonpayable",
      "type": "function"
    },
    {
      "constant": false,
      "inputs": [
        {
          "name": "_bountyIndex",
          "type": "uint256"
        }
      ],
      "name": "cancelBounty",
      "outputs": [],
      "payable": false,
      "stateMutability": "nonpayable",
      "type": "function"
    },
    {
      "constant": false,
      "inputs": [
        {
          "name": "_bountyIndex",
          "type": "uint256"
        },
        {
          "name": "_answerIndex",
          "type": "uint256"
        }
      ],
      "name": "cancelAnswer",
      "outputs": [],
      "payable": false,
      "stateMutability": "nonpayable",
      "type": "function"
    },
    {
      "constant": true,
      "inputs": [],
      "name": "getBountyCount",
      "outputs": [
        {
          "name": "",
          "type": "uint256"
        }
      ],
      "payable": false,
      "stateMutability": "view",
      "type": "function"
    },
    {
      "constant": true,
      "inputs": [
        {
          "name": "_bountyIndex",
          "type": "uint256"
        }
      ],
      "name": "getAnswers",
      "outputs": [
        {
          "name": "",
          "type": "uint256[]"
        }
      ],
      "payable": false,
      "stateMutability": "view",
      "type": "function"
    },
    {
      "constant": true,
      "inputs": [
        {
          "name": "_bountyIndex",
          "type": "uint256"
        }
      ],
      "name": "getAnswerOwners",
      "outputs": [
        {
          "name": "",
          "type": "address[]"
        }
      ],
      "payable": false,
      "stateMutability": "view",
      "type": "function"
    },
    {
      "constant": true,
      "inputs": [
        {
          "name": "_bountyIndex",
          "type": "uint256"
        }
      ],
      "name": "getAnswerCount",
      "outputs": [
        {
          "name": "",
          "type": "uint256"
        }
      ],
      "payable": false,
      "stateMutability": "view",
      "type": "function"
    },
    {
      "constant": true,
      "inputs": [],
      "name": "getBalance",
      "outputs": [
        {
          "name": "",
          "type": "uint256"
        }
      ],
      "payable": false,
      "stateMutability": "view",
      "type": "function"
    },
    {
      "constant": false,
      "inputs": [],
      "name": "withdrawInEmergency",
      "outputs": [],
      "payable": false,
      "stateMutability": "nonpayable",
      "type": "function"
    }
  ],
  "bytecode": "0x608060405260008060146101000a81548160ff0219169083151502179055506623a73beca4b800600c5534801561003557600080fd5b50336000806101000a81548173ffffffffffffffffffffffffffffffffffffffff021916908373ffffffffffffffffffffffffffffffffffffffff160217905550336000806101000a81548173ffffffffffffffffffffffffffffffffffffffff021916908373ffffffffffffffffffffffffffffffffffffffff160217905550614777806100c56000396000f30060806040526004361061016a576000357c0100000000000000000000000000000000000000000000000000000000900463ffffffff16806306641f7e1461016c57806312065fe0146101975780631e59e02a146101c2578063265981d61461024457806327dc297e1461029b57806338bbfa50146103125780633c842c13146103cf5780633f4ba83a1461041057806344021ad714610427578063500ac8cc146104545780635601bbe11461048b5780635c975abb146104c2578063715018a6146104f157806371a569e6146105085780637b6d25df1461053f57806383197ef0146105965780638456cb59146105ad5780638d768f84146105c45780638da5cb5b1461061b578063a377ee2214610672578063c4c0698d146106f4578063ce3df0261461070b578063dc2f874414610762578063e5e5dff11461086c578063f18f761b14610899578063f2fde38b146108ff578063f5074f4114610942578063ff1fabc814610985575b005b34801561017857600080fd5b506101816109dc565b6040518082815260200191505060405180910390f35b3480156101a357600080fd5b506101ac6109e9565b6040518082815260200191505060405180910390f35b3480156101ce57600080fd5b506101ed60048036038101908080359060200190929190505050610a08565b6040518080602001828103825283818151815260200191508051906020019060200280838360005b83811015610230578082015181840152602081019050610215565b505050509050019250505060405180910390f35b34801561025057600080fd5b50610285600480360381019080803573ffffffffffffffffffffffffffffffffffffffff169060200190929190505050610a80565b6040518082815260200191505060405180910390f35b3480156102a757600080fd5b506103106004803603810190808035600019169060200190929190803590602001908201803590602001908080601f0160208091040260200160405190810160405280939291908181526020018383808284378201915050505050509192919290505050610a98565b005b34801561031e57600080fd5b506103cd6004803603810190808035600019169060200190929190803590602001908201803590602001908080601f0160208091040260200160405190810160405280939291908181526020018383808284378201915050505050509192919290803590602001908201803590602001908080601f0160208091040260200160405190810160405280939291908181526020018383808284378201915050505050509192919290505050611046565b005b3480156103db57600080fd5b506103fa6004803603810190808035906020019092919050505061104b565b6040518082815260200191505060405180910390f35b34801561041c57600080fd5b50610425611078565b005b34801561043357600080fd5b5061045260048036038101908080359060200190929190505050611136565b005b34801561046057600080fd5b506104896004803603810190808035906020019092919080359060200190929190505050611388565b005b34801561049757600080fd5b506104c0600480360381019080803590602001909291908035906020019092919050505061167b565b005b3480156104ce57600080fd5b506104d7611920565b604051808215151515815260200191505060405180910390f35b3480156104fd57600080fd5b50610506611933565b005b34801561051457600080fd5b5061053d6004803603810190808035906020019092919080359060200190929190505050611a35565b005b34801561054b57600080fd5b50610580600480360381019080803573ffffffffffffffffffffffffffffffffffffffff169060200190929190505050611ddb565b6040518082815260200191505060405180910390f35b3480156105a257600080fd5b506105ab611df3565b005b3480156105b957600080fd5b506105c2611e88565b005b3480156105d057600080fd5b50610605600480360381019080803573ffffffffffffffffffffffffffffffffffffffff169060200190929190505050611f48565b6040518082815260200191505060405180910390f35b34801561062757600080fd5b50610630611f60565b604051808273ffffffffffffffffffffffffffffffffffffffff1673ffffffffffffffffffffffffffffffffffffffff16815260200191505060405180910390f35b34801561067e57600080fd5b5061069d60048036038101908080359060200190929190505050611f85565b6040518080602001828103825283818151815260200191508051906020019060200280838360005b838110156106e05780820151818401526020810190506106c5565b505050509050019250505060405180910390f35b34801561070057600080fd5b50610709612033565b005b34801561071757600080fd5b5061074c600480360381019080803573ffffffffffffffffffffffffffffffffffffffff16906020019092919050505061211e565b6040518082815260200191505060405180910390f35b34801561076e57600080fd5b5061078d60048036038101908080359060200190929190505050612136565b60405180806020018881526020018781526020018673ffffffffffffffffffffffffffffffffffffffff1673ffffffffffffffffffffffffffffffffffffffff1681526020018560038111156107df57fe5b60ff168152602001848152602001838152602001828103825289818151815260200191508051906020019080838360005b8381101561082b578082015181840152602081019050610810565b50505050905090810190601f1680156108585780820380516001836020036101000a031916815260200191505b509850505050505050505060405180910390f35b34801561087857600080fd5b506108976004803603810190808035906020019092919050505061224c565b005b6108fd600480360381019080803590602001908201803590602001908080601f01602080910402602001604051908101604052809392919081815260200183838082843782019150505050505091929192908035906020019092919050505061262c565b005b34801561090b57600080fd5b50610940600480360381019080803573ffffffffffffffffffffffffffffffffffffffff16906020019092919050505061291e565b005b34801561094e57600080fd5b50610983600480360381019080803573ffffffffffffffffffffffffffffffffffffffff169060200190929190505050612985565b005b34801561099157600080fd5b506109c6600480360381019080803573ffffffffffffffffffffffffffffffffffffffff1690602001909291905050506129f9565b6040518082815260200191505060405180910390f35b6000600680549050905090565b60003073ffffffffffffffffffffffffffffffffffffffff1631905090565b6060600682815481101515610a1957fe5b9060005260206000209060090201600401805480602002602001604051908101604052809291908181526020018280548015610a7457602002820191906000526020600020905b815481526020019060010190808311610a60575b50505050509050919050565b60096020528060005260406000206000915090505481565b6000610aa26141b5565b610aaa612a11565b73ffffffffffffffffffffffffffffffffffffffff163373ffffffffffffffffffffffffffffffffffffffff16141515610ae357600080fd5b600d600085600019166000191681526020019081526020016000209150600083511480610b1c57508160010154610b1984612d73565b14155b15610c22577fd8ac9e1950bdb2fdfa6deeae4ec98fdba24740c3cc7a5705f867d0f6e7346a608260030160009054906101000a900473ffffffffffffffffffffffffffffffffffffffff16604051808273ffffffffffffffffffffffffffffffffffffffff1673ffffffffffffffffffffffffffffffffffffffff16815260200191505060405180910390a1600d6000856000191660001916815260200190815260200160002060008082016000610bd49190614223565b600182016000905560028201600090556003820160006101000a81549073ffffffffffffffffffffffffffffffffffffffff0219169055600482016000905560058201600090555050600080fd5b61012060405190810160405280836000018054600181600116156101000203166002900480601f016020809104026020016040519081016040528092919081815260200182805460018160011615610100020316600290048015610cc75780601f10610c9c57610100808354040283529160200191610cc7565b820191906000526020600020905b815481529060010190602001808311610caa57829003601f168201915b5050505050815260200183600101548152602001836002015481526020018360030160009054906101000a900473ffffffffffffffffffffffffffffffffffffffff1673ffffffffffffffffffffffffffffffffffffffff16815260200160006003811115610d3257fe5b81526020016000604051908082528060200260200182016040528015610d675781602001602082028038833980820191505090505b5081526020016000604051908082528060200260200182016040528015610d9d5781602001602082028038833980820191505090505b50815260200160008152602001428152509050600681908060018154018082558091505090600182039060005260206000209060090201600090919290919091506000820151816000019080519060200190610dfa92919061426b565b50602082015181600101556040820151816002015560608201518160030160006101000a81548173ffffffffffffffffffffffffffffffffffffffff021916908373ffffffffffffffffffffffffffffffffffffffff16021790555060808201518160030160146101000a81548160ff02191690836003811115610e7a57fe5b021790555060a0820151816004019080519060200190610e9b9291906142eb565b5060c0820151816005019080519060200190610eb8929190614338565b5060e082015181600601556101008201518160070155505050600760008360030160009054906101000a900473ffffffffffffffffffffffffffffffffffffffff1673ffffffffffffffffffffffffffffffffffffffff1673ffffffffffffffffffffffffffffffffffffffff168152602001908152602001600020600081548092919060010191905055507f04c4121322017d0bedb67759a58d08eea6ca959ee7b49f87817060fe413d3f378260030160009054906101000a900473ffffffffffffffffffffffffffffffffffffffff16604051808273ffffffffffffffffffffffffffffffffffffffff1673ffffffffffffffffffffffffffffffffffffffff16815260200191505060405180910390a1600d6000856000191660001916815260200190815260200160002060008082016000610ff79190614223565b600182016000905560028201600090556003820160006101000a81549073ffffffffffffffffffffffffffffffffffffffff021916905560048201600090556005820160009055505050505050565b505050565b600060068281548110151561105c57fe5b9060005260206000209060090201600401805490509050919050565b6000809054906101000a900473ffffffffffffffffffffffffffffffffffffffff1673ffffffffffffffffffffffffffffffffffffffff163373ffffffffffffffffffffffffffffffffffffffff161415156110d357600080fd5b600060149054906101000a900460ff1615156110ee57600080fd5b60008060146101000a81548160ff0219169083151502179055507f7805862f689e2f13df9f062ff482ad3ad112aca9e0847911ed832e158c525b3360405160405180910390a1565b600081600060068281548110151561114a57fe5b906000526020600020906009020190503373ffffffffffffffffffffffffffffffffffffffff1681600501826006015481548110151561118657fe5b9060005260206000200160009054906101000a900473ffffffffffffffffffffffffffffffffffffffff1673ffffffffffffffffffffffffffffffffffffffff161415156111d357600080fd5b8360018060038111156111e257fe5b6006838154811015156111f157fe5b906000526020600020906009020160030160149054906101000a900460ff16600381111561121b57fe5b14151561122757600080fd5b600060149054906101000a900460ff1615151561124357600080fd5b600260068781548110151561125457fe5b906000526020600020906009020160030160146101000a81548160ff0219169083600381111561128057fe5b021790555060068681548110151561129457fe5b906000526020600020906009020160020154945060006006878154811015156112b957fe5b9060005260206000209060090201600201819055503373ffffffffffffffffffffffffffffffffffffffff166108fc869081150290604051600060405180830381858888f19350505050158015611314573d6000803e3d6000fd5b507fbf59c0d059a57ebf273b4b1643599fc4b48cf5effdd82113a740ed64d262ec938633604051808381526020018273ffffffffffffffffffffffffffffffffffffffff1673ffffffffffffffffffffffffffffffffffffffff1681526020019250505060405180910390a1505050505050565b60008083833373ffffffffffffffffffffffffffffffffffffffff166006838154811015156113b357fe5b9060005260206000209060090201600501828154811015156113d157fe5b9060005260206000200160009054906101000a900473ffffffffffffffffffffffffffffffffffffffff1673ffffffffffffffffffffffffffffffffffffffff1614151561141e57600080fd5b85600080600381111561142d57fe5b60068381548110151561143c57fe5b906000526020600020906009020160030160149054906101000a900460ff16600381111561146657fe5b14151561147257600080fd5b600060149054906101000a900460ff1615151561148e57600080fd5b60068881548110151561149d57fe5b906000526020600020906009020195508560040180549050945060018511156115975785600401600186038154811015156114d457fe5b906000526020600020015486600401888154811015156114f057fe5b9060005260206000200181905550856005016001860381548110151561151257fe5b9060005260206000200160009054906101000a900473ffffffffffffffffffffffffffffffffffffffff16866005018881548110151561154e57fe5b9060005260206000200160006101000a81548173ffffffffffffffffffffffffffffffffffffffff021916908373ffffffffffffffffffffffffffffffffffffffff1602179055505b856004018054809190600190036115ae91906143c2565b50856005018054809190600190036115c691906143ee565b50600960003373ffffffffffffffffffffffffffffffffffffffff1673ffffffffffffffffffffffffffffffffffffffff168152602001908152602001600020600081548092919060019003919050555060008660080160003373ffffffffffffffffffffffffffffffffffffffff1673ffffffffffffffffffffffffffffffffffffffff16815260200190815260200160002060006101000a81548160ff0219169083151502179055505050505050505050565b600082600080600381111561168c57fe5b60068381548110151561169b57fe5b906000526020600020906009020160030160149054906101000a900460ff1660038111156116c557fe5b1415156116d157600080fd5b600060149054906101000a900460ff161515156116ed57600080fd5b6006858154811015156116fc57fe5b906000526020600020906009020192508260080160003373ffffffffffffffffffffffffffffffffffffffff1673ffffffffffffffffffffffffffffffffffffffff16815260200190815260200160002060009054906101000a900460ff1615151561176757600080fd5b82600401849080600181540180825580915050906001820390600052602060002001600090919290919091505550826005013390806001815401808255809150509060018203906000526020600020016000909192909190916101000a81548173ffffffffffffffffffffffffffffffffffffffff021916908373ffffffffffffffffffffffffffffffffffffffff1602179055505060018360080160003373ffffffffffffffffffffffffffffffffffffffff1673ffffffffffffffffffffffffffffffffffffffff16815260200190815260200160002060006101000a81548160ff021916908315150217905550600960003373ffffffffffffffffffffffffffffffffffffffff1673ffffffffffffffffffffffffffffffffffffffff168152602001908152602001600020600081548092919060010191905055507f9f11264fa3f8158956c16e654d1a0ea9cbfb86bc75a9262ed43c4b875d544fa3853386604051808481526020018373ffffffffffffffffffffffffffffffffffffffff1673ffffffffffffffffffffffffffffffffffffffff168152602001828152602001935050505060405180910390a15050505050565b600060149054906101000a900460ff1681565b6000809054906101000a900473ffffffffffffffffffffffffffffffffffffffff1673ffffffffffffffffffffffffffffffffffffffff163373ffffffffffffffffffffffffffffffffffffffff1614151561198e57600080fd5b6000809054906101000a900473ffffffffffffffffffffffffffffffffffffffff1673ffffffffffffffffffffffffffffffffffffffff167ff8df31144d9c2f0f6b59d69b8b98abd5459d07f2742c4df920b25aae33c6482060405160405180910390a260008060006101000a81548173ffffffffffffffffffffffffffffffffffffffff021916908373ffffffffffffffffffffffffffffffffffffffff160217905550565b6000823373ffffffffffffffffffffffffffffffffffffffff16600682815481101515611a5e57fe5b906000526020600020906009020160030160009054906101000a900473ffffffffffffffffffffffffffffffffffffffff1673ffffffffffffffffffffffffffffffffffffffff16141515611ab257600080fd5b836000806003811115611ac157fe5b600683815481101515611ad057fe5b906000526020600020906009020160030160149054906101000a900460ff166003811115611afa57fe5b141515611b0657600080fd5b600060149054906101000a900460ff16151515611b2257600080fd5b6001600687815481101515611b3357fe5b906000526020600020906009020160030160146101000a81548160ff02191690836003811115611b5f57fe5b021790555084600687815481101515611b7457fe5b906000526020600020906009020160060181905550611bfb600687815481101515611b9b57fe5b906000526020600020906009020160020154600860003373ffffffffffffffffffffffffffffffffffffffff1673ffffffffffffffffffffffffffffffffffffffff16815260200190815260200160002054612d8790919063ffffffff16565b600860003373ffffffffffffffffffffffffffffffffffffffff1673ffffffffffffffffffffffffffffffffffffffff16815260200190815260200160002081905550600686815481101515611c4d57fe5b906000526020600020906009020160050185815481101515611c6b57fe5b9060005260206000200160009054906101000a900473ffffffffffffffffffffffffffffffffffffffff169350611d0a600687815481101515611caa57fe5b906000526020600020906009020160020154600b60008773ffffffffffffffffffffffffffffffffffffffff1673ffffffffffffffffffffffffffffffffffffffff16815260200190815260200160002054612d8790919063ffffffff16565b600b60008673ffffffffffffffffffffffffffffffffffffffff1673ffffffffffffffffffffffffffffffffffffffff16815260200190815260200160002081905550600a60008573ffffffffffffffffffffffffffffffffffffffff1673ffffffffffffffffffffffffffffffffffffffff168152602001908152602001600020600081548092919060010191905055507fe23c11e55758e802697563b6797f5a7fd5d977c37d714e97f9ee381c5cfc0973866040518082815260200191505060405180910390a1505050505050565b60086020528060005260406000206000915090505481565b6000809054906101000a900473ffffffffffffffffffffffffffffffffffffffff1673ffffffffffffffffffffffffffffffffffffffff163373ffffffffffffffffffffffffffffffffffffffff16141515611e4e57600080fd5b6000809054906101000a900473ffffffffffffffffffffffffffffffffffffffff1673ffffffffffffffffffffffffffffffffffffffff16ff5b6000809054906101000a900473ffffffffffffffffffffffffffffffffffffffff1673ffffffffffffffffffffffffffffffffffffffff163373ffffffffffffffffffffffffffffffffffffffff16141515611ee357600080fd5b600060149054906101000a900460ff16151515611eff57600080fd5b6001600060146101000a81548160ff0219169083151502179055507f6985a02210a168e66602d3235cb6db0e70f92b3ba4d376a33c0f3d9434bff62560405160405180910390a1565b600a6020528060005260406000206000915090505481565b6000809054906101000a900473ffffffffffffffffffffffffffffffffffffffff1681565b6060600682815481101515611f9657fe5b906000526020600020906009020160050180548060200260200160405190810160405280929190818152602001828054801561202757602002820191906000526020600020905b8160009054906101000a900473ffffffffffffffffffffffffffffffffffffffff1673ffffffffffffffffffffffffffffffffffffffff1681526020019060010190808311611fdd575b50505050509050919050565b60008060149054906101000a900460ff16151561204f57600080fd5b3073ffffffffffffffffffffffffffffffffffffffff163190503373ffffffffffffffffffffffffffffffffffffffff166108fc829081150290604051600060405180830381858888f193505050501580156120af573d6000803e3d6000fd5b507f23d6711a1d031134a36921253c75aa59e967d38e369ac625992824315e204f203382604051808373ffffffffffffffffffffffffffffffffffffffff1673ffffffffffffffffffffffffffffffffffffffff1681526020018281526020019250505060405180910390a150565b600b6020528060005260406000206000915090505481565b60068181548110151561214557fe5b9060005260206000209060090201600091509050806000018054600181600116156101000203166002900480601f0160208091040260200160405190810160405280929190818152602001828054600181600116156101000203166002900480156121f15780601f106121c6576101008083540402835291602001916121f1565b820191906000526020600020905b8154815290600101906020018083116121d457829003601f168201915b5050505050908060010154908060020154908060030160009054906101000a900473ffffffffffffffffffffffffffffffffffffffff16908060030160149054906101000a900460ff16908060060154908060070154905087565b6000813373ffffffffffffffffffffffffffffffffffffffff1660068281548110151561227557fe5b906000526020600020906009020160030160009054906101000a900473ffffffffffffffffffffffffffffffffffffffff1673ffffffffffffffffffffffffffffffffffffffff161415156122c957600080fd5b8260008060038111156122d857fe5b6006838154811015156122e757fe5b906000526020600020906009020160030160149054906101000a900460ff16600381111561231157fe5b14151561231d57600080fd5b600060149054906101000a900460ff1615151561233957600080fd5b600360068681548110151561234a57fe5b906000526020600020906009020160030160146101000a81548160ff0219169083600381111561237657fe5b021790555060068581548110151561238a57fe5b90600052602060002090600902016002015493506001600680549050111561250d5760066001600680549050038154811015156123c357fe5b90600052602060002090600902016006868154811015156123e057fe5b90600052602060002090600902016000820181600001908054600181600116156101000203166002900461241592919061441a565b5060018201548160010155600282015481600201556003820160009054906101000a900473ffffffffffffffffffffffffffffffffffffffff168160030160006101000a81548173ffffffffffffffffffffffffffffffffffffffff021916908373ffffffffffffffffffffffffffffffffffffffff1602179055506003820160149054906101000a900460ff168160030160146101000a81548160ff021916908360038111156124c257fe5b021790555060048201816004019080546124dd9291906144a1565b5060058201816005019080546124f49291906144f3565b5060068201548160060155600782015481600701559050505b60068054809190600190036125229190614545565b50600760003373ffffffffffffffffffffffffffffffffffffffff1673ffffffffffffffffffffffffffffffffffffffff16815260200190815260200160002060008154809291906001900391905055503373ffffffffffffffffffffffffffffffffffffffff166108fc859081150290604051600060405180830381858888f193505050501580156125b9573d6000803e3d6000fd5b507fbe34663bc2803ca9be398afdbd7e0bd537378360b743b76b170e3421fbe384508533604051808381526020018273ffffffffffffffffffffffffffffffffffffffff1673ffffffffffffffffffffffffffffffffffffffff1681526020019250505060405180910390a15050505050565b60606000600c543411151561264057600080fd5b612731606060405190810160405280603181526020017f6a736f6e2868747470733a2f2f6170692e737461636b65786368616e67652e6381526020017f6f6d2f322e322f7175657374696f6e732f0000000000000000000000000000008152506126a985612da3565b608060405190810160405280604181526020017f3f736974653d657468657265756d266b65793d664d6367716e5476786964593881526020017f536b386e31426362512828292e6974656d735b305d2e7175657374696f6e5f6981526020017f6400000000000000000000000000000000000000000000000000000000000000815250612efa565b91506127766040805190810160405280600381526020017f55524c0000000000000000000000000000000000000000000000000000000000815250836207a120612f32565b905060c060405190810160405280858152602001848152602001600c54340381526020013373ffffffffffffffffffffffffffffffffffffffff168152602001600081526020016000815250600d6000836000191660001916815260200190815260200160002060008201518160000190805190602001906127f992919061426b565b50602082015181600101556040820151816002015560608201518160030160006101000a81548173ffffffffffffffffffffffffffffffffffffffff021916908373ffffffffffffffffffffffffffffffffffffffff1602179055506080820151816004015560a082015181600501559050507f58d21170821224c31f73712bba70b45691461437d8410263cb9532a677c789158133604051808060200184600019166000191681526020018373ffffffffffffffffffffffffffffffffffffffff1673ffffffffffffffffffffffffffffffffffffffff168152602001828103825260138152602001807f4f7261636c697a652071756572792073656e7400000000000000000000000000815250602001935050505060405180910390a150505050565b6000809054906101000a900473ffffffffffffffffffffffffffffffffffffffff1673ffffffffffffffffffffffffffffffffffffffff163373ffffffffffffffffffffffffffffffffffffffff1614151561297957600080fd5b612982816134e6565b50565b6000809054906101000a900473ffffffffffffffffffffffffffffffffffffffff1673ffffffffffffffffffffffffffffffffffffffff163373ffffffffffffffffffffffffffffffffffffffff161415156129e057600080fd5b8073ffffffffffffffffffffffffffffffffffffffff16ff5b60076020528060005260406000206000915090505481565b600080600160009054906101000a900473ffffffffffffffffffffffffffffffffffffffff1673ffffffffffffffffffffffffffffffffffffffff161480612a8357506000612a81600160009054906101000a900473ffffffffffffffffffffffffffffffffffffffff166135e0565b145b15612a9457612a9260006135eb565b505b600160009054906101000a900473ffffffffffffffffffffffffffffffffffffffff1673ffffffffffffffffffffffffffffffffffffffff166338cc48316040518163ffffffff167c0100000000000000000000000000000000000000000000000000000000028152600401602060405180830381600087803b158015612b1a57600080fd5b505af1158015612b2e573d6000803e3d6000fd5b505050506040513d6020811015612b4457600080fd5b810190808051906020019092919050505073ffffffffffffffffffffffffffffffffffffffff16600260009054906101000a900473ffffffffffffffffffffffffffffffffffffffff1673ffffffffffffffffffffffffffffffffffffffff16141515612cad57600160009054906101000a900473ffffffffffffffffffffffffffffffffffffffff1673ffffffffffffffffffffffffffffffffffffffff166338cc48316040518163ffffffff167c0100000000000000000000000000000000000000000000000000000000028152600401602060405180830381600087803b158015612c3157600080fd5b505af1158015612c45573d6000803e3d6000fd5b505050506040513d6020811015612c5b57600080fd5b8101908080519060200190929190505050600260006101000a81548173ffffffffffffffffffffffffffffffffffffffff021916908373ffffffffffffffffffffffffffffffffffffffff1602179055505b600260009054906101000a900473ffffffffffffffffffffffffffffffffffffffff1673ffffffffffffffffffffffffffffffffffffffff1663c281d19e6040518163ffffffff167c0100000000000000000000000000000000000000000000000000000000028152600401602060405180830381600087803b158015612d3357600080fd5b505af1158015612d47573d6000803e3d6000fd5b505050506040513d6020811015612d5d57600080fd5b8101908080519060200190929190505050905090565b6000612d808260006135fc565b9050919050565b60008183019050828110151515612d9a57fe5b80905092915050565b60606000806060600080861415612df1576040805190810160405280600181526020017f30000000000000000000000000000000000000000000000000000000000000008152509450612ef1565b8593505b600084141515612e1b578280600101935050600a84811515612e1357fe5b049350612df5565b826040519080825280601f01601f191660200182016040528015612e4e5781602001602082028038833980820191505090505b5091506001830390505b600086141515612eed57600a86811515612e6e57fe5b066030017f010000000000000000000000000000000000000000000000000000000000000002828280600190039350815181101515612ea957fe5b9060200101907effffffffffffffffffffffffffffffffffffffffffffffffffffffffffffff1916908160001a905350600a86811515612ee557fe5b049550612e58565b8194505b50505050919050565b6060612f29848484602060405190810160405280600081525060206040519081016040528060008152506138f0565b90509392505050565b6000806000600160009054906101000a900473ffffffffffffffffffffffffffffffffffffffff1673ffffffffffffffffffffffffffffffffffffffff161480612fa657506000612fa4600160009054906101000a900473ffffffffffffffffffffffffffffffffffffffff166135e0565b145b15612fb757612fb560006135eb565b505b600160009054906101000a900473ffffffffffffffffffffffffffffffffffffffff1673ffffffffffffffffffffffffffffffffffffffff166338cc48316040518163ffffffff167c0100000000000000000000000000000000000000000000000000000000028152600401602060405180830381600087803b15801561303d57600080fd5b505af1158015613051573d6000803e3d6000fd5b505050506040513d602081101561306757600080fd5b810190808051906020019092919050505073ffffffffffffffffffffffffffffffffffffffff16600260009054906101000a900473ffffffffffffffffffffffffffffffffffffffff1673ffffffffffffffffffffffffffffffffffffffff161415156131d057600160009054906101000a900473ffffffffffffffffffffffffffffffffffffffff1673ffffffffffffffffffffffffffffffffffffffff166338cc48316040518163ffffffff167c0100000000000000000000000000000000000000000000000000000000028152600401602060405180830381600087803b15801561315457600080fd5b505af1158015613168573d6000803e3d6000fd5b505050506040513d602081101561317e57600080fd5b8101908080519060200190929190505050600260006101000a81548173ffffffffffffffffffffffffffffffffffffffff021916908373ffffffffffffffffffffffffffffffffffffffff1602179055505b600260009054906101000a900473ffffffffffffffffffffffffffffffffffffffff1673ffffffffffffffffffffffffffffffffffffffff16632ef3accc86856040518363ffffffff167c01000000000000000000000000000000000000000000000000000000000281526004018080602001838152602001828103825284818151815260200191508051906020019080838360005b83811015613281578082015181840152602081019050613266565b50505050905090810190601f1680156132ae5780820380516001836020036101000a031916815260200191505b509350505050602060405180830381600087803b1580156132ce57600080fd5b505af11580156132e2573d6000803e3d6000fd5b505050506040513d60208110156132f857600080fd5b81019080805190602001909291905050509050823a02670de0b6b3a76400000181111561332b57600060010291506134de565b600260009054906101000a900473ffffffffffffffffffffffffffffffffffffffff1673ffffffffffffffffffffffffffffffffffffffff1663c51be90f8260008888886040518663ffffffff167c0100000000000000000000000000000000000000000000000000000000028152600401808581526020018060200180602001848152602001838103835286818151815260200191508051906020019080838360005b838110156133ea5780820151818401526020810190506133cf565b50505050905090810190601f1680156134175780820380516001836020036101000a031916815260200191505b50838103825285818151815260200191508051906020019080838360005b83811015613450578082015181840152602081019050613435565b50505050905090810190601f16801561347d5780820380516001836020036101000a031916815260200191505b5096505050505050506020604051808303818588803b15801561349f57600080fd5b505af11580156134b3573d6000803e3d6000fd5b50505050506040513d60208110156134ca57600080fd5b810190808051906020019092919050505091505b509392505050565b600073ffffffffffffffffffffffffffffffffffffffff168173ffffffffffffffffffffffffffffffffffffffff161415151561352257600080fd5b8073ffffffffffffffffffffffffffffffffffffffff166000809054906101000a900473ffffffffffffffffffffffffffffffffffffffff1673ffffffffffffffffffffffffffffffffffffffff167f8be0079c531659141344cd1fd0a4f28419497f9722a3daafe3b4186f6b6457e060405160405180910390a3806000806101000a81548173ffffffffffffffffffffffffffffffffffffffff021916908373ffffffffffffffffffffffffffffffffffffffff16021790555050565b6000813b9050919050565b60006135f5613d05565b9050919050565b6000606060008060008693506000925060009150600090505b83518110156138d15760307f010000000000000000000000000000000000000000000000000000000000000002848281518110151561365057fe5b9060200101517f010000000000000000000000000000000000000000000000000000000000000090047f0100000000000000000000000000000000000000000000000000000000000000027effffffffffffffffffffffffffffffffffffffffffffffffffffffffffffff191610158015613768575060397f01000000000000000000000000000000000000000000000000000000000000000284828151811015156136f857fe5b9060200101517f010000000000000000000000000000000000000000000000000000000000000090047f0100000000000000000000000000000000000000000000000000000000000000027effffffffffffffffffffffffffffffffffffffffffffffffffffffffffffff191611155b1561381957811561378b576000861415613781576138d1565b8580600190039650505b600a83029250603084828151811015156137a157fe5b9060200101517f010000000000000000000000000000000000000000000000000000000000000090047f0100000000000000000000000000000000000000000000000000000000000000027f0100000000000000000000000000000000000000000000000000000000000000900403830192506138c4565b602e7f010000000000000000000000000000000000000000000000000000000000000002848281518110151561384b57fe5b9060200101517f010000000000000000000000000000000000000000000000000000000000000090047f0100000000000000000000000000000000000000000000000000000000000000027effffffffffffffffffffffffffffffffffffffffffffffffffffffffffffff191614156138c357600191505b5b8080600101915050613615565b60008611156138e35785600a0a830292505b8294505050505092915050565b6060806060806060806060806000808e98508d97508c96508b95508a94508451865188518a518c51010101016040519080825280601f01601f19166020018201604052801561394e5781602001602082028038833980820191505090505b50935083925060009150600090505b8851811015613a1057888181518110151561397457fe5b9060200101517f010000000000000000000000000000000000000000000000000000000000000090047f01000000000000000000000000000000000000000000000000000000000000000283838060010194508151811015156139d357fe5b9060200101907effffffffffffffffffffffffffffffffffffffffffffffffffffffffffffff1916908160001a905350808060010191505061395d565b600090505b8751811015613ac8578781815181101515613a2c57fe5b9060200101517f010000000000000000000000000000000000000000000000000000000000000090047f0100000000000000000000000000000000000000000000000000000000000000028383806001019450815181101515613a8b57fe5b9060200101907effffffffffffffffffffffffffffffffffffffffffffffffffffffffffffff1916908160001a9053508080600101915050613a15565b600090505b8651811015613b80578681815181101515613ae457fe5b9060200101517f010000000000000000000000000000000000000000000000000000000000000090047f0100000000000000000000000000000000000000000000000000000000000000028383806001019450815181101515613b4357fe5b9060200101907effffffffffffffffffffffffffffffffffffffffffffffffffffffffffffff1916908160001a9053508080600101915050613acd565b600090505b8551811015613c38578581815181101515613b9c57fe5b9060200101517f010000000000000000000000000000000000000000000000000000000000000090047f0100000000000000000000000000000000000000000000000000000000000000028383806001019450815181101515613bfb57fe5b9060200101907effffffffffffffffffffffffffffffffffffffffffffffffffffffffffffff1916908160001a9053508080600101915050613b85565b600090505b8451811015613cf0578481815181101515613c5457fe5b9060200101517f010000000000000000000000000000000000000000000000000000000000000090047f0100000000000000000000000000000000000000000000000000000000000000028383806001019450815181101515613cb357fe5b9060200101907effffffffffffffffffffffffffffffffffffffffffffffffffffffffffffff1916908160001a9053508080600101915050613c3d565b82995050505050505050505095945050505050565b600080613d25731d3b2638a7cc9f2cb3d298a3da7a90b67e5506ed6135e0565b1115613dc757731d3b2638a7cc9f2cb3d298a3da7a90b67e5506ed600160006101000a81548173ffffffffffffffffffffffffffffffffffffffff021916908373ffffffffffffffffffffffffffffffffffffffff160217905550613dbe6040805190810160405280600b81526020017f6574685f6d61696e6e657400000000000000000000000000000000000000000081525061419b565b60019050614198565b6000613de673c03a2615d5efaf5f49f60b7bb6583eaec212fdf16135e0565b1115613e885773c03a2615d5efaf5f49f60b7bb6583eaec212fdf1600160006101000a81548173ffffffffffffffffffffffffffffffffffffffff021916908373ffffffffffffffffffffffffffffffffffffffff160217905550613e7f6040805190810160405280600c81526020017f6574685f726f707374656e33000000000000000000000000000000000000000081525061419b565b60019050614198565b6000613ea773b7a07bcf2ba2f2703b24c0691b5278999c59ac7e6135e0565b1115613f495773b7a07bcf2ba2f2703b24c0691b5278999c59ac7e600160006101000a81548173ffffffffffffffffffffffffffffffffffffffff021916908373ffffffffffffffffffffffffffffffffffffffff160217905550613f406040805190810160405280600981526020017f6574685f6b6f76616e000000000000000000000000000000000000000000000081525061419b565b60019050614198565b6000613f6873146500cfd35b22e4a392fe0adc06de1a1368ed486135e0565b111561400a5773146500cfd35b22e4a392fe0adc06de1a1368ed48600160006101000a81548173ffffffffffffffffffffffffffffffffffffffff021916908373ffffffffffffffffffffffffffffffffffffffff1602179055506140016040805190810160405280600b81526020017f6574685f72696e6b65627900000000000000000000000000000000000000000081525061419b565b60019050614198565b6000614029736f485c8bf6fc43ea212e93bbf8ce046c7f1cb4756135e0565b111561408d57736f485c8bf6fc43ea212e93bbf8ce046c7f1cb475600160006101000a81548173ffffffffffffffffffffffffffffffffffffffff021916908373ffffffffffffffffffffffffffffffffffffffff16021790555060019050614198565b60006140ac7320e12a1f859b3feae5fb2a0a32c18f5a65555bbf6135e0565b1115614110577320e12a1f859b3feae5fb2a0a32c18f5a65555bbf600160006101000a81548173ffffffffffffffffffffffffffffffffffffffff021916908373ffffffffffffffffffffffffffffffffffffffff16021790555060019050614198565b600061412f7351efaf4c8b3c9afbd5ab9f4bbc82784ab6ef8faa6135e0565b1115614193577351efaf4c8b3c9afbd5ab9f4bbc82784ab6ef8faa600160006101000a81548173ffffffffffffffffffffffffffffffffffffffff021916908373ffffffffffffffffffffffffffffffffffffffff16021790555060019050614198565b600090505b90565b80600390805190602001906141b1929190614577565b5050565b61012060405190810160405280606081526020016000815260200160008152602001600073ffffffffffffffffffffffffffffffffffffffff1681526020016000600381111561420157fe5b8152602001606081526020016060815260200160008152602001600081525090565b50805460018160011615610100020316600290046000825580601f106142495750614268565b601f01602090049060005260206000209081019061426791906145f7565b5b50565b828054600181600116156101000203166002900490600052602060002090601f016020900481019282601f106142ac57805160ff19168380011785556142da565b828001600101855582156142da579182015b828111156142d95782518255916020019190600101906142be565b5b5090506142e791906145f7565b5090565b828054828255906000526020600020908101928215614327579160200282015b8281111561432657825182559160200191906001019061430b565b5b50905061433491906145f7565b5090565b8280548282559060005260206000209081019282156143b1579160200282015b828111156143b05782518260006101000a81548173ffffffffffffffffffffffffffffffffffffffff021916908373ffffffffffffffffffffffffffffffffffffffff16021790555091602001919060010190614358565b5b5090506143be919061461c565b5090565b8154818355818111156143e9578183600052602060002091820191016143e891906145f7565b5b505050565b8154818355818111156144155781836000526020600020918201910161441491906145f7565b5b505050565b828054600181600116156101000203166002900490600052602060002090601f016020900481019282601f106144535780548555614490565b8280016001018555821561449057600052602060002091601f016020900482015b8281111561448f578254825591600101919060010190614474565b5b50905061449d91906145f7565b5090565b8280548282559060005260206000209081019282156144e25760005260206000209182015b828111156144e15782548255916001019190600101906144c6565b5b5090506144ef91906145f7565b5090565b8280548282559060005260206000209081019282156145345760005260206000209182015b82811115614533578254825591600101919060010190614518565b5b509050614541919061461c565b5090565b81548183558181111561457257600902816009028360005260206000209182019101614571919061465f565b5b505050565b828054600181600116156101000203166002900490600052602060002090601f016020900481019282601f106145b857805160ff19168380011785556145e6565b828001600101855582156145e6579182015b828111156145e55782518255916020019190600101906145ca565b5b5090506145f391906145f7565b5090565b61461991905b808211156146155760008160009055506001016145fd565b5090565b90565b61465c91905b8082111561465857600081816101000a81549073ffffffffffffffffffffffffffffffffffffffff021916905550600101614622565b5090565b90565b61470691905b80821115614702576000808201600061467e9190614223565b600182016000905560028201600090556003820160006101000a81549073ffffffffffffffffffffffffffffffffffffffff02191690556003820160146101000a81549060ff02191690556004820160006146d99190614709565b6005820160006146e9919061472a565b6006820160009055600782016000905550600901614665565b5090565b90565b508054600082559060005260206000209081019061472791906145f7565b50565b508054600082559060005260206000209081019061474891906145f7565b505600a165627a7a72305820526ff39f954d9b5d135d774d8e7b409b55171253effef6d0f650aa3ffca696880029",
  "source": "pragma solidity ^0.4.20;\n\nimport 'openzeppelin-solidity/contracts/ownership/Ownable.sol';\nimport 'openzeppelin-solidity/contracts/lifecycle/Destructible.sol';\nimport 'openzeppelin-solidity/contracts/lifecycle/Pausable.sol';\nimport 'openzeppelin-solidity/contracts/math/SafeMath.sol';\nimport './oraclizeAPI_0.5.sol';\n\ncontract SEBounty is Destructible, Pausable, usingOraclize {\n    using SafeMath for uint256;\n\n    event BountyOpened(uint bountyIndex, address bountyOwner, uint questionId);\n    event BountyAwarded(uint bountyIndex);\n    event BountyClaimed(uint bountyIndex, address answerOwner);\n    event BountyCancelled(uint bountyIndex, address bountyOwner);\n    event AnswerPosted(uint bountyIndex, address answerOwner, uint answerId);\n    event EmergencyWithdrawal(address withdrawalAddress, uint balance);\n\n    enum Stages {\n        Opened,\n        Awarded,\n        Claimed,\n        Cancelled\n    }\n\n    struct Bounty {\n        string description;\n        uint questionId;\n        uint bountyValue;\n        address bountyOwner;\n        Stages stage;\n        uint[] answers;\n        address[] answerOwners;\n        uint acceptedAnswer;\n        uint timePosted;\n        mapping (address => bool) hasAnswered;\n    }\n\n    Bounty[] public bounties;\n    mapping (address => uint256) public bountyCount;\n    mapping (address => uint256) public awardedTotal;\n    mapping (address => uint256) public answerCount;\n    mapping (address => uint256) public acceptedCount;\n    mapping (address => uint256) public wonTotal;\n\n    struct OracleCallbackDetails {\n        string desc;\n        uint questionId;\n        uint bountyValue;\n        address bountyOwner;\n        uint bountyIndex;\n        uint answerId;\n    }\n\n    uint256 oraclizeFee = 0.0100355 ether;\n\n    mapping(bytes32 => OracleCallbackDetails) oracleDetails;\n    event newOraclizeQuery(string description, bytes32 id, address caller);\n    event OraclizeQueryFail(address caller);\n    event OraclizeQuerySuccess(address caller);\n\n    modifier isBountyOwner(uint _bountyIndex) {\n        require(bounties[_bountyIndex].bountyOwner == msg.sender);\n        _;\n    }\n\n    modifier isAnswerOwner(uint _bountyIndex, uint _answerIndex) {\n        require(\n            bounties[_bountyIndex].answerOwners[_answerIndex] == msg.sender\n        );\n        _;\n    }\n\n    modifier isAcceptedAnswerOwner(uint _bountyIndex) {\n        Bounty storage bountyRef = bounties[_bountyIndex];\n        require(\n            bountyRef.answerOwners[bountyRef.acceptedAnswer] == msg.sender\n        );\n        _;\n    }\n\n    modifier atStage(uint _bountyIndex, Stages _stage) {\n        require(\n            bounties[_bountyIndex].stage == _stage\n        );\n        _;\n    }\n\n    function SEBounty() public {\n        owner = msg.sender;\n    }\n\n    function __callback(bytes32 myid, string result) public {\n        require(msg.sender == oraclize_cbAddress());\n\n        OracleCallbackDetails storage details = oracleDetails[myid];\n\n        if (bytes(result).length == 0 ||\n            parseInt(result) != details.questionId) {\n            OraclizeQueryFail(details.bountyOwner);\n            delete oracleDetails[myid];\n            revert();\n        }\n\n        Bounty memory newBounty = Bounty({\n            description: details.desc,\n            questionId: details.questionId,\n            bountyValue: details.bountyValue,\n            bountyOwner: details.bountyOwner,\n            stage: Stages.Opened,\n            answers: new uint[](0),\n            answerOwners: new address[](0),\n            acceptedAnswer: 0,\n            timePosted: now\n        });\n\n        bounties.push(newBounty);\n        bountyCount[details.bountyOwner]++;\n\n        OraclizeQuerySuccess(details.bountyOwner);\n        delete oracleDetails[myid];\n    }\n\n    function postBounty(string _description, uint _questionId)\n        public\n        payable\n    {\n        // They must send the amount of ETH with their creation request.\n        // This must be greater than nothing...\n        require(msg.value > oraclizeFee);\n\n        string memory queryString = strConcat(\n            \"json(https://api.stackexchange.com/2.2/questions/\",\n            uIntToStr(_questionId),\n            \"?site=ethereum&key=fMcgqnTvxidY8Sk8n1BcbQ(().items[0].question_id\");\n\n        bytes32 oracleId = oraclize_query(\"URL\", queryString, 500000);\n\n        oracleDetails[oracleId] = OracleCallbackDetails(\n            _description,\n            _questionId,\n            msg.value - oraclizeFee,\n            msg.sender,\n            0,\n            0);\n\n        newOraclizeQuery(\"Oraclize query sent\", oracleId, msg.sender);\n    }\n\n    function postAnswer(uint _bountyIndex, uint _answerId)\n        public\n        atStage(_bountyIndex, Stages.Opened)\n        whenNotPaused()\n    {\n        Bounty storage bountyRef = bounties[_bountyIndex];\n        require(!bountyRef.hasAnswered[msg.sender]);\n\n        bountyRef.answers.push(_answerId);\n        bountyRef.answerOwners.push(msg.sender);\n        bountyRef.hasAnswered[msg.sender] = true;\n        answerCount[msg.sender]++;\n\n        AnswerPosted(_bountyIndex, msg.sender, _answerId);\n    }\n\n    function awardBounty(uint _bountyIndex, uint _answerIndex)\n        public\n        isBountyOwner(_bountyIndex)\n        atStage(_bountyIndex, Stages.Opened)\n        whenNotPaused()\n    {\n        bounties[_bountyIndex].stage = Stages.Awarded;\n        bounties[_bountyIndex].acceptedAnswer = _answerIndex;\n\n        awardedTotal[msg.sender] =\n            awardedTotal[msg.sender].add(bounties[_bountyIndex].bountyValue);\n        address winner = bounties[_bountyIndex].answerOwners[_answerIndex];\n        wonTotal[winner] =\n            wonTotal[winner].add(bounties[_bountyIndex].bountyValue);\n        acceptedCount[winner]++;\n\n        BountyAwarded(_bountyIndex);\n    }\n\n\n    function claimBounty(uint _bountyIndex)\n        public\n        isAcceptedAnswerOwner(_bountyIndex)\n        atStage(_bountyIndex, Stages.Awarded)\n        whenNotPaused()\n    {\n        // Use the state machine to protect against reentrancy.\n        bounties[_bountyIndex].stage = Stages.Claimed;\n        uint bounty = bounties[_bountyIndex].bountyValue;\n        bounties[_bountyIndex].bountyValue = 0;\n        msg.sender.transfer(bounty);\n\n        BountyClaimed(_bountyIndex, msg.sender);\n    }\n\n\n    function cancelBounty(uint _bountyIndex)\n        public\n        isBountyOwner(_bountyIndex)\n        atStage(_bountyIndex, Stages.Opened)\n        whenNotPaused()\n    {\n        // Use the state machine to protect against reentrancy.\n        bounties[_bountyIndex].stage = Stages.Cancelled;\n        uint bounty = bounties[_bountyIndex].bountyValue;\n\n        // Don't explicitly delete. Let the compiler clean things up.\n        if (bounties.length > 1) {\n            bounties[_bountyIndex] = bounties[bounties.length - 1];\n        }\n        bounties.length--;\n        bountyCount[msg.sender]--;\n\n        msg.sender.transfer(bounty);\n\n        BountyCancelled(_bountyIndex, msg.sender);\n    }\n\n    // Answer functions.\n    function cancelAnswer(uint _bountyIndex, uint _answerIndex)\n        public\n        isAnswerOwner(_bountyIndex, _answerIndex)\n        atStage(_bountyIndex, Stages.Opened)\n        whenNotPaused()\n    {\n        Bounty storage bountyRef = bounties[_bountyIndex];\n        uint len = bountyRef.answers.length;\n\n        if (len > 1) {\n            bountyRef.answers[_answerIndex] = bountyRef.answers[len - 1];\n            bountyRef.answerOwners[_answerIndex] =\n                bountyRef.answerOwners[len - 1];\n        }\n        bountyRef.answers.length--;\n        bountyRef.answerOwners.length--;\n\n        answerCount[msg.sender]--;\n        bountyRef.hasAnswered[msg.sender] = false;\n    }\n\n    function getBountyCount()\n        public\n        view\n        returns (uint)\n    {\n        return bounties.length;\n    }\n\n    function getAnswers(uint _bountyIndex)\n        public\n        view\n        returns (uint [])\n    {\n        return bounties[_bountyIndex].answers;\n    }\n\n    function getAnswerOwners(uint _bountyIndex)\n        public\n        view\n        returns (address [])\n    {\n        return bounties[_bountyIndex].answerOwners;\n    }\n\n    function getAnswerCount(uint _bountyIndex)\n        public\n        view\n        returns (uint)\n    {\n        return bounties[_bountyIndex].answers.length;\n    }\n\n    function getBalance()\n        public\n        view\n        returns (uint)\n    {\n        return this.balance;\n    }\n\n    function withdrawInEmergency()\n        public\n        whenPaused()\n    {\n        uint balance = address(this).balance;\n        msg.sender.transfer(balance);\n\n        EmergencyWithdrawal(msg.sender, balance);\n    }\n\n    function uIntToStr(uint i)\n        internal\n        pure\n        returns (string)\n    {\n        if (i == 0) return \"0\";\n        uint j = i;\n        uint len;\n        while (j != 0){\n            len++;\n            j /= 10;\n        }\n        bytes memory bstr = new bytes(len);\n        uint k = len - 1;\n        while (i != 0){\n            bstr[k--] = byte(48 + i % 10);\n            i /= 10;\n        }\n        return string(bstr);\n    }\n\n    function ()\n        public\n        payable\n    { }\n}\n",
  "sourcePath": "/home/richard/Projects/ethereum-projects/ethereum-se-bounty/contracts/SEBounty.sol",
  "compiler": {
    "name": "solc",
    "version": "0.4.24+commit.e67f0147.Emscripten.clang"
  },
  "schemaVersion": "2.0.0",
  "updatedAt": "2018-08-18T22:57:19.631Z"
}