{
  "contractName": "SEBounty",
  "abi": [
    {
      "constant": false,
      "inputs": [],
      "name": "renounceOwnership",
      "outputs": [],
      "payable": false,
      "stateMutability": "nonpayable",
      "type": "function"
    },
    {
      "constant": false,
      "inputs": [],
      "name": "destroy",
      "outputs": [],
      "payable": false,
      "stateMutability": "nonpayable",
      "type": "function"
    },
    {
      "constant": true,
      "inputs": [],
      "name": "owner",
      "outputs": [
        {
          "name": "",
          "type": "address"
        }
      ],
      "payable": false,
      "stateMutability": "view",
      "type": "function"
    },
    {
      "constant": true,
      "inputs": [
        {
          "name": "",
          "type": "uint256"
        }
      ],
      "name": "bounties",
      "outputs": [
        {
          "name": "description",
          "type": "string"
        },
        {
          "name": "questionId",
          "type": "uint256"
        },
        {
          "name": "bountyValue",
          "type": "uint256"
        },
        {
          "name": "bountyOwner",
          "type": "address"
        },
        {
          "name": "stage",
          "type": "uint8"
        },
        {
          "name": "acceptedAnswer",
          "type": "uint256"
        }
      ],
      "payable": false,
      "stateMutability": "view",
      "type": "function"
    },
    {
      "constant": false,
      "inputs": [
        {
          "name": "_newOwner",
          "type": "address"
        }
      ],
      "name": "transferOwnership",
      "outputs": [],
      "payable": false,
      "stateMutability": "nonpayable",
      "type": "function"
    },
    {
      "constant": false,
      "inputs": [
        {
          "name": "_recipient",
          "type": "address"
        }
      ],
      "name": "destroyAndSend",
      "outputs": [],
      "payable": false,
      "stateMutability": "nonpayable",
      "type": "function"
    },
    {
      "inputs": [],
      "payable": false,
      "stateMutability": "nonpayable",
      "type": "constructor"
    },
    {
      "anonymous": false,
      "inputs": [
        {
          "indexed": false,
          "name": "bountyIndex",
          "type": "uint256"
        },
        {
          "indexed": false,
          "name": "bountyOwner",
          "type": "address"
        },
        {
          "indexed": false,
          "name": "questionId",
          "type": "uint256"
        }
      ],
      "name": "BountyOpened",
      "type": "event"
    },
    {
      "anonymous": false,
      "inputs": [
        {
          "indexed": false,
          "name": "bountyIndex",
          "type": "uint256"
        }
      ],
      "name": "BountyAwarded",
      "type": "event"
    },
    {
      "anonymous": false,
      "inputs": [
        {
          "indexed": false,
          "name": "bountyIndex",
          "type": "uint256"
        },
        {
          "indexed": false,
          "name": "answerOwner",
          "type": "address"
        }
      ],
      "name": "BountyClaimed",
      "type": "event"
    },
    {
      "anonymous": false,
      "inputs": [
        {
          "indexed": false,
          "name": "bountyIndex",
          "type": "uint256"
        },
        {
          "indexed": false,
          "name": "bountyOwner",
          "type": "address"
        }
      ],
      "name": "BountyCancelled",
      "type": "event"
    },
    {
      "anonymous": false,
      "inputs": [
        {
          "indexed": false,
          "name": "bountyIndex",
          "type": "uint256"
        },
        {
          "indexed": false,
          "name": "bountyOwner",
          "type": "address"
        }
      ],
      "name": "BountyWithdrawn",
      "type": "event"
    },
    {
      "anonymous": false,
      "inputs": [
        {
          "indexed": false,
          "name": "bountyIndex",
          "type": "uint256"
        },
        {
          "indexed": false,
          "name": "answerOwner",
          "type": "address"
        },
        {
          "indexed": false,
          "name": "answerId",
          "type": "uint256"
        }
      ],
      "name": "AnswerPosted",
      "type": "event"
    },
    {
      "anonymous": false,
      "inputs": [
        {
          "indexed": true,
          "name": "previousOwner",
          "type": "address"
        }
      ],
      "name": "OwnershipRenounced",
      "type": "event"
    },
    {
      "anonymous": false,
      "inputs": [
        {
          "indexed": true,
          "name": "previousOwner",
          "type": "address"
        },
        {
          "indexed": true,
          "name": "newOwner",
          "type": "address"
        }
      ],
      "name": "OwnershipTransferred",
      "type": "event"
    },
    {
      "constant": false,
      "inputs": [
        {
          "name": "_description",
          "type": "string"
        },
        {
          "name": "_questionId",
          "type": "uint256"
        }
      ],
      "name": "createBounty",
      "outputs": [],
      "payable": true,
      "stateMutability": "payable",
      "type": "function"
    },
    {
      "constant": false,
      "inputs": [
        {
          "name": "_bountyIndex",
          "type": "uint256"
        },
        {
          "name": "_description",
          "type": "string"
        }
      ],
      "name": "editBounty",
      "outputs": [],
      "payable": true,
      "stateMutability": "payable",
      "type": "function"
    },
    {
      "constant": false,
      "inputs": [
        {
          "name": "_bountyIndex",
          "type": "uint256"
        },
        {
          "name": "_answerIndex",
          "type": "uint256"
        }
      ],
      "name": "awardBounty",
      "outputs": [],
      "payable": false,
      "stateMutability": "nonpayable",
      "type": "function"
    },
    {
      "constant": false,
      "inputs": [
        {
          "name": "_bountyIndex",
          "type": "uint256"
        }
      ],
      "name": "claimBounty",
      "outputs": [],
      "payable": false,
      "stateMutability": "nonpayable",
      "type": "function"
    },
    {
      "constant": false,
      "inputs": [
        {
          "name": "_bountyIndex",
          "type": "uint256"
        }
      ],
      "name": "cancelBounty",
      "outputs": [],
      "payable": false,
      "stateMutability": "nonpayable",
      "type": "function"
    },
    {
      "constant": false,
      "inputs": [
        {
          "name": "_bountyIndex",
          "type": "uint256"
        }
      ],
      "name": "withdrawBounty",
      "outputs": [],
      "payable": false,
      "stateMutability": "nonpayable",
      "type": "function"
    },
    {
      "constant": true,
      "inputs": [],
      "name": "getBountyCount",
      "outputs": [
        {
          "name": "",
          "type": "uint256"
        }
      ],
      "payable": false,
      "stateMutability": "view",
      "type": "function"
    },
    {
      "constant": false,
      "inputs": [
        {
          "name": "_bountyIndex",
          "type": "uint256"
        },
        {
          "name": "_answerId",
          "type": "uint256"
        }
      ],
      "name": "postAnswer",
      "outputs": [],
      "payable": false,
      "stateMutability": "nonpayable",
      "type": "function"
    },
    {
      "constant": false,
      "inputs": [
        {
          "name": "_bountyIndex",
          "type": "uint256"
        },
        {
          "name": "_answerIndex",
          "type": "uint256"
        }
      ],
      "name": "cancelAnswer",
      "outputs": [],
      "payable": false,
      "stateMutability": "nonpayable",
      "type": "function"
    },
    {
      "constant": true,
      "inputs": [
        {
          "name": "_bountyIndex",
          "type": "uint256"
        }
      ],
      "name": "getAnswers",
      "outputs": [
        {
          "name": "",
          "type": "uint256[]"
        }
      ],
      "payable": false,
      "stateMutability": "view",
      "type": "function"
    },
    {
      "constant": true,
      "inputs": [
        {
          "name": "_bountyIndex",
          "type": "uint256"
        }
      ],
      "name": "getAnswerOwners",
      "outputs": [
        {
          "name": "",
          "type": "address[]"
        }
      ],
      "payable": false,
      "stateMutability": "view",
      "type": "function"
    },
    {
      "constant": true,
      "inputs": [
        {
          "name": "_bountyIndex",
          "type": "uint256"
        }
      ],
      "name": "getAnswerCount",
      "outputs": [
        {
          "name": "",
          "type": "uint256"
        }
      ],
      "payable": false,
      "stateMutability": "view",
      "type": "function"
    }
  ],
  "bytecode": "0x608060405234801561001057600080fd5b50336000806101000a81548173ffffffffffffffffffffffffffffffffffffffff021916908373ffffffffffffffffffffffffffffffffffffffff160217905550336000806101000a81548173ffffffffffffffffffffffffffffffffffffffff021916908373ffffffffffffffffffffffffffffffffffffffff1602179055506128bb806100a06000396000f3006080604052600436106100fc576000357c0100000000000000000000000000000000000000000000000000000000900463ffffffff16806306641f7e146101015780630d12822e1461012c5780631e59e02a146101925780633c842c131461021457806344021ad714610255578063500ac8cc146102825780635601bbe1146102b95780635a8e77a5146102f0578063715018a61461031d57806371a569e61461033457806383197ef01461036b5780638da5cb5b14610382578063a377ee22146103d9578063b83a3bc11461045b578063dc2f8744146104c1578063e5e5dff1146105c4578063f2fde38b146105f1578063f5074f4114610634575b600080fd5b34801561010d57600080fd5b50610116610677565b6040518082815260200191505060405180910390f35b61019060048036038101908080359060200190929190803590602001908201803590602001908080601f0160208091040260200160405190810160405280939291908181526020018383808284378201915050505050509192919290505050610684565b005b34801561019e57600080fd5b506101bd600480360381019080803590602001909291905050506108b7565b6040518080602001828103825283818151815260200191508051906020019060200280838360005b838110156102005780820151818401526020810190506101e5565b505050509050019250505060405180910390f35b34801561022057600080fd5b5061023f6004803603810190808035906020019092919050505061092f565b6040518082815260200191505060405180910390f35b34801561026157600080fd5b506102806004803603810190808035906020019092919050505061095c565b005b34801561028e57600080fd5b506102b76004803603810190808035906020019092919080359060200190929190505050610c8a565b005b3480156102c557600080fd5b506102ee6004803603810190808035906020019092919080359060200190929190505050611052565b005b3480156102fc57600080fd5b5061031b6004803603810190808035906020019092919050505061127c565b005b34801561032957600080fd5b506103326116db565b005b34801561034057600080fd5b5061036960048036038101908080359060200190929190803590602001909291905050506117dd565b005b34801561037757600080fd5b50610380611a48565b005b34801561038e57600080fd5b50610397611add565b604051808273ffffffffffffffffffffffffffffffffffffffff1673ffffffffffffffffffffffffffffffffffffffff16815260200191505060405180910390f35b3480156103e557600080fd5b5061040460048036038101908080359060200190929190505050611b02565b6040518080602001828103825283818151815260200191508051906020019060200280838360005b8381101561044757808201518184015260208101905061042c565b505050509050019250505060405180910390f35b6104bf600480360381019080803590602001908201803590602001908080601f016020809104026020016040519081016040528093929190818152602001838380828437820191505050505050919291929080359060200190929190505050611bb0565b005b3480156104cd57600080fd5b506104ec60048036038101908080359060200190929190505050611e10565b60405180806020018781526020018681526020018573ffffffffffffffffffffffffffffffffffffffff1673ffffffffffffffffffffffffffffffffffffffff16815260200184600481111561053e57fe5b60ff168152602001838152602001828103825288818151815260200191508051906020019080838360005b83811015610584578082015181840152602081019050610569565b50505050905090810190601f1680156105b15780820380516001836020036101000a031916815260200191505b5097505050505050505060405180910390f35b3480156105d057600080fd5b506105ef60048036038101908080359060200190929190505050611f20565b005b3480156105fd57600080fd5b50610632600480360381019080803573ffffffffffffffffffffffffffffffffffffffff16906020019092919050505061219a565b005b34801561064057600080fd5b50610675600480360381019080803573ffffffffffffffffffffffffffffffffffffffff169060200190929190505050612201565b005b6000600180549050905090565b813373ffffffffffffffffffffffffffffffffffffffff166001828154811015156106ab57fe5b906000526020600020906007020160030160009054906101000a900473ffffffffffffffffffffffffffffffffffffffff1673ffffffffffffffffffffffffffffffffffffffff16141515610768576040517f08c379a000000000000000000000000000000000000000000000000000000000815260040180806020018281038252601a8152602001807f596f7520646f6e2774206f776e207468697320626f756e74792100000000000081525060200191505060405180910390fd5b82600080600481111561077757fe5b60018381548110151561078657fe5b906000526020600020906007020160030160149054906101000a900460ff1660048111156107b057fe5b14151561084b576040517f08c379a00000000000000000000000000000000000000000000000000000000081526004018080602001828103825260278152602001807f46756e6374696f6e2063616e6e6f742062652063616c6c65642061742074686981526020017f732074696d652e0000000000000000000000000000000000000000000000000081525060400191505060405180910390fd5b60003414151561087b573460018681548110151561086557fe5b9060005260206000209060070201600201819055505b8360018681548110151561088b57fe5b906000526020600020906007020160000190805190602001906108af92919061236f565b505050505050565b60606001828154811015156108c857fe5b906000526020600020906007020160040180548060200260200160405190810160405280929190818152602001828054801561092357602002820191906000526020600020905b81548152602001906001019080831161090f575b50505050509050919050565b600060018281548110151561094057fe5b9060005260206000209060070201600401805490509050919050565b600081600060018281548110151561097057fe5b906000526020600020906007020190503373ffffffffffffffffffffffffffffffffffffffff168160050182600601548154811015156109ac57fe5b9060005260206000200160009054906101000a900473ffffffffffffffffffffffffffffffffffffffff1673ffffffffffffffffffffffffffffffffffffffff16141515610a62576040517f08c379a000000000000000000000000000000000000000000000000000000000815260040180806020018281038252601a8152602001807f596f75206469646e27742077696e2074686520626f756e74792100000000000081525060200191505060405180910390fd5b836001806004811115610a7157fe5b600183815481101515610a8057fe5b906000526020600020906007020160030160149054906101000a900460ff166004811115610aaa57fe5b141515610b45576040517f08c379a00000000000000000000000000000000000000000000000000000000081526004018080602001828103825260278152602001807f46756e6374696f6e2063616e6e6f742062652063616c6c65642061742074686981526020017f732074696d652e0000000000000000000000000000000000000000000000000081525060400191505060405180910390fd5b6002600187815481101515610b5657fe5b906000526020600020906007020160030160146101000a81548160ff02191690836004811115610b8257fe5b0217905550600186815481101515610b9657fe5b90600052602060002090600702016002015494506000600187815481101515610bbb57fe5b9060005260206000209060070201600201819055503373ffffffffffffffffffffffffffffffffffffffff166108fc869081150290604051600060405180830381858888f19350505050158015610c16573d6000803e3d6000fd5b507fbf59c0d059a57ebf273b4b1643599fc4b48cf5effdd82113a740ed64d262ec938633604051808381526020018273ffffffffffffffffffffffffffffffffffffffff1673ffffffffffffffffffffffffffffffffffffffff1681526020019250505060405180910390a1505050505050565b600082823373ffffffffffffffffffffffffffffffffffffffff16600183815481101515610cb457fe5b906000526020600020906007020160050182815481101515610cd257fe5b9060005260206000200160009054906101000a900473ffffffffffffffffffffffffffffffffffffffff1673ffffffffffffffffffffffffffffffffffffffff16141515610d88576040517f08c379a000000000000000000000000000000000000000000000000000000000815260040180806020018281038252601a8152602001807f596f7520646f6e2774206f776e207468697320616e737765722100000000000081525060200191505060405180910390fd5b846000806004811115610d9757fe5b600183815481101515610da657fe5b906000526020600020906007020160030160149054906101000a900460ff166004811115610dd057fe5b141515610e6b576040517f08c379a00000000000000000000000000000000000000000000000000000000081526004018080602001828103825260278152602001807f46756e6374696f6e2063616e6e6f742062652063616c6c65642061742074686981526020017f732074696d652e0000000000000000000000000000000000000000000000000081525060400191505060405180910390fd5b600187815481101515610e7a57fe5b90600052602060002090600702016004018054905094506001851115610fe157600187815481101515610ea957fe5b906000526020600020906007020160040160018603815481101515610eca57fe5b9060005260206000200154600188815481101515610ee457fe5b906000526020600020906007020160040187815481101515610f0257fe5b9060005260206000200181905550600187815481101515610f1f57fe5b906000526020600020906007020160050160018603815481101515610f4057fe5b9060005260206000200160009054906101000a900473ffffffffffffffffffffffffffffffffffffffff16600188815481101515610f7a57fe5b906000526020600020906007020160050187815481101515610f9857fe5b9060005260206000200160006101000a81548173ffffffffffffffffffffffffffffffffffffffff021916908373ffffffffffffffffffffffffffffffffffffffff1602179055505b600187815481101515610ff057fe5b906000526020600020906007020160040180548091906001900361101491906123ef565b5060018781548110151561102457fe5b9060005260206000209060070201600501805480919060019003611048919061241b565b5050505050505050565b81600080600481111561106157fe5b60018381548110151561107057fe5b906000526020600020906007020160030160149054906101000a900460ff16600481111561109a57fe5b141515611135576040517f08c379a00000000000000000000000000000000000000000000000000000000081526004018080602001828103825260278152602001807f46756e6374696f6e2063616e6e6f742062652063616c6c65642061742074686981526020017f732074696d652e0000000000000000000000000000000000000000000000000081525060400191505060405180910390fd5b60018481548110151561114457fe5b906000526020600020906007020160040183908060018154018082558091505090600182039060005260206000200160009091929091909150555060018481548110151561118e57fe5b90600052602060002090600702016005013390806001815401808255809150509060018203906000526020600020016000909192909190916101000a81548173ffffffffffffffffffffffffffffffffffffffff021916908373ffffffffffffffffffffffffffffffffffffffff160217905550507f9f11264fa3f8158956c16e654d1a0ea9cbfb86bc75a9262ed43c4b875d544fa3843385604051808481526020018373ffffffffffffffffffffffffffffffffffffffff1673ffffffffffffffffffffffffffffffffffffffff168152602001828152602001935050505060405180910390a150505050565b6000813373ffffffffffffffffffffffffffffffffffffffff166001828154811015156112a557fe5b906000526020600020906007020160030160009054906101000a900473ffffffffffffffffffffffffffffffffffffffff1673ffffffffffffffffffffffffffffffffffffffff16141515611362576040517f08c379a000000000000000000000000000000000000000000000000000000000815260040180806020018281038252601a8152602001807f596f7520646f6e2774206f776e207468697320626f756e74792100000000000081525060200191505060405180910390fd5b82600380600481111561137157fe5b60018381548110151561138057fe5b906000526020600020906007020160030160149054906101000a900460ff1660048111156113aa57fe5b141515611445576040517f08c379a00000000000000000000000000000000000000000000000000000000081526004018080602001828103825260278152602001807f46756e6374696f6e2063616e6e6f742062652063616c6c65642061742074686981526020017f732074696d652e0000000000000000000000000000000000000000000000000081525060400191505060405180910390fd5b600460018681548110151561145657fe5b906000526020600020906007020160030160146101000a81548160ff0219169083600481111561148257fe5b021790555060018581548110151561149657fe5b906000526020600020906007020160020154935060018080549050111561160c576001808080549050038154811015156114cc57fe5b90600052602060002090600702016001868154811015156114e957fe5b90600052602060002090600702016000820181600001908054600181600116156101000203166002900461151e929190612447565b5060018201548160010155600282015481600201556003820160009054906101000a900473ffffffffffffffffffffffffffffffffffffffff168160030160006101000a81548173ffffffffffffffffffffffffffffffffffffffff021916908373ffffffffffffffffffffffffffffffffffffffff1602179055506003820160149054906101000a900460ff168160030160146101000a81548160ff021916908360048111156115cb57fe5b021790555060048201816004019080546115e69291906124ce565b5060058201816005019080546115fd929190612520565b50600682015481600601559050505b60018054809190600190036116219190612572565b503373ffffffffffffffffffffffffffffffffffffffff166108fc859081150290604051600060405180830381858888f19350505050158015611668573d6000803e3d6000fd5b507fe0ee560939d01d137df63ad5710d4d454d2f771177fbfed12eb2328fd063a9aa8533604051808381526020018273ffffffffffffffffffffffffffffffffffffffff1673ffffffffffffffffffffffffffffffffffffffff1681526020019250505060405180910390a15050505050565b6000809054906101000a900473ffffffffffffffffffffffffffffffffffffffff1673ffffffffffffffffffffffffffffffffffffffff163373ffffffffffffffffffffffffffffffffffffffff1614151561173657600080fd5b6000809054906101000a900473ffffffffffffffffffffffffffffffffffffffff1673ffffffffffffffffffffffffffffffffffffffff167ff8df31144d9c2f0f6b59d69b8b98abd5459d07f2742c4df920b25aae33c6482060405160405180910390a260008060006101000a81548173ffffffffffffffffffffffffffffffffffffffff021916908373ffffffffffffffffffffffffffffffffffffffff160217905550565b813373ffffffffffffffffffffffffffffffffffffffff1660018281548110151561180457fe5b906000526020600020906007020160030160009054906101000a900473ffffffffffffffffffffffffffffffffffffffff1673ffffffffffffffffffffffffffffffffffffffff161415156118c1576040517f08c379a000000000000000000000000000000000000000000000000000000000815260040180806020018281038252601a8152602001807f596f7520646f6e2774206f776e207468697320626f756e74792100000000000081525060200191505060405180910390fd5b8260008060048111156118d057fe5b6001838154811015156118df57fe5b906000526020600020906007020160030160149054906101000a900460ff16600481111561190957fe5b1415156119a4576040517f08c379a00000000000000000000000000000000000000000000000000000000081526004018080602001828103825260278152602001807f46756e6374696f6e2063616e6e6f742062652063616c6c65642061742074686981526020017f732074696d652e0000000000000000000000000000000000000000000000000081525060400191505060405180910390fd5b600180868154811015156119b457fe5b906000526020600020906007020160030160146101000a81548160ff021916908360048111156119e057fe5b0217905550836001868154811015156119f557fe5b9060005260206000209060070201600601819055507fe23c11e55758e802697563b6797f5a7fd5d977c37d714e97f9ee381c5cfc0973856040518082815260200191505060405180910390a15050505050565b6000809054906101000a900473ffffffffffffffffffffffffffffffffffffffff1673ffffffffffffffffffffffffffffffffffffffff163373ffffffffffffffffffffffffffffffffffffffff16141515611aa357600080fd5b6000809054906101000a900473ffffffffffffffffffffffffffffffffffffffff1673ffffffffffffffffffffffffffffffffffffffff16ff5b6000809054906101000a900473ffffffffffffffffffffffffffffffffffffffff1681565b6060600182815481101515611b1357fe5b9060005260206000209060070201600501805480602002602001604051908101604052809291908181526020018280548015611ba457602002820191906000526020600020905b8160009054906101000a900473ffffffffffffffffffffffffffffffffffffffff1673ffffffffffffffffffffffffffffffffffffffff1681526020019060010190808311611b5a575b50505050509050919050565b600034111515611bbf57600080fd5b6001610100604051908101604052808481526020018381526020013481526020013373ffffffffffffffffffffffffffffffffffffffff16815260200160006004811115611c0957fe5b81526020016000604051908082528060200260200182016040528015611c3e5781602001602082028038833980820191505090505b5081526020016000604051908082528060200260200182016040528015611c745781602001602082028038833980820191505090505b5081526020016000815250908060018154018082558091505090600182039060005260206000209060070201600090919290919091506000820151816000019080519060200190611cc69291906125a4565b50602082015181600101556040820151816002015560608201518160030160006101000a81548173ffffffffffffffffffffffffffffffffffffffff021916908373ffffffffffffffffffffffffffffffffffffffff16021790555060808201518160030160146101000a81548160ff02191690836004811115611d4657fe5b021790555060a0820151816004019080519060200190611d67929190612624565b5060c0820151816005019080519060200190611d84929190612671565b5060e082015181600601555050507f8f00e5a5943b910d221f64e9ee013988885da9127ec8be785a522c00f551729f60018080549050033383604051808481526020018373ffffffffffffffffffffffffffffffffffffffff1673ffffffffffffffffffffffffffffffffffffffff168152602001828152602001935050505060405180910390a15050565b600181815481101515611e1f57fe5b9060005260206000209060070201600091509050806000018054600181600116156101000203166002900480601f016020809104026020016040519081016040528092919081815260200182805460018160011615610100020316600290048015611ecb5780601f10611ea057610100808354040283529160200191611ecb565b820191906000526020600020905b815481529060010190602001808311611eae57829003601f168201915b5050505050908060010154908060020154908060030160009054906101000a900473ffffffffffffffffffffffffffffffffffffffff16908060030160149054906101000a900460ff16908060060154905086565b803373ffffffffffffffffffffffffffffffffffffffff16600182815481101515611f4757fe5b906000526020600020906007020160030160009054906101000a900473ffffffffffffffffffffffffffffffffffffffff1673ffffffffffffffffffffffffffffffffffffffff16141515612004576040517f08c379a000000000000000000000000000000000000000000000000000000000815260040180806020018281038252601a8152602001807f596f7520646f6e2774206f776e207468697320626f756e74792100000000000081525060200191505060405180910390fd5b81600080600481111561201357fe5b60018381548110151561202257fe5b906000526020600020906007020160030160149054906101000a900460ff16600481111561204c57fe5b1415156120e7576040517f08c379a00000000000000000000000000000000000000000000000000000000081526004018080602001828103825260278152602001807f46756e6374696f6e2063616e6e6f742062652063616c6c65642061742074686981526020017f732074696d652e0000000000000000000000000000000000000000000000000081525060400191505060405180910390fd5b60036001858154811015156120f857fe5b906000526020600020906007020160030160146101000a81548160ff0219169083600481111561212457fe5b02179055507fbe34663bc2803ca9be398afdbd7e0bd537378360b743b76b170e3421fbe384508433604051808381526020018273ffffffffffffffffffffffffffffffffffffffff1673ffffffffffffffffffffffffffffffffffffffff1681526020019250505060405180910390a150505050565b6000809054906101000a900473ffffffffffffffffffffffffffffffffffffffff1673ffffffffffffffffffffffffffffffffffffffff163373ffffffffffffffffffffffffffffffffffffffff161415156121f557600080fd5b6121fe81612275565b50565b6000809054906101000a900473ffffffffffffffffffffffffffffffffffffffff1673ffffffffffffffffffffffffffffffffffffffff163373ffffffffffffffffffffffffffffffffffffffff1614151561225c57600080fd5b8073ffffffffffffffffffffffffffffffffffffffff16ff5b600073ffffffffffffffffffffffffffffffffffffffff168173ffffffffffffffffffffffffffffffffffffffff16141515156122b157600080fd5b8073ffffffffffffffffffffffffffffffffffffffff166000809054906101000a900473ffffffffffffffffffffffffffffffffffffffff1673ffffffffffffffffffffffffffffffffffffffff167f8be0079c531659141344cd1fd0a4f28419497f9722a3daafe3b4186f6b6457e060405160405180910390a3806000806101000a81548173ffffffffffffffffffffffffffffffffffffffff021916908373ffffffffffffffffffffffffffffffffffffffff16021790555050565b828054600181600116156101000203166002900490600052602060002090601f016020900481019282601f106123b057805160ff19168380011785556123de565b828001600101855582156123de579182015b828111156123dd5782518255916020019190600101906123c2565b5b5090506123eb91906126fb565b5090565b8154818355818111156124165781836000526020600020918201910161241591906126fb565b5b505050565b8154818355818111156124425781836000526020600020918201910161244191906126fb565b5b505050565b828054600181600116156101000203166002900490600052602060002090601f016020900481019282601f1061248057805485556124bd565b828001600101855582156124bd57600052602060002091601f016020900482015b828111156124bc5782548255916001019190600101906124a1565b5b5090506124ca91906126fb565b5090565b82805482825590600052602060002090810192821561250f5760005260206000209182015b8281111561250e5782548255916001019190600101906124f3565b5b50905061251c91906126fb565b5090565b8280548282559060005260206000209081019282156125615760005260206000209182015b82811115612560578254825591600101919060010190612545565b5b50905061256e9190612720565b5090565b81548183558181111561259f5760070281600702836000526020600020918201910161259e9190612763565b5b505050565b828054600181600116156101000203166002900490600052602060002090601f016020900481019282601f106125e557805160ff1916838001178555612613565b82800160010185558215612613579182015b828111156126125782518255916020019190600101906125f7565b5b50905061262091906126fb565b5090565b828054828255906000526020600020908101928215612660579160200282015b8281111561265f578251825591602001919060010190612644565b5b50905061266d91906126fb565b5090565b8280548282559060005260206000209081019282156126ea579160200282015b828111156126e95782518260006101000a81548173ffffffffffffffffffffffffffffffffffffffff021916908373ffffffffffffffffffffffffffffffffffffffff16021790555091602001919060010190612691565b5b5090506126f79190612720565b5090565b61271d91905b80821115612719576000816000905550600101612701565b5090565b90565b61276091905b8082111561275c57600081816101000a81549073ffffffffffffffffffffffffffffffffffffffff021916905550600101612726565b5090565b90565b61280291905b808211156127fe57600080820160006127829190612805565b600182016000905560028201600090556003820160006101000a81549073ffffffffffffffffffffffffffffffffffffffff02191690556003820160146101000a81549060ff02191690556004820160006127dd919061284d565b6005820160006127ed919061286e565b600682016000905550600701612769565b5090565b90565b50805460018160011615610100020316600290046000825580601f1061282b575061284a565b601f01602090049060005260206000209081019061284991906126fb565b5b50565b508054600082559060005260206000209081019061286b91906126fb565b50565b508054600082559060005260206000209081019061288c91906126fb565b505600a165627a7a72305820b6405ede79a8f880082ab0de99430147e0a2081d6678dd2067cecba48da939e80029",
  "source": "pragma solidity ^0.4.24;\n\nimport 'openzeppelin-solidity/contracts/ownership/Ownable.sol';\nimport 'openzeppelin-solidity/contracts/lifecycle/Destructible.sol';\nimport 'openzeppelin-solidity/contracts/math/SafeMath.sol';\n\ncontract SEBounty is Destructible {\n    using SafeMath for uint256;\n\n    event BountyOpened(uint bountyIndex, address bountyOwner, uint questionId);\n    event BountyAwarded(uint bountyIndex);\n    event BountyClaimed(uint bountyIndex, address answerOwner);\n    event BountyCancelled(uint bountyIndex, address bountyOwner);\n    event BountyWithdrawn(uint bountyIndex, address bountyOwner);\n    event AnswerPosted(uint bountyIndex, address answerOwner, uint answerId);\n\n    enum Stages {\n        Opened,\n        Awarded,\n        Claimed,\n        Cancelled,\n        Withdrawn\n    }\n\n    struct Bounty {\n        string description;\n        uint questionId;\n        uint bountyValue;\n        address bountyOwner;\n        Stages stage;\n        uint[] answers;\n        address[] answerOwners;\n        uint acceptedAnswer;\n    }\n\n    Bounty[] public bounties;\n\n    modifier isBountyOwner(uint _bountyIndex) {\n        require(\n            bounties[_bountyIndex].bountyOwner == msg.sender,\n            \"You don't own this bounty!\"\n        );\n        _;\n    }\n\n    modifier isAnswerOwner(uint _bountyIndex, uint _answerIndex) {\n        require(\n            bounties[_bountyIndex].answerOwners[_answerIndex] == msg.sender,\n            \"You don't own this answer!\"\n        );\n        _;\n    }\n\n    modifier isAcceptedAnswerOwner(uint _bountyIndex) {\n        Bounty storage bountyRef = bounties[_bountyIndex];\n        require(\n            bountyRef.answerOwners[bountyRef.acceptedAnswer] == msg.sender,\n            \"You didn't win the bounty!\"\n        );\n        _;\n    }\n\n    modifier atStage(uint _bountyIndex, Stages _stage) {\n        require(\n            bounties[_bountyIndex].stage == _stage,\n            \"Function cannot be called at this time.\"\n        );\n        _;\n    }\n\n    constructor() public {\n        owner = msg.sender;\n    }\n\n    // Bounty functions.\n    function createBounty(\n        string _description,\n        uint _questionId)\n        public\n        payable\n    {\n        // They must send the amount of ETH with their creation request.\n        // This must be greater than nothing...\n        require(msg.value > 0);\n\n        // Create the bounty and add it to the public array of bounties.\n        bounties.push(Bounty({\n            description: _description,\n            questionId: _questionId,\n            bountyValue: msg.value,\n            bountyOwner: msg.sender,\n            stage: Stages.Opened,\n            answers: new uint[](0),\n            answerOwners: new address[](0),\n            acceptedAnswer: 0\n        }));\n\n        emit BountyOpened(bounties.length - 1, msg.sender, _questionId);\n    }\n\n    function editBounty(\n        uint _bountyIndex,\n        string _description)\n        public\n        payable\n        isBountyOwner(_bountyIndex)\n        atStage(_bountyIndex, Stages.Opened)\n    {\n        if (msg.value != 0) {\n            bounties[_bountyIndex].bountyValue = msg.value;\n        }\n\n        bounties[_bountyIndex].description = _description;\n    }\n\n\n    function awardBounty(uint _bountyIndex, uint _answerIndex)\n        public\n        isBountyOwner(_bountyIndex)\n        atStage(_bountyIndex, Stages.Opened)\n    {\n        bounties[_bountyIndex].stage = Stages.Awarded;\n        bounties[_bountyIndex].acceptedAnswer = _answerIndex;\n\n        emit BountyAwarded(_bountyIndex);\n    }\n\n\n    function claimBounty(uint _bountyIndex)\n        public\n        isAcceptedAnswerOwner(_bountyIndex)\n        atStage(_bountyIndex, Stages.Awarded)\n    {\n        // Use the state machine to protect against reentrancy.\n        bounties[_bountyIndex].stage = Stages.Claimed;\n        uint bounty = bounties[_bountyIndex].bountyValue;\n        bounties[_bountyIndex].bountyValue = 0;\n        msg.sender.transfer(bounty);\n\n        emit BountyClaimed(_bountyIndex, msg.sender);\n    }\n\n\n    function cancelBounty(uint _bountyIndex)\n        public\n        isBountyOwner(_bountyIndex)\n        atStage(_bountyIndex, Stages.Opened)\n    {\n        bounties[_bountyIndex].stage = Stages.Cancelled;\n\n        emit BountyCancelled(_bountyIndex, msg.sender);\n    }\n\n\n    function withdrawBounty(uint _bountyIndex)\n        public\n        isBountyOwner(_bountyIndex)\n        atStage(_bountyIndex, Stages.Cancelled)\n    {\n        // Use the state machine to protect against reentrancy.\n        bounties[_bountyIndex].stage = Stages.Withdrawn;\n        uint bounty = bounties[_bountyIndex].bountyValue;\n\n        // Don't explicitly delete. Let the compiler clean things up.\n        if (bounties.length > 1) {\n            bounties[_bountyIndex] = bounties[bounties.length - 1];\n        }\n        bounties.length--;\n\n        msg.sender.transfer(bounty);\n\n        emit BountyWithdrawn(_bountyIndex, msg.sender);\n    }\n\n    function getBountyCount()\n        public\n        view\n        returns (uint)\n    {\n        return bounties.length;\n    }\n\n\n    // Answer functions.\n    function postAnswer(uint _bountyIndex, uint _answerId)\n        public\n        atStage(_bountyIndex, Stages.Opened)\n    {\n        bounties[_bountyIndex].answers.push(_answerId);\n        bounties[_bountyIndex].answerOwners.push(msg.sender);\n\n        emit AnswerPosted(_bountyIndex, msg.sender, _answerId);\n    }\n\n    function cancelAnswer(uint _bountyIndex, uint _answerIndex)\n        public\n        isAnswerOwner(_bountyIndex, _answerIndex)\n        atStage(_bountyIndex, Stages.Opened)\n    {\n        uint len = bounties[_bountyIndex].answers.length;\n\n        if (len > 1) {\n            bounties[_bountyIndex].answers[_answerIndex] =\n                bounties[_bountyIndex].answers[len - 1];\n            bounties[_bountyIndex].answerOwners[_answerIndex] =\n                bounties[_bountyIndex].answerOwners[len - 1];\n        }\n        bounties[_bountyIndex].answers.length--;\n        bounties[_bountyIndex].answerOwners.length--;\n    }\n\n    function getAnswers(uint _bountyIndex)\n        public\n        view\n        returns (uint [])\n    {\n        return bounties[_bountyIndex].answers;\n    }\n\n    function getAnswerOwners(uint _bountyIndex)\n        public\n        view\n        returns (address [])\n    {\n        return bounties[_bountyIndex].answerOwners;\n    }\n\n    function getAnswerCount(uint _bountyIndex)\n        public\n        view\n        returns (uint)\n    {\n        return bounties[_bountyIndex].answers.length;\n    }\n}\n",
  "sourcePath": "/home/richard/Projects/ethereum-projects/ethereum-se-bounty/contracts/SEBounty.sol",
  "compiler": {
    "name": "solc",
    "version": "0.4.24+commit.e67f0147.Emscripten.clang"
  },
  "schemaVersion": "2.0.0",
  "updatedAt": "2018-07-21T11:25:05.867Z"
}