{
  "contractName": "SEBounty",
  "abi": [
    {
      "constant": true,
      "inputs": [
        {
          "name": "",
          "type": "address"
        }
      ],
      "name": "answerCount",
      "outputs": [
        {
          "name": "",
          "type": "uint256"
        }
      ],
      "payable": false,
      "stateMutability": "view",
      "type": "function"
    },
    {
      "constant": false,
      "inputs": [],
      "name": "renounceOwnership",
      "outputs": [],
      "payable": false,
      "stateMutability": "nonpayable",
      "type": "function"
    },
    {
      "constant": true,
      "inputs": [
        {
          "name": "",
          "type": "address"
        }
      ],
      "name": "awardedTotal",
      "outputs": [
        {
          "name": "",
          "type": "uint256"
        }
      ],
      "payable": false,
      "stateMutability": "view",
      "type": "function"
    },
    {
      "constant": false,
      "inputs": [],
      "name": "destroy",
      "outputs": [],
      "payable": false,
      "stateMutability": "nonpayable",
      "type": "function"
    },
    {
      "constant": true,
      "inputs": [
        {
          "name": "",
          "type": "address"
        }
      ],
      "name": "acceptedCount",
      "outputs": [
        {
          "name": "",
          "type": "uint256"
        }
      ],
      "payable": false,
      "stateMutability": "view",
      "type": "function"
    },
    {
      "constant": true,
      "inputs": [],
      "name": "owner",
      "outputs": [
        {
          "name": "",
          "type": "address"
        }
      ],
      "payable": false,
      "stateMutability": "view",
      "type": "function"
    },
    {
      "constant": true,
      "inputs": [
        {
          "name": "",
          "type": "address"
        }
      ],
      "name": "wonTotal",
      "outputs": [
        {
          "name": "",
          "type": "uint256"
        }
      ],
      "payable": false,
      "stateMutability": "view",
      "type": "function"
    },
    {
      "constant": true,
      "inputs": [
        {
          "name": "",
          "type": "uint256"
        }
      ],
      "name": "bounties",
      "outputs": [
        {
          "name": "description",
          "type": "string"
        },
        {
          "name": "questionId",
          "type": "uint256"
        },
        {
          "name": "bountyValue",
          "type": "uint256"
        },
        {
          "name": "bountyOwner",
          "type": "address"
        },
        {
          "name": "stage",
          "type": "uint8"
        },
        {
          "name": "acceptedAnswer",
          "type": "uint256"
        }
      ],
      "payable": false,
      "stateMutability": "view",
      "type": "function"
    },
    {
      "constant": false,
      "inputs": [
        {
          "name": "_newOwner",
          "type": "address"
        }
      ],
      "name": "transferOwnership",
      "outputs": [],
      "payable": false,
      "stateMutability": "nonpayable",
      "type": "function"
    },
    {
      "constant": false,
      "inputs": [
        {
          "name": "_recipient",
          "type": "address"
        }
      ],
      "name": "destroyAndSend",
      "outputs": [],
      "payable": false,
      "stateMutability": "nonpayable",
      "type": "function"
    },
    {
      "constant": true,
      "inputs": [
        {
          "name": "",
          "type": "address"
        }
      ],
      "name": "bountyCount",
      "outputs": [
        {
          "name": "",
          "type": "uint256"
        }
      ],
      "payable": false,
      "stateMutability": "view",
      "type": "function"
    },
    {
      "inputs": [],
      "payable": false,
      "stateMutability": "nonpayable",
      "type": "constructor"
    },
    {
      "anonymous": false,
      "inputs": [
        {
          "indexed": false,
          "name": "bountyIndex",
          "type": "uint256"
        },
        {
          "indexed": false,
          "name": "bountyOwner",
          "type": "address"
        },
        {
          "indexed": false,
          "name": "questionId",
          "type": "uint256"
        }
      ],
      "name": "BountyOpened",
      "type": "event"
    },
    {
      "anonymous": false,
      "inputs": [
        {
          "indexed": false,
          "name": "bountyIndex",
          "type": "uint256"
        }
      ],
      "name": "BountyAwarded",
      "type": "event"
    },
    {
      "anonymous": false,
      "inputs": [
        {
          "indexed": false,
          "name": "bountyIndex",
          "type": "uint256"
        },
        {
          "indexed": false,
          "name": "answerOwner",
          "type": "address"
        }
      ],
      "name": "BountyClaimed",
      "type": "event"
    },
    {
      "anonymous": false,
      "inputs": [
        {
          "indexed": false,
          "name": "bountyIndex",
          "type": "uint256"
        },
        {
          "indexed": false,
          "name": "bountyOwner",
          "type": "address"
        }
      ],
      "name": "BountyCancelled",
      "type": "event"
    },
    {
      "anonymous": false,
      "inputs": [
        {
          "indexed": false,
          "name": "bountyIndex",
          "type": "uint256"
        },
        {
          "indexed": false,
          "name": "bountyOwner",
          "type": "address"
        }
      ],
      "name": "BountyWithdrawn",
      "type": "event"
    },
    {
      "anonymous": false,
      "inputs": [
        {
          "indexed": false,
          "name": "bountyIndex",
          "type": "uint256"
        },
        {
          "indexed": false,
          "name": "answerOwner",
          "type": "address"
        },
        {
          "indexed": false,
          "name": "answerId",
          "type": "uint256"
        }
      ],
      "name": "AnswerPosted",
      "type": "event"
    },
    {
      "anonymous": false,
      "inputs": [
        {
          "indexed": true,
          "name": "previousOwner",
          "type": "address"
        }
      ],
      "name": "OwnershipRenounced",
      "type": "event"
    },
    {
      "anonymous": false,
      "inputs": [
        {
          "indexed": true,
          "name": "previousOwner",
          "type": "address"
        },
        {
          "indexed": true,
          "name": "newOwner",
          "type": "address"
        }
      ],
      "name": "OwnershipTransferred",
      "type": "event"
    },
    {
      "constant": false,
      "inputs": [
        {
          "name": "_description",
          "type": "string"
        },
        {
          "name": "_questionId",
          "type": "uint256"
        }
      ],
      "name": "createBounty",
      "outputs": [],
      "payable": true,
      "stateMutability": "payable",
      "type": "function"
    },
    {
      "constant": false,
      "inputs": [
        {
          "name": "_bountyIndex",
          "type": "uint256"
        },
        {
          "name": "_description",
          "type": "string"
        }
      ],
      "name": "editBounty",
      "outputs": [],
      "payable": true,
      "stateMutability": "payable",
      "type": "function"
    },
    {
      "constant": false,
      "inputs": [
        {
          "name": "_bountyIndex",
          "type": "uint256"
        },
        {
          "name": "_answerIndex",
          "type": "uint256"
        }
      ],
      "name": "awardBounty",
      "outputs": [],
      "payable": false,
      "stateMutability": "nonpayable",
      "type": "function"
    },
    {
      "constant": false,
      "inputs": [
        {
          "name": "_bountyIndex",
          "type": "uint256"
        }
      ],
      "name": "claimBounty",
      "outputs": [],
      "payable": false,
      "stateMutability": "nonpayable",
      "type": "function"
    },
    {
      "constant": false,
      "inputs": [
        {
          "name": "_bountyIndex",
          "type": "uint256"
        }
      ],
      "name": "cancelBounty",
      "outputs": [],
      "payable": false,
      "stateMutability": "nonpayable",
      "type": "function"
    },
    {
      "constant": false,
      "inputs": [
        {
          "name": "_bountyIndex",
          "type": "uint256"
        }
      ],
      "name": "withdrawBounty",
      "outputs": [],
      "payable": false,
      "stateMutability": "nonpayable",
      "type": "function"
    },
    {
      "constant": true,
      "inputs": [],
      "name": "getBountyCount",
      "outputs": [
        {
          "name": "",
          "type": "uint256"
        }
      ],
      "payable": false,
      "stateMutability": "view",
      "type": "function"
    },
    {
      "constant": false,
      "inputs": [
        {
          "name": "_bountyIndex",
          "type": "uint256"
        },
        {
          "name": "_answerId",
          "type": "uint256"
        }
      ],
      "name": "postAnswer",
      "outputs": [],
      "payable": false,
      "stateMutability": "nonpayable",
      "type": "function"
    },
    {
      "constant": false,
      "inputs": [
        {
          "name": "_bountyIndex",
          "type": "uint256"
        },
        {
          "name": "_answerIndex",
          "type": "uint256"
        }
      ],
      "name": "cancelAnswer",
      "outputs": [],
      "payable": false,
      "stateMutability": "nonpayable",
      "type": "function"
    },
    {
      "constant": true,
      "inputs": [
        {
          "name": "_bountyIndex",
          "type": "uint256"
        }
      ],
      "name": "getAnswers",
      "outputs": [
        {
          "name": "",
          "type": "uint256[]"
        }
      ],
      "payable": false,
      "stateMutability": "view",
      "type": "function"
    },
    {
      "constant": true,
      "inputs": [
        {
          "name": "_bountyIndex",
          "type": "uint256"
        }
      ],
      "name": "getAnswerOwners",
      "outputs": [
        {
          "name": "",
          "type": "address[]"
        }
      ],
      "payable": false,
      "stateMutability": "view",
      "type": "function"
    },
    {
      "constant": true,
      "inputs": [
        {
          "name": "_bountyIndex",
          "type": "uint256"
        }
      ],
      "name": "getAnswerCount",
      "outputs": [
        {
          "name": "",
          "type": "uint256"
        }
      ],
      "payable": false,
      "stateMutability": "view",
      "type": "function"
    }
  ],
  "bytecode": "0x608060405234801561001057600080fd5b50336000806101000a81548173ffffffffffffffffffffffffffffffffffffffff021916908373ffffffffffffffffffffffffffffffffffffffff160217905550336000806101000a81548173ffffffffffffffffffffffffffffffffffffffff021916908373ffffffffffffffffffffffffffffffffffffffff160217905550612f93806100a06000396000f300608060405260043610610133576000357c0100000000000000000000000000000000000000000000000000000000900463ffffffff16806306641f7e146101385780630d12822e146101635780631e59e02a146101c9578063265981d61461024b5780633c842c13146102a257806344021ad7146102e3578063500ac8cc146103105780635601bbe1146103475780635a8e77a51461037e578063715018a6146103ab57806371a569e6146103c25780637b6d25df146103f957806383197ef0146104505780638d768f84146104675780638da5cb5b146104be578063a377ee2214610515578063b83a3bc114610597578063ce3df026146105fd578063dc2f874414610654578063e5e5dff114610757578063f2fde38b14610784578063f5074f41146107c7578063ff1fabc81461080a575b600080fd5b34801561014457600080fd5b5061014d610861565b6040518082815260200191505060405180910390f35b6101c760048036038101908080359060200190929190803590602001908201803590602001908080601f016020809104026020016040519081016040528093929190818152602001838380828437820191505050505050919291929050505061086e565b005b3480156101d557600080fd5b506101f460048036038101908080359060200190929190505050610aa1565b6040518080602001828103825283818151815260200191508051906020019060200280838360005b8381101561023757808201518184015260208101905061021c565b505050509050019250505060405180910390f35b34801561025757600080fd5b5061028c600480360381019080803573ffffffffffffffffffffffffffffffffffffffff169060200190929190505050610b19565b6040518082815260200191505060405180910390f35b3480156102ae57600080fd5b506102cd60048036038101908080359060200190929190505050610b31565b6040518082815260200191505060405180910390f35b3480156102ef57600080fd5b5061030e60048036038101908080359060200190929190505050610b5e565b005b34801561031c57600080fd5b506103456004803603810190808035906020019092919080359060200190929190505050610e8c565b005b34801561035357600080fd5b5061037c600480360381019080803590602001909291908035906020019092919050505061131a565b005b34801561038a57600080fd5b506103a96004803603810190808035906020019092919050505061167f565b005b3480156103b757600080fd5b506103c0611b2e565b005b3480156103ce57600080fd5b506103f76004803603810190808035906020019092919080359060200190929190505050611c30565b005b34801561040557600080fd5b5061043a600480360381019080803573ffffffffffffffffffffffffffffffffffffffff169060200190929190505050612021565b6040518082815260200191505060405180910390f35b34801561045c57600080fd5b50610465612039565b005b34801561047357600080fd5b506104a8600480360381019080803573ffffffffffffffffffffffffffffffffffffffff1690602001909291905050506120ce565b6040518082815260200191505060405180910390f35b3480156104ca57600080fd5b506104d36120e6565b604051808273ffffffffffffffffffffffffffffffffffffffff1673ffffffffffffffffffffffffffffffffffffffff16815260200191505060405180910390f35b34801561052157600080fd5b506105406004803603810190808035906020019092919050505061210b565b6040518080602001828103825283818151815260200191508051906020019060200280838360005b83811015610583578082015181840152602081019050610568565b505050509050019250505060405180910390f35b6105fb600480360381019080803590602001908201803590602001908080601f0160208091040260200160405190810160405280939291908181526020018383808284378201915050505050509192919290803590602001909291905050506121b9565b005b34801561060957600080fd5b5061063e600480360381019080803573ffffffffffffffffffffffffffffffffffffffff169060200190929190505050612468565b6040518082815260200191505060405180910390f35b34801561066057600080fd5b5061067f60048036038101908080359060200190929190505050612480565b60405180806020018781526020018681526020018573ffffffffffffffffffffffffffffffffffffffff1673ffffffffffffffffffffffffffffffffffffffff1681526020018460048111156106d157fe5b60ff168152602001838152602001828103825288818151815260200191508051906020019080838360005b838110156107175780820151818401526020810190506106fc565b50505050905090810190601f1680156107445780820380516001836020036101000a031916815260200191505b5097505050505050505060405180910390f35b34801561076357600080fd5b5061078260048036038101908080359060200190929190505050612590565b005b34801561079057600080fd5b506107c5600480360381019080803573ffffffffffffffffffffffffffffffffffffffff16906020019092919050505061285a565b005b3480156107d357600080fd5b50610808600480360381019080803573ffffffffffffffffffffffffffffffffffffffff1690602001909291905050506128c1565b005b34801561081657600080fd5b5061084b600480360381019080803573ffffffffffffffffffffffffffffffffffffffff169060200190929190505050612935565b6040518082815260200191505060405180910390f35b6000600180549050905090565b813373ffffffffffffffffffffffffffffffffffffffff1660018281548110151561089557fe5b906000526020600020906008020160030160009054906101000a900473ffffffffffffffffffffffffffffffffffffffff1673ffffffffffffffffffffffffffffffffffffffff16141515610952576040517f08c379a000000000000000000000000000000000000000000000000000000000815260040180806020018281038252601a8152602001807f596f7520646f6e2774206f776e207468697320626f756e74792100000000000081525060200191505060405180910390fd5b82600080600481111561096157fe5b60018381548110151561097057fe5b906000526020600020906008020160030160149054906101000a900460ff16600481111561099a57fe5b141515610a35576040517f08c379a00000000000000000000000000000000000000000000000000000000081526004018080602001828103825260278152602001807f46756e6374696f6e2063616e6e6f742062652063616c6c65642061742074686981526020017f732074696d652e0000000000000000000000000000000000000000000000000081525060400191505060405180910390fd5b600034141515610a655734600186815481101515610a4f57fe5b9060005260206000209060080201600201819055505b83600186815481101515610a7557fe5b90600052602060002090600802016000019080519060200190610a99929190612a47565b505050505050565b6060600182815481101515610ab257fe5b9060005260206000209060080201600401805480602002602001604051908101604052809291908181526020018280548015610b0d57602002820191906000526020600020905b815481526020019060010190808311610af9575b50505050509050919050565b60046020528060005260406000206000915090505481565b6000600182815481101515610b4257fe5b9060005260206000209060080201600401805490509050919050565b6000816000600182815481101515610b7257fe5b906000526020600020906008020190503373ffffffffffffffffffffffffffffffffffffffff16816006018260050154815481101515610bae57fe5b9060005260206000200160009054906101000a900473ffffffffffffffffffffffffffffffffffffffff1673ffffffffffffffffffffffffffffffffffffffff16141515610c64576040517f08c379a000000000000000000000000000000000000000000000000000000000815260040180806020018281038252601a8152602001807f596f75206469646e27742077696e2074686520626f756e74792100000000000081525060200191505060405180910390fd5b836001806004811115610c7357fe5b600183815481101515610c8257fe5b906000526020600020906008020160030160149054906101000a900460ff166004811115610cac57fe5b141515610d47576040517f08c379a00000000000000000000000000000000000000000000000000000000081526004018080602001828103825260278152602001807f46756e6374696f6e2063616e6e6f742062652063616c6c65642061742074686981526020017f732074696d652e0000000000000000000000000000000000000000000000000081525060400191505060405180910390fd5b6002600187815481101515610d5857fe5b906000526020600020906008020160030160146101000a81548160ff02191690836004811115610d8457fe5b0217905550600186815481101515610d9857fe5b90600052602060002090600802016002015494506000600187815481101515610dbd57fe5b9060005260206000209060080201600201819055503373ffffffffffffffffffffffffffffffffffffffff166108fc869081150290604051600060405180830381858888f19350505050158015610e18573d6000803e3d6000fd5b507fbf59c0d059a57ebf273b4b1643599fc4b48cf5effdd82113a740ed64d262ec938633604051808381526020018273ffffffffffffffffffffffffffffffffffffffff1673ffffffffffffffffffffffffffffffffffffffff1681526020019250505060405180910390a1505050505050565b600082823373ffffffffffffffffffffffffffffffffffffffff16600183815481101515610eb657fe5b906000526020600020906008020160060182815481101515610ed457fe5b9060005260206000200160009054906101000a900473ffffffffffffffffffffffffffffffffffffffff1673ffffffffffffffffffffffffffffffffffffffff16141515610f8a576040517f08c379a000000000000000000000000000000000000000000000000000000000815260040180806020018281038252601a8152602001807f596f7520646f6e2774206f776e207468697320616e737765722100000000000081525060200191505060405180910390fd5b846000806004811115610f9957fe5b600183815481101515610fa857fe5b906000526020600020906008020160030160149054906101000a900460ff166004811115610fd257fe5b14151561106d576040517f08c379a00000000000000000000000000000000000000000000000000000000081526004018080602001828103825260278152602001807f46756e6374696f6e2063616e6e6f742062652063616c6c65642061742074686981526020017f732074696d652e0000000000000000000000000000000000000000000000000081525060400191505060405180910390fd5b60018781548110151561107c57fe5b906000526020600020906008020160040180549050945060018511156111e3576001878154811015156110ab57fe5b9060005260206000209060080201600401600186038154811015156110cc57fe5b90600052602060002001546001888154811015156110e657fe5b90600052602060002090600802016004018781548110151561110457fe5b906000526020600020018190555060018781548110151561112157fe5b90600052602060002090600802016006016001860381548110151561114257fe5b9060005260206000200160009054906101000a900473ffffffffffffffffffffffffffffffffffffffff1660018881548110151561117c57fe5b90600052602060002090600802016006018781548110151561119a57fe5b9060005260206000200160006101000a81548173ffffffffffffffffffffffffffffffffffffffff021916908373ffffffffffffffffffffffffffffffffffffffff1602179055505b6001878154811015156111f257fe5b90600052602060002090600802016004018054809190600190036112169190612ac7565b5060018781548110151561122657fe5b906000526020600020906008020160060180548091906001900361124a9190612af3565b50600460003373ffffffffffffffffffffffffffffffffffffffff1673ffffffffffffffffffffffffffffffffffffffff168152602001908152602001600020600081548092919060019003919050555060006001888154811015156112ac57fe5b906000526020600020906008020160070160003373ffffffffffffffffffffffffffffffffffffffff1673ffffffffffffffffffffffffffffffffffffffff16815260200190815260200160002060006101000a81548160ff02191690831515021790555050505050505050565b81600080600481111561132957fe5b60018381548110151561133857fe5b906000526020600020906008020160030160149054906101000a900460ff16600481111561136257fe5b1415156113fd576040517f08c379a00000000000000000000000000000000000000000000000000000000081526004018080602001828103825260278152602001807f46756e6374696f6e2063616e6e6f742062652063616c6c65642061742074686981526020017f732074696d652e0000000000000000000000000000000000000000000000000081525060400191505060405180910390fd5b60018481548110151561140c57fe5b906000526020600020906008020160070160003373ffffffffffffffffffffffffffffffffffffffff1673ffffffffffffffffffffffffffffffffffffffff16815260200190815260200160002060009054906101000a900460ff1615151561147457600080fd5b60018481548110151561148357fe5b90600052602060002090600802016004018390806001815401808255809150509060018203906000526020600020016000909192909190915055506001848154811015156114cd57fe5b90600052602060002090600802016006013390806001815401808255809150509060018203906000526020600020016000909192909190916101000a81548173ffffffffffffffffffffffffffffffffffffffff021916908373ffffffffffffffffffffffffffffffffffffffff16021790555050600460003373ffffffffffffffffffffffffffffffffffffffff1673ffffffffffffffffffffffffffffffffffffffff16815260200190815260200160002060008154809291906001019190505550600180858154811015156115a157fe5b906000526020600020906008020160070160003373ffffffffffffffffffffffffffffffffffffffff1673ffffffffffffffffffffffffffffffffffffffff16815260200190815260200160002060006101000a81548160ff0219169083151502179055507f9f11264fa3f8158956c16e654d1a0ea9cbfb86bc75a9262ed43c4b875d544fa3843385604051808481526020018373ffffffffffffffffffffffffffffffffffffffff1673ffffffffffffffffffffffffffffffffffffffff168152602001828152602001935050505060405180910390a150505050565b6000813373ffffffffffffffffffffffffffffffffffffffff166001828154811015156116a857fe5b906000526020600020906008020160030160009054906101000a900473ffffffffffffffffffffffffffffffffffffffff1673ffffffffffffffffffffffffffffffffffffffff16141515611765576040517f08c379a000000000000000000000000000000000000000000000000000000000815260040180806020018281038252601a8152602001807f596f7520646f6e2774206f776e207468697320626f756e74792100000000000081525060200191505060405180910390fd5b82600380600481111561177457fe5b60018381548110151561178357fe5b906000526020600020906008020160030160149054906101000a900460ff1660048111156117ad57fe5b141515611848576040517f08c379a00000000000000000000000000000000000000000000000000000000081526004018080602001828103825260278152602001807f46756e6374696f6e2063616e6e6f742062652063616c6c65642061742074686981526020017f732074696d652e0000000000000000000000000000000000000000000000000081525060400191505060405180910390fd5b600460018681548110151561185957fe5b906000526020600020906008020160030160146101000a81548160ff0219169083600481111561188557fe5b021790555060018581548110151561189957fe5b9060005260206000209060080201600201549350600180805490501115611a0f576001808080549050038154811015156118cf57fe5b90600052602060002090600802016001868154811015156118ec57fe5b906000526020600020906008020160008201816000019080546001816001161561010002031660029004611921929190612b1f565b5060018201548160010155600282015481600201556003820160009054906101000a900473ffffffffffffffffffffffffffffffffffffffff168160030160006101000a81548173ffffffffffffffffffffffffffffffffffffffff021916908373ffffffffffffffffffffffffffffffffffffffff1602179055506003820160149054906101000a900460ff168160030160146101000a81548160ff021916908360048111156119ce57fe5b021790555060048201816004019080546119e9929190612ba6565b50600582015481600501556006820181600601908054611a0a929190612bf8565b509050505b6001805480919060019003611a249190612c4a565b50600260003373ffffffffffffffffffffffffffffffffffffffff1673ffffffffffffffffffffffffffffffffffffffff16815260200190815260200160002060008154809291906001900391905055503373ffffffffffffffffffffffffffffffffffffffff166108fc859081150290604051600060405180830381858888f19350505050158015611abb573d6000803e3d6000fd5b507fe0ee560939d01d137df63ad5710d4d454d2f771177fbfed12eb2328fd063a9aa8533604051808381526020018273ffffffffffffffffffffffffffffffffffffffff1673ffffffffffffffffffffffffffffffffffffffff1681526020019250505060405180910390a15050505050565b6000809054906101000a900473ffffffffffffffffffffffffffffffffffffffff1673ffffffffffffffffffffffffffffffffffffffff163373ffffffffffffffffffffffffffffffffffffffff16141515611b8957600080fd5b6000809054906101000a900473ffffffffffffffffffffffffffffffffffffffff1673ffffffffffffffffffffffffffffffffffffffff167ff8df31144d9c2f0f6b59d69b8b98abd5459d07f2742c4df920b25aae33c6482060405160405180910390a260008060006101000a81548173ffffffffffffffffffffffffffffffffffffffff021916908373ffffffffffffffffffffffffffffffffffffffff160217905550565b6000823373ffffffffffffffffffffffffffffffffffffffff16600182815481101515611c5957fe5b906000526020600020906008020160030160009054906101000a900473ffffffffffffffffffffffffffffffffffffffff1673ffffffffffffffffffffffffffffffffffffffff16141515611d16576040517f08c379a000000000000000000000000000000000000000000000000000000000815260040180806020018281038252601a8152602001807f596f7520646f6e2774206f776e207468697320626f756e74792100000000000081525060200191505060405180910390fd5b836000806004811115611d2557fe5b600183815481101515611d3457fe5b906000526020600020906008020160030160149054906101000a900460ff166004811115611d5e57fe5b141515611df9576040517f08c379a00000000000000000000000000000000000000000000000000000000081526004018080602001828103825260278152602001807f46756e6374696f6e2063616e6e6f742062652063616c6c65642061742074686981526020017f732074696d652e0000000000000000000000000000000000000000000000000081525060400191505060405180910390fd5b60018087815481101515611e0957fe5b906000526020600020906008020160030160146101000a81548160ff02191690836004811115611e3557fe5b021790555084600187815481101515611e4a57fe5b906000526020600020906008020160050181905550600186815481101515611e6e57fe5b906000526020600020906008020160020154600360003373ffffffffffffffffffffffffffffffffffffffff1673ffffffffffffffffffffffffffffffffffffffff16815260200190815260200160002060008282540192505081905550600186815481101515611edb57fe5b906000526020600020906008020160060185815481101515611ef957fe5b9060005260206000200160009054906101000a900473ffffffffffffffffffffffffffffffffffffffff169350600186815481101515611f3557fe5b906000526020600020906008020160020154600660008673ffffffffffffffffffffffffffffffffffffffff1673ffffffffffffffffffffffffffffffffffffffff16815260200190815260200160002060008282540192505081905550600560008573ffffffffffffffffffffffffffffffffffffffff1673ffffffffffffffffffffffffffffffffffffffff168152602001908152602001600020600081548092919060010191905055507fe23c11e55758e802697563b6797f5a7fd5d977c37d714e97f9ee381c5cfc0973866040518082815260200191505060405180910390a1505050505050565b60036020528060005260406000206000915090505481565b6000809054906101000a900473ffffffffffffffffffffffffffffffffffffffff1673ffffffffffffffffffffffffffffffffffffffff163373ffffffffffffffffffffffffffffffffffffffff1614151561209457600080fd5b6000809054906101000a900473ffffffffffffffffffffffffffffffffffffffff1673ffffffffffffffffffffffffffffffffffffffff16ff5b60056020528060005260406000206000915090505481565b6000809054906101000a900473ffffffffffffffffffffffffffffffffffffffff1681565b606060018281548110151561211c57fe5b90600052602060002090600802016006018054806020026020016040519081016040528092919081815260200182805480156121ad57602002820191906000526020600020905b8160009054906101000a900473ffffffffffffffffffffffffffffffffffffffff1673ffffffffffffffffffffffffffffffffffffffff1681526020019060010190808311612163575b50505050509050919050565b6000341115156121c857600080fd5b6001610100604051908101604052808481526020018381526020013481526020013373ffffffffffffffffffffffffffffffffffffffff1681526020016000600481111561221257fe5b815260200160006040519080825280602002602001820160405280156122475781602001602082028038833980820191505090505b5081526020016000815260200160006040519080825280602002602001820160405280156122845781602001602082028038833980820191505090505b508152509080600181540180825580915050906001820390600052602060002090600802016000909192909190915060008201518160000190805190602001906122cf929190612c7c565b50602082015181600101556040820151816002015560608201518160030160006101000a81548173ffffffffffffffffffffffffffffffffffffffff021916908373ffffffffffffffffffffffffffffffffffffffff16021790555060808201518160030160146101000a81548160ff0219169083600481111561234f57fe5b021790555060a0820151816004019080519060200190612370929190612cfc565b5060c0820151816005015560e0820151816006019080519060200190612397929190612d49565b50505050600260003373ffffffffffffffffffffffffffffffffffffffff1673ffffffffffffffffffffffffffffffffffffffff168152602001908152602001600020600081548092919060010191905055507f8f00e5a5943b910d221f64e9ee013988885da9127ec8be785a522c00f551729f60018080549050033383604051808481526020018373ffffffffffffffffffffffffffffffffffffffff1673ffffffffffffffffffffffffffffffffffffffff168152602001828152602001935050505060405180910390a15050565b60066020528060005260406000206000915090505481565b60018181548110151561248f57fe5b9060005260206000209060080201600091509050806000018054600181600116156101000203166002900480601f01602080910402602001604051908101604052809291908181526020018280546001816001161561010002031660029004801561253b5780601f106125105761010080835404028352916020019161253b565b820191906000526020600020905b81548152906001019060200180831161251e57829003601f168201915b5050505050908060010154908060020154908060030160009054906101000a900473ffffffffffffffffffffffffffffffffffffffff16908060030160149054906101000a900460ff16908060050154905086565b803373ffffffffffffffffffffffffffffffffffffffff166001828154811015156125b757fe5b906000526020600020906008020160030160009054906101000a900473ffffffffffffffffffffffffffffffffffffffff1673ffffffffffffffffffffffffffffffffffffffff16141515612674576040517f08c379a000000000000000000000000000000000000000000000000000000000815260040180806020018281038252601a8152602001807f596f7520646f6e2774206f776e207468697320626f756e74792100000000000081525060200191505060405180910390fd5b81600080600481111561268357fe5b60018381548110151561269257fe5b906000526020600020906008020160030160149054906101000a900460ff1660048111156126bc57fe5b141515612757576040517f08c379a00000000000000000000000000000000000000000000000000000000081526004018080602001828103825260278152602001807f46756e6374696f6e2063616e6e6f742062652063616c6c65642061742074686981526020017f732074696d652e0000000000000000000000000000000000000000000000000081525060400191505060405180910390fd5b600360018581548110151561276857fe5b906000526020600020906008020160030160146101000a81548160ff0219169083600481111561279457fe5b0217905550600260003373ffffffffffffffffffffffffffffffffffffffff1673ffffffffffffffffffffffffffffffffffffffff16815260200190815260200160002060008154809291906001900391905055507fbe34663bc2803ca9be398afdbd7e0bd537378360b743b76b170e3421fbe384508433604051808381526020018273ffffffffffffffffffffffffffffffffffffffff1673ffffffffffffffffffffffffffffffffffffffff1681526020019250505060405180910390a150505050565b6000809054906101000a900473ffffffffffffffffffffffffffffffffffffffff1673ffffffffffffffffffffffffffffffffffffffff163373ffffffffffffffffffffffffffffffffffffffff161415156128b557600080fd5b6128be8161294d565b50565b6000809054906101000a900473ffffffffffffffffffffffffffffffffffffffff1673ffffffffffffffffffffffffffffffffffffffff163373ffffffffffffffffffffffffffffffffffffffff1614151561291c57600080fd5b8073ffffffffffffffffffffffffffffffffffffffff16ff5b60026020528060005260406000206000915090505481565b600073ffffffffffffffffffffffffffffffffffffffff168173ffffffffffffffffffffffffffffffffffffffff161415151561298957600080fd5b8073ffffffffffffffffffffffffffffffffffffffff166000809054906101000a900473ffffffffffffffffffffffffffffffffffffffff1673ffffffffffffffffffffffffffffffffffffffff167f8be0079c531659141344cd1fd0a4f28419497f9722a3daafe3b4186f6b6457e060405160405180910390a3806000806101000a81548173ffffffffffffffffffffffffffffffffffffffff021916908373ffffffffffffffffffffffffffffffffffffffff16021790555050565b828054600181600116156101000203166002900490600052602060002090601f016020900481019282601f10612a8857805160ff1916838001178555612ab6565b82800160010185558215612ab6579182015b82811115612ab5578251825591602001919060010190612a9a565b5b509050612ac39190612dd3565b5090565b815481835581811115612aee57818360005260206000209182019101612aed9190612dd3565b5b505050565b815481835581811115612b1a57818360005260206000209182019101612b199190612dd3565b5b505050565b828054600181600116156101000203166002900490600052602060002090601f016020900481019282601f10612b585780548555612b95565b82800160010185558215612b9557600052602060002091601f016020900482015b82811115612b94578254825591600101919060010190612b79565b5b509050612ba29190612dd3565b5090565b828054828255906000526020600020908101928215612be75760005260206000209182015b82811115612be6578254825591600101919060010190612bcb565b5b509050612bf49190612dd3565b5090565b828054828255906000526020600020908101928215612c395760005260206000209182015b82811115612c38578254825591600101919060010190612c1d565b5b509050612c469190612df8565b5090565b815481835581811115612c7757600802816008028360005260206000209182019101612c769190612e3b565b5b505050565b828054600181600116156101000203166002900490600052602060002090601f016020900481019282601f10612cbd57805160ff1916838001178555612ceb565b82800160010185558215612ceb579182015b82811115612cea578251825591602001919060010190612ccf565b5b509050612cf89190612dd3565b5090565b828054828255906000526020600020908101928215612d38579160200282015b82811115612d37578251825591602001919060010190612d1c565b5b509050612d459190612dd3565b5090565b828054828255906000526020600020908101928215612dc2579160200282015b82811115612dc15782518260006101000a81548173ffffffffffffffffffffffffffffffffffffffff021916908373ffffffffffffffffffffffffffffffffffffffff16021790555091602001919060010190612d69565b5b509050612dcf9190612df8565b5090565b612df591905b80821115612df1576000816000905550600101612dd9565b5090565b90565b612e3891905b80821115612e3457600081816101000a81549073ffffffffffffffffffffffffffffffffffffffff021916905550600101612dfe565b5090565b90565b612eda91905b80821115612ed65760008082016000612e5a9190612edd565b600182016000905560028201600090556003820160006101000a81549073ffffffffffffffffffffffffffffffffffffffff02191690556003820160146101000a81549060ff0219169055600482016000612eb59190612f25565b6005820160009055600682016000612ecd9190612f46565b50600801612e41565b5090565b90565b50805460018160011615610100020316600290046000825580601f10612f035750612f22565b601f016020900490600052602060002090810190612f219190612dd3565b5b50565b5080546000825590600052602060002090810190612f439190612dd3565b50565b5080546000825590600052602060002090810190612f649190612dd3565b505600a165627a7a7230582047337f75cf1812415ff240324a78329535e5a4e131f81108b1cc6d7931eb928d0029",
  "source": "pragma solidity ^0.4.24;\n\nimport 'openzeppelin-solidity/contracts/ownership/Ownable.sol';\nimport 'openzeppelin-solidity/contracts/lifecycle/Destructible.sol';\nimport 'openzeppelin-solidity/contracts/math/SafeMath.sol';\n\ncontract SEBounty is Destructible {\n    using SafeMath for uint256;\n\n    event BountyOpened(uint bountyIndex, address bountyOwner, uint questionId);\n    event BountyAwarded(uint bountyIndex);\n    event BountyClaimed(uint bountyIndex, address answerOwner);\n    event BountyCancelled(uint bountyIndex, address bountyOwner);\n    event BountyWithdrawn(uint bountyIndex, address bountyOwner);\n    event AnswerPosted(uint bountyIndex, address answerOwner, uint answerId);\n\n    enum Stages {\n        Opened,\n        Awarded,\n        Claimed,\n        Cancelled,\n        Withdrawn\n    }\n\n    struct Bounty {\n        string description;\n        uint questionId;\n        uint bountyValue;\n        address bountyOwner;\n        Stages stage;\n        uint[] answers;\n        uint acceptedAnswer;\n        address[] answerOwners;\n        mapping (address => bool) hasAnswered;\n    }\n\n    Bounty[] public bounties;\n    mapping (address => uint256) public bountyCount;\n    mapping (address => uint256) public awardedTotal;\n\n    mapping (address => uint256) public answerCount;\n    mapping (address => uint256) public acceptedCount;\n    mapping (address => uint256) public wonTotal;\n\n\n    modifier isBountyOwner(uint _bountyIndex) {\n        require(\n            bounties[_bountyIndex].bountyOwner == msg.sender,\n            \"You don't own this bounty!\"\n        );\n        _;\n    }\n\n    modifier isAnswerOwner(uint _bountyIndex, uint _answerIndex) {\n        require(\n            bounties[_bountyIndex].answerOwners[_answerIndex] == msg.sender,\n            \"You don't own this answer!\"\n        );\n        _;\n    }\n\n    modifier isAcceptedAnswerOwner(uint _bountyIndex) {\n        Bounty storage bountyRef = bounties[_bountyIndex];\n        require(\n            bountyRef.answerOwners[bountyRef.acceptedAnswer] == msg.sender,\n            \"You didn't win the bounty!\"\n        );\n        _;\n    }\n\n    modifier atStage(uint _bountyIndex, Stages _stage) {\n        require(\n            bounties[_bountyIndex].stage == _stage,\n            \"Function cannot be called at this time.\"\n        );\n        _;\n    }\n\n    constructor() public {\n        owner = msg.sender;\n    }\n\n    // Bounty functions.\n    function createBounty(\n        string _description,\n        uint _questionId)\n        public\n        payable\n    {\n        // They must send the amount of ETH with their creation request.\n        // This must be greater than nothing...\n        require(msg.value > 0);\n\n        // Create the bounty and add it to the public array of bounties.\n        bounties.push(Bounty({\n            description: _description,\n            questionId: _questionId,\n            bountyValue: msg.value,\n            bountyOwner: msg.sender,\n            stage: Stages.Opened,\n            answers: new uint[](0),\n            answerOwners: new address[](0),\n            acceptedAnswer: 0\n        }));\n\n        bountyCount[msg.sender]++;\n\n        emit BountyOpened(bounties.length - 1, msg.sender, _questionId);\n    }\n\n    function editBounty(\n        uint _bountyIndex,\n        string _description)\n        public\n        payable\n        isBountyOwner(_bountyIndex)\n        atStage(_bountyIndex, Stages.Opened)\n    {\n        if (msg.value != 0) {\n            bounties[_bountyIndex].bountyValue = msg.value;\n        }\n\n        bounties[_bountyIndex].description = _description;\n    }\n\n\n    function awardBounty(uint _bountyIndex, uint _answerIndex)\n        public\n        isBountyOwner(_bountyIndex)\n        atStage(_bountyIndex, Stages.Opened)\n    {\n        bounties[_bountyIndex].stage = Stages.Awarded;\n        bounties[_bountyIndex].acceptedAnswer = _answerIndex;\n\n        awardedTotal[msg.sender] += bounties[_bountyIndex].bountyValue;\n\n        address winner = bounties[_bountyIndex].answerOwners[_answerIndex];\n        wonTotal[winner] += bounties[_bountyIndex].bountyValue;\n        acceptedCount[winner]++;\n\n        emit BountyAwarded(_bountyIndex);\n    }\n\n\n    function claimBounty(uint _bountyIndex)\n        public\n        isAcceptedAnswerOwner(_bountyIndex)\n        atStage(_bountyIndex, Stages.Awarded)\n    {\n        // Use the state machine to protect against reentrancy.\n        bounties[_bountyIndex].stage = Stages.Claimed;\n        uint bounty = bounties[_bountyIndex].bountyValue;\n        bounties[_bountyIndex].bountyValue = 0;\n        msg.sender.transfer(bounty);\n\n        emit BountyClaimed(_bountyIndex, msg.sender);\n    }\n\n\n    function cancelBounty(uint _bountyIndex)\n        public\n        isBountyOwner(_bountyIndex)\n        atStage(_bountyIndex, Stages.Opened)\n    {\n        bounties[_bountyIndex].stage = Stages.Cancelled;\n\n        bountyCount[msg.sender]--;\n\n        emit BountyCancelled(_bountyIndex, msg.sender);\n    }\n\n\n    function withdrawBounty(uint _bountyIndex)\n        public\n        isBountyOwner(_bountyIndex)\n        atStage(_bountyIndex, Stages.Cancelled)\n    {\n        // Use the state machine to protect against reentrancy.\n        bounties[_bountyIndex].stage = Stages.Withdrawn;\n        uint bounty = bounties[_bountyIndex].bountyValue;\n\n        // Don't explicitly delete. Let the compiler clean things up.\n        if (bounties.length > 1) {\n            bounties[_bountyIndex] = bounties[bounties.length - 1];\n        }\n        bounties.length--;\n\n        bountyCount[msg.sender]--;\n\n        msg.sender.transfer(bounty);\n\n        emit BountyWithdrawn(_bountyIndex, msg.sender);\n    }\n\n    function getBountyCount()\n        public\n        view\n        returns (uint)\n    {\n        return bounties.length;\n    }\n\n\n    // Answer functions.\n    function postAnswer(uint _bountyIndex, uint _answerId)\n        public\n        atStage(_bountyIndex, Stages.Opened)\n    {\n        require(!bounties[_bountyIndex].hasAnswered[msg.sender]);\n\n        bounties[_bountyIndex].answers.push(_answerId);\n        bounties[_bountyIndex].answerOwners.push(msg.sender);\n\n        answerCount[msg.sender]++;\n        bounties[_bountyIndex].hasAnswered[msg.sender] = true;\n\n        emit AnswerPosted(_bountyIndex, msg.sender, _answerId);\n    }\n\n    function cancelAnswer(uint _bountyIndex, uint _answerIndex)\n        public\n        isAnswerOwner(_bountyIndex, _answerIndex)\n        atStage(_bountyIndex, Stages.Opened)\n    {\n        uint len = bounties[_bountyIndex].answers.length;\n\n        if (len > 1) {\n            bounties[_bountyIndex].answers[_answerIndex] =\n                bounties[_bountyIndex].answers[len - 1];\n            bounties[_bountyIndex].answerOwners[_answerIndex] =\n                bounties[_bountyIndex].answerOwners[len - 1];\n        }\n        bounties[_bountyIndex].answers.length--;\n        bounties[_bountyIndex].answerOwners.length--;\n\n        answerCount[msg.sender]--;\n        bounties[_bountyIndex].hasAnswered[msg.sender] = false;\n    }\n\n    function getAnswers(uint _bountyIndex)\n        public\n        view\n        returns (uint [])\n    {\n        return bounties[_bountyIndex].answers;\n    }\n\n    function getAnswerOwners(uint _bountyIndex)\n        public\n        view\n        returns (address [])\n    {\n        return bounties[_bountyIndex].answerOwners;\n    }\n\n    function getAnswerCount(uint _bountyIndex)\n        public\n        view\n        returns (uint)\n    {\n        return bounties[_bountyIndex].answers.length;\n    }\n}\n",
  "sourcePath": "/home/richard/Projects/ethereum-projects/ethereum-se-bounty/contracts/SEBounty.sol",
  "compiler": {
    "name": "solc",
    "version": "0.4.24+commit.e67f0147.Emscripten.clang"
  },
  "schemaVersion": "2.0.0",
  "updatedAt": "2018-07-23T16:43:19.007Z"
}